:1000000012C0D6C12BC037C029C028C064C026C0CA
:1000100025C024C023C022C021C020C01FC01EC0D4
:100020001DC01CC01BC011241FBECFE5D4E0DEBF25
:10003000CDBF10E0A0E6B0E0EEEAF5E002C005902A
:100040000D92A636B107D9F720E0A6E6B0E001C0D0
:100050001D92A438B207E1F782D0A7C2D1CF85B5EF
:10006000886085BD8AEF83BD85B5866085BD89B70B
:10007000806889BF08951F920F920FB60F921124C6
:100080002F938F939F9380916600909167008634A1
:100090002BE9920729F4109267001092660005C0C0
:1000A000019690936700809366009F918F912F91A6
:1000B0000F900FBE0F901F9018958EB588608EBD63
:1000C00089B7806189BF8DE38BBD89E08ABD8EB51C
:1000D00085608EBD08951F920F920FB60F92112466
:1000E0008F939F9380916B0090916C0090936A0026
:1000F0008093690010926C0010926B009F918F9119
:100100000F900FBE0F901F90189587B38E6287BB1C
:1001100088B3837D88BB88B3846088BB80E58DB954
:10012000089581B38B7F81BB82B3846082BB81B32E
:10013000806481BB82B38F7B82BB81B3806281BBD1
:1001400082B38F7D82BB87B3816087BB88B38E7F8C
:1001500088BB08958FB9779BFECF8FB10895E1DFFB
:1001600082B3806482BB82B3806282BBCEDF90D1D7
:1001700085B7826085BF8BB780648BBF2FEF83ED1F
:1001800090E3215080409040E1F700C0000082B32E
:100190008F7B82BB82B38F7D82BB81B5877F81BD20
:1001A00088B1806888B989DF5ADF7894CDE6D0E0DD
:1001B000809168008883CE01A8D180938000FE01E1
:1001C00001900020E9F73197AF014D565040440FA0
:1001D000551F60E070E0CE01E1D12FEF87EA91E694
:1001E000215080409040E1F700C00000DFCFEF9247
:1001F000FF920F931F93CF93DF938B01C42F98B37C
:100200009D7F98BB98B39B7F98BB90E0A3DF85E070
:100210008A95F1F700000AC07801EFEFEE1AFE0AA6
:10022000F801808190E096DFCD2F8701DFEFDC0FB2
:10023000C111F2CF88B3846088BB88B3826088BB69
:10024000DF91CF911F910F91FF90EF90089588B3A8
:100250008B7F88BB82EE90E07DDF85E08A95F1F7A9
:10026000000088B3846088BB089588B38B7F88BB07
:1002700081EE90E06FDF85E08A95F1F7000088B3AA
:10028000846088BB089588B38B7F88BB80E590E04D
:1002900061DF85E08A95F1F7000083E790E05ADF9F
:1002A00088B3846088BB0895EF92FF920F931F93E9
:1002B000CF93DF938B01C42F98B39B7F98BB90E0C3
:1002C00049DF0BC078018FEFE81AF80A8FEF90E052
:1002D00041DFF8018083CD2F8701DFEFDC0FC111F3
:1002E000F1CF88B3846088BBDF91CF911F910F91CC
:1002F000FF90EF900895EF92FF920F931F93CF938B
:10030000DF938B01C42F806298B39B7F98BB90E0F2
:1003100021DF85E08A95F1F700000AC07801EFEF50
:10032000EE1AFE0AF801808190E014DFCD2F8701DC
:10033000DFEFDC0FC111F2CF88B3846088BBDF919F
:10034000CF911F910F91FF90EF90089543E063E6E6
:1003500070E080E1D0DF43E063E670E08BE0CBDF6C
:1003600088B38D7F88BB73DF80DF0895CF93C62F5E
:10037000806298B39B7F98BB90E0ECDE8C2F90E07E
:10038000E9DE88B3846088BBCF910895CF93C82FEE
:1003900088B38B7F88BB8C2F90E0DCDEC73019F0F0
:1003A0008FEF90E0D7DE98B3946098BBCF9108951B
:1003B0001F920F920FB60F9211242F933F934F93DA
:1003C0005F936F937F938F939F93AF93BF93EF93BD
:1003D000FF9387E0DBDF86FF2EC0869587708093D2
:1003E000830045E068E770E081E65EDF60E487E077
:1003F000BDDF81E08093770082B3806282BB2FEF04
:1004000081EE94E0215080409040E1F700C0000070
:1004100082B38F7D82BB80917800813039F488B3BC
:10042000816088BB81E08093680005C088B38E7FBF
:1004300088BB10926800FF91EF91BF91AF919F919F
:100440008F917F916F915F914F913F912F910F907D
:100450000FBE0F901F90189580E098DF682F6360A3
:1004600080E084DF43E060E670E080E144DF43E069
:1004700060E670E08BE03FDF88B3826088BB87E591
:1004800092E00197F1F700C00000E1DEEEDE089592
:1004900088B38D7F88BB8FE19EE40197F1F700C0A0
:1004A00000006AE080E062DF8FE19EE40197F1F7EF
:1004B00000C0000063E081E059DF63E082E056DFC6
:1004C00061E083E053DF6FE684E050DFDCDE60E074
:1004D0008DE14CDF60E08CE149DF60E787E046DFDB
:1004E0006CE485E043DF66E086E040DF43E060E601
:1004F00070E080E100DF43E060E670E08BE0FBDE6F
:1005000065E082E133DFA8DF0895CF93DF93EC014C
:100510001DDF80E03BDF8E7F682F626080E026DF9A
:1005200087E592E00197F1F700C0000045E0BE01C9
:1005300080EA5DDE88B3826088BB90E59A95F1F72A
:1005400088B38D7F88BB8299FECF87E01FDF982F0D
:10055000957099F082B3806482BB2FEF81EE94E0B6
:10056000215080409040E1F700C0000082B38F7BB3
:1005700082BB60E287E0FADE06C082FF04C060E171
:1005800087E0F4DE72DE88E001DFC82F65DF60E718
:1005900087E0ECDE8C2FDF91CF910895DC0101C064
:0E05A0006D9341505040E0F70895F894FFCF5E
:0605AE00B5B5A1B7B5A12F
:00000001FF
