:1000000012C07EC688C25AC129C028C007C226C0F5
:1000100025C024C023C0E5C221C020C01FC01EC00F
:100020001DC01CC01BC011241FBECFE5D4E0DEBF25
:10003000CDBF10E0A0E6B0E0E4E8F8E102C0059032
:100040000D92AE38B107D9F721E0AEE8B0E001C0BB
:100050001D92A23DB207E1F734D312CCD1CF8091EB
:10006000EB0081113CC08091600090E09C01220F68
:10007000331F880F991F880F991F880F991F280F0A
:10008000391F8091F900280F311D8091610090E0A7
:10009000AC01440F551F880F991F880F991F880FB7
:1000A000991F840F951F4091FA00840F911D281706
:1000B000390754F481E08093EE0088B38E7F88BBCB
:1000C00082B3806182BB08952817390744F01092EB
:1000D000EE0088B3816088BB82B38F7E82BB0895B7
:1000E0009FB7F89481B3806881BBE3E9F7E031976B
:1000F000F1F700C0000081B38F7781BBE3E0F1E04E
:100100003197F1F700C00000879902C081E001C07B
:1001100080E09FBFEFE8F6E03197F1F700C0000004
:1001200008959FB7F89481B3806881BB2AE02A952F
:10013000F1F700C081B38F7781BB85E48A95F1F731
:10014000000080B3881F8827881F20EF2A95F1F7C9
:100150009FBF0895CF93DF93C0E0D0E00AC0E1DFF6
:1001600090E00C2E02C0880F991F0A94E2F7D82B5A
:10017000CF5FC830A0F38D2FDF91CF9108952FB7B7
:10018000F89491B3906891BB9AE09A95F1F700C00A
:10019000882319F081B38F7781BB83E091E00197C9
:1001A000F1F700C0000081B38F7781BB2FBF0895A6
:1001B000CF93DF93D82FC0E015C081E090E00C2EE4
:1001C00002C0880F991F0A94E2F72D2F30E02823F0
:1001D00039238217930719F481E0D1DF02C080E050
:1001E000CEDFCF5FC83048F3DF91CF910895CF9332
:1001F00077DF8130D1F48CECDBDF84E4D9DF2FEFC3
:100200008DE299E0215080409040E1F700C000006D
:1002100067DF8CECCDDF8EEBCBDF9CDFC82F9ADF66
:1002200090E0982F88278C2B02C080E090E0CF913F
:100230000895DDDF292F259525952595C1F4282FD3
:100240002F70322F330F220F220F220F230F2295F0
:100250002F702093EC0097709595879595958795CD
:1002600095958795959587958093ED000895282F0E
:1002700020952F70322F330F220F220F220F230FC2
:1002800022952F702093EC0080959095977095950E
:10029000879595958795959587959595879580935D
:1002A000ED00089585B5886085BD89B7806889BFF0
:1002B00088EC83BD85B5826085BD08951F920F923D
:1002C0000FB60F9211242F933F934F935F936F9329
:1002D0007F938F939F93AF93BF938091E200813080
:1002E00009F07FC09A993BC08091E100811137C02D
:1002F0008091610090E0AC01440F551F880F991F59
:10030000880F991F880F991F480F591F8091FA0075
:10031000480F511D4B5F5F4F509302014093010105
:100320009A01ADECBCEC68D7969587959695879524
:1003300096958795809361009C01220F331F880F4B
:10034000991F880F991F880F991F820F931F481BB1
:10035000590B4093FA0081E08093E1003CC09B99E7
:100360003AC08091E000811136C08091610090E038
:10037000AC01440F551F880F991F880F991F880FD4
:10038000991F480F591F8091FA00480F511D455081
:10039000510950930201409301019A01ADECBCEC6C
:1003A0002BD7969587959695879596958795809363
:1003B00061009C01220F331F880F991F880F991F1E
:1003C000880F991F820F931F481B590B4093FA0007
:1003D00081E08093E0009A991092E1009B9910923D
:1003E000E000BF91AF919F918F917F916F915F914D
:1003F0004F913F912F910F900FBE0F901F90189526
:100400008EB588608EBD89B7806189BF87E08BBD5E
:1004100080ED8ABD8EB582608EBD08951F920F92C9
:100420000FB60F9211242F933F934F935F936F93C7
:100430007F938F939F93AF93BF93CF93DF93EF936C
:10044000FF938091E7009091E800A091E900B091BE
:10045000EA00BC01CD016F5F7F4F8F4F9F4F6093CC
:10046000E7007093E8008093E9009093EA0020E1B0
:1004700037E240E050E0A4D6672B682B692BC1F52A
:10048000EEDD8091EB001F928F938091FA001F9216
:100490008F93809161001F928F938091F9001F923A
:1004A0008F93809160001F928F938091EE001F9236
:1004B0008F9388E690E09F938F93C0E9D0E0DF931D
:1004C000CF9306D7CE0151D609900020E9F72197A6
:1004D000AE014059504060E070E080E990E0D7D62E
:1004E0008DB79EB740960FB6F8949EBF0FBE8DBFD6
:1004F000FF91EF91DF91CF91BF91AF919F918F913C
:100500007F916F915F914F913F912F910F900FBE0F
:100510000F901F9018951F920F920FB60F921124F3
:100520008F938091E200813019F41092E20003C0B1
:1005300081E08093E2008F910F900FBE0F901F908B
:10054000189587B38E6287BB88B3837D88BB88B3D9
:10055000846088BB8DB180658DB9089581B38B7F30
:1005600081BB82B3846082BB81B3806481BB82B370
:100570008F7B82BB81B3806281BB82B38F7D82BB64
:1005800081B3806181BB82B38F7E82BB84B3826082
:1005900084BB85B38D7F85BB87B3816087BB88B300
:1005A0008E7F88BB84B3816084BB85B3816085BB4B
:1005B00081B3877F81BB82B3886082BB84B38B7F2A
:1005C00084BB85B3846085BB84B3877F84BB85B3DC
:1005D000886085BB81B38F7781BB82B38F7782BB05
:1005E00008951F920F920FB60F9211242F933F93ED
:1005F0004F935F936F937F938F939F93AF93BF932B
:10060000CF93DF93EF93FF9380918E0090918F00B3
:100610002CB1FC01E559FE4F20832F32A9F5CBE622
:10062000D1E0FE0101900020E9F73197AF014B5670
:10063000514041505109BE0186E091E01FD6FE01B4
:1006400001900020E9F73197AF014B56514060E02F
:1006500070E0CE011CD610928F0010928E006BE7D6
:1006600070E086E091E01AD6892B19F085B382609C
:1006700085BB63E870E086E091E010D6892B49F0F5
:1006800085B38D7F85BB05C0019690938F008093C5
:100690008E00FF91EF91DF91CF91BF91AF919F912C
:1006A0008F917F916F915F914F913F912F910F901B
:1006B0000FBE0F901F9018958FB9779BFECF8FB10B
:1006C00008952FEF43ED80E3215040408040E1F753
:1006D00000C0000043DF82B3806482BB82B38062CB
:1006E00082BB82B3806182BB85B3826085BB29DF18
:1006F00080E190E02BD5A4D49FEF21EE44E091500F
:1007000020404040E1F700C0000044D18FEF93ED5E
:1007100020E3815090402040E1F700C0000085B701
:100720008A6085BF8BB7806C8BBF4FEF87EA91E6FD
:10073000415080409040E1F700C0000082B38F7BC1
:1007400082BB82B38F7D82BB82B38F7E82BB85B337
:100750008D7F85BB55DEA6DD82DC81B5877F81BDBF
:100760009FE088E10FB6F894A89581BD0FBE91BDBA
:1007700088B1806888B978942FEF4DE389E42150DF
:1007800040408040E1F700C00000A8959FEF2DE3B6
:1007900049E4915020404040E1F700C00000A89596
:1007A0008091EB001F928F938091FA001F928F939C
:1007B000809161001F928F938091F9001F928F9317
:1007C000809160001F928F938091EE001F928F9313
:1007D00088E690E09F938F93C0E9D0E0DF93CF93BA
:1007E00077D5CE01C2D409900020E9F72197AE0158
:1007F0004059504060E070E080E990E048D58DB706
:100800009EB740960FB6F8949EBF0FBE8DBF609105
:10081000E7007091E8008091E9009091EA00209152
:10082000E3003091E400AB01421B530B9A0122F428
:1008300022273327241B350B29393A4394F0109291
:10084000EB002091ED00209360002091EC002093BC
:10085000F9006093E3007093E4008093E5009093C7
:10086000E60028EB3BE040E050E0AAD4672B682B81
:10087000692B91F58091EE008093EF002091FD00AF
:1008800090916100291306C03091FE002091FA007A
:10089000321719F08C598093EF00CFEED0E0998396
:1008A0008091FA008A83809160008B838091F900A7
:1008B0008C83CE0102D480936A0109900020E9F76D
:1008C0002197CF5ED040AE01440F551F60E070E02D
:1008D0008FEE90E0DCD4ADDC6091E7007091E80031
:1008E0008091E9009091EA0024EF31E040E050E08F
:1008F00067D4672B682B692B29F58091610090E004
:10090000BC01660F771F880F991F880F991F880FEA
:10091000991F680F791F2091600030E0C901880F8E
:10092000991F220F331F220F331F220F331F820FF5
:10093000931F2091FA00620F711D2091F900820F20
:10094000911D81D0A89563CFCF93C62F95B39E7F7D
:1009500095BB000090E0B0DE8C2F90E0ADDE85B35B
:10096000816085BB0000CF910895CF9360E08FE058
:10097000EBDF61E08CE0E8DF67E08BE0E5DF6FEF65
:1009800089E0E2DFC8E06FE08C2FDEDFC150D9F7ED
:10099000CF91089560E08FE0D7DF8FE39CE9019766
:1009A000F1F700C0000061E08CE0CEDF8FE39CE94E
:1009B0000197F1F700C0000067E08BE0C5DF8FE32F
:1009C0009CE90197F1F700C000006FEF89E0BCDF00
:1009D0008FE39CE90197F1F700C0000062E08AE034
:1009E000B3DF8FE39CE90197F1F700C00000BDDFA2
:1009F00060E089E0A9DF8FE39CE90197F1F700C08F
:100A000000006FEF81E0A0DF6FEF82E09DDF6FEF0E
:100A100083E09ADF6FEF84E097DF6FEF85E094DF8C
:100A20006FEF86E091DF6FEF87E08EDF6FEF88E09A
:100A30008BDF9FEF23ED80E3915020408040E1F772
:100A400000C000000895FF920F931F93CF93DF9390
:100A50008C01EB01083E83E018070CF067C0683E8C
:100A600073400CF065C081DF6EEE89E06DDF6EE4EF
:100A700081E06ADF6EE485E067DF0115110529F585
:100A800060E082E061DF60E883E05EDF24C083E055
:100A9000F81619F087E0F81209C0C8016AE070E0A2
:100AA0007CD3682F60688F2D4FDF07C0C8016AE0D4
:100AB00070E073D3682F8F2D47DFF394C8016AE08D
:100AC00070E06BD38B01000003C06894FF24F1F841
:100AD00001151105E1F6209721F560E086E034DF8D
:100AE00060E887E031DF80E024C0133011F0173078
:100AF00049F4CE016AE070E050D3682F6068812F1E
:100B000023DF07C0CE016AE070E047D3682F812F52
:100B10001BDF1F5FCE016AE070E03FD3EB010000F6
:100B200001C016E0209709F780E003C081E001C012
:100B300081E0DF91CF911F910F91FF900895EF9287
:100B4000FF920F931F93CF93DF938B01C42F98B322
:100B50009D7F98BB98B39B7F98BB90E0ADDD85E00F
:100B60008A95F1F700000AC07801EFEFEE1AFE0A4D
:100B7000F801808190E0A0DDCD2F8701DFEFDC0F51
:100B8000C111F2CF88B3846088BB88B3826088BB10
:100B9000DF91CF911F910F91FF90EF90089588B34F
:100BA0008B7F88BB82EE90E087DD85E08A95F1F748
:100BB000000088B3846088BB089588B38B7F88BBAE
:100BC00081EE90E079DD85E08A95F1F7000088B349
:100BD000846088BB089588B38B7F88BB80E590E0F4
:100BE0006BDD85E08A95F1F7000083E790E064DD36
:100BF00088B3846088BB0895EF92FF920F931F9390
:100C0000CF93DF938B01C42F98B39B7F98BB90E069
:100C100053DD0BC078018FEFE81AF80A8FEF90E0F0
:100C20004BDDF8018083CD2F8701DFEFDC0FC11191
:100C3000F1CF88B3846088BBDF91CF911F910F9172
:100C4000FF90EF900895EF92FF920F931F93CF9331
:100C5000DF938B01C42F806298B39B7F98BB90E099
:100C60002BDD85E08A95F1F700000AC07801EFEFEF
:100C7000EE1AFE0AF801808190E01EDDCD2F87017B
:100C8000DFEFDC0FC111F2CF88B3846088BBDF9146
:100C9000CF911F910F91FF90EF90089543E065E68B
:100CA00070E080E1D0DF43E065E670E08BE0CBDF11
:100CB00088B38D7F88BB73DF80DF0895CF93C62F05
:100CC000806298B39B7F98BB90E0F6DC8C2F90E01D
:100CD000F3DC88B3846088BBCF910895CF93C82F8D
:100CE00088B38B7F88BB8C2F90E0E6DCC73019F08F
:100CF0008FEF90E0E1DC98B3946098BBCF910895BA
:100D00001F920F920FB60F9211242F933F934F9380
:100D10005F936F937F938F939F93AF93BF93CF9383
:100D2000EF93FF9387E0DADFC82F86FF56C18695E1
:100D300087708093D10145E06CEF70E081E65CDF65
:100D400060E487E0BBDF81E08093FB0082B38062D8
:100D500082BB2FEF81EE94E0215080409040E1F77C
:100D600000C0000082B38F7D82BB8091E70090912C
:100D7000E800A091E900B091EA008093E30090932D
:100D8000E400A093E500B093E6008091FC0080931E
:100D9000EE008B3009F471C038F4813079F198F0AD
:100DA0008A3009F446C019C1853609F4ABC020F475
:100DB000843609F486C011C18E3609F4C5C08F3659
:100DC00009F4E8C00AC18091FF00833308F005C12F
:100DD000909100019A3008F000C12091FD0023336A
:100DE00008F0FBC02091FE002A3008F0F6C01092F7
:100DF000EB00809360009093F900EFC08091FF00BA
:100E0000833308F0EAC0909100019A3008F0E5C001
:100E10002091FD00233308F0E0C02091FE002A302D
:100E200008F0DBC01092EB00809360009093F90013
:100E3000D4C08091FF00833308F0CFC090910001AF
:100E40009A3008F0CAC02091FD00233308F0C5C0D5
:100E50002091FE002A3008F0C0C01092EE0021E080
:100E60002093EB00809360009093F90088B3816039
:100E700088BB82B38F7E82BBB0C08091FF0083337A
:100E800008F0ABC0909100019A3008F0A6C0209104
:100E9000FD00233308F0A1C02091FE002A3008F0A5
:100EA0009CC021E02093EE002093EB008093600033
:100EB0009093F90088B38E7F88BB82B3806182BB38
:100EC0008CC08091FF00833308F087C090910001AF
:100ED0009A3008F082C02091FD00233308F07DC0D5
:100EE0003091FE003A3008F078C01092EE00109277
:100EF000EB00809360009093F900209361003093A1
:100F0000FA006BC08091FF00833308F066C09091B7
:100F100000019A3008F061C02091FD00233308F0F1
:100F20005CC03091FE003A3008F057C041E0409379
:100F3000EE001092EB00809360009093F9002093F4
:100F400061003093FA0049C08091FF00833308F0BC
:100F500044C0909100019A3008F03FC02091FD00FC
:100F60002333D8F53091FE003A30B8F51092EE00F8
:100F700041E04093EB00809360009093F900209350
:100F800061003093FA0088B3816088BB82B38F7EA2
:100F900082BB23C08091FF008333F8F4909100015D
:100FA0009A30D8F42091FD002333B8F43091FE003C
:100FB0003A3098F441E04093EE004093EB00809388
:100FC00060009093F900209361003093FA0088B399
:100FD0008E7F88BB82B3806182BBC57019F060E2EE
:100FE00087E06CDEFF91EF91CF91BF91AF919F9120
:100FF0008F917F916F915F914F913F912F910F90C2
:101000000FBE0F901F90189580E068DE682F636018
:1010100080E054DE43E062E670E080E114DE43E00D
:1010200062E670E08BE00FDE88B3826088BB87E504
:1010300092E00197F1F700C00000B1DDBEDD089538
:1010400088B38D7F88BB8FE19EE40197F1F700C0E4
:1010500000006AE080E032DE8FE19EE40197F1F764
:1010600000C0000063E081E029DE63E082E026DE6C
:1010700061E083E023DE6FE684E020DEACDD60E04B
:101080008DE11CDE60E08CE119DE60E787E016DEB2
:101090006CE485E013DE66E086E010DE43E062E6A5
:1010A00070E080E1D0DD43E062E670E08BE0CBDD14
:1010B00065E082E103DEA8DF0895CF93DF93EC01C2
:1010C000EDDD80E00BDE8E7F682F626080E0F6DD74
:1010D00087E592E00197F1F700C0000045E0BE010E
:1010E00080EA2DDD88B3826088BB90E59A95F1F7A0
:1010F00088B38D7F88BB8299FECF87E0EFDD982F84
:10110000957099F082B3806482BB2FEF81EE94E0FA
:10111000215080409040E1F700C0000082B38F7BF7
:1011200082BB60E287E0CADD06C082FF04C060E1E6
:1011300087E0C4DD42DD88E0D1DDC82F65DF60E7F0
:1011400087E0BCDD8C2FDF91CF91089590BD89B9E8
:101150008AB188618AB98AB180688AB98BB18260A4
:101160008BB980B58E6880BD0895DC0180E008C031
:101170005D9BFECFFD01E20FF31F90819CB98F5F55
:10118000282F30E0FD0101900020E9F73197EA1B9C
:10119000FB0B2E173F0760F3089597FB072E16F4FD
:1011A000009406D077FD08D033D007FC05D03EF47C
:1011B000909581959F4F0895709561957F4F089503
:1011C000052E97FB16F400940FD057FD05D034D0B0
:1011D00007FC02D046F408C0509540953095219503
:1011E0003F4F4F4F5F4F0895909580957095619553
:1011F0007F4F8F4F9F4F0895A29FB001B39FC001B3
:10120000A39F01D0B29F700D811D1124911D0895DF
:10121000AA1BBB1B51E107C0AA1FBB1FA617B7071C
:1012200010F0A61BB70B881F991F5A95A9F7809538
:101230009095BC01CD010895A1E21A2EAA1BBB1BFB
:10124000FD010DC0AA1FBB1FEE1FFF1FA217B30792
:10125000E407F50720F0A21BB30BE40BF50B661FA8
:10126000771F881F991F1A9469F76095709580956C
:1012700090959B01AC01BD01CF010895FB01DC01FC
:1012800002C001900D9241505040D8F70895DC0102
:1012900001C06D9341505040E0F70895FB0151911A
:1012A0005523A9F0BF01DC014D9145174111E1F72C
:1012B00059F4CD010190002049F04D9140154111A4
:1012C000C9F3FB014111EFCF81E090E00197089550
:1012D000AEE0B0E0EDE6F9E0AAC20D891E8986E035
:1012E0008C831A8309838FEF9FE79E838D83AE01E2
:1012F000475E5F4F6F89788DCE01019608D0EF81F0
:10130000F885E00FF11F10822E96E4E0ACC2ABE04E
:10131000B0E0ECE8F9E07DC26C017B018A01FC01E0
:1013200017821682838181FFBFC1CE0101963C01E5
:10133000F6019381F70193FD859193FF81917F01E0
:10134000882309F4ADC1853239F493FD859193FF6B
:1013500081917F01853221F4B60190E0C0D1E8CFC0
:10136000912C212C312CFFE1F315D8F08B3279F040
:1013700038F4803279F08332A1F4232D20611DC02E
:101380008D3261F0803369F4232D216016C0832DE6
:101390008260382EE32DE4603E2E2AC0F32DF860E3
:1013A0001DC037FC2DC020ED280F2A3040F08E32B2
:1013B000B9F436FC75C1232D2064322E19C036FED7
:1013C00006C08AE0989E200D1124922E11C0EAE0FA
:1013D0002E9E200D1124222EF32DF0623F2E08C0E8
:1013E0008C3621F4832D8068382E02C0883641F473
:1013F000F70193FD859193FF81917F018111B3CF17
:10140000982F9F7D9554933028F40C5F1F4F9FE3D6
:1014100099830DC0833631F0833771F0833509F03D
:1014200055C020C0F801808189830E5F1F4F88243A
:101430008394912C530112C02801F2E04F0E511CED
:10144000F801A080B18036FE03C0692D70E002C0B3
:101450006FEF7FEFC50138D14C018201F32DFF778B
:101460003F2E15C0280122E0420E511CF801A08039
:10147000B18036FE03C0692D70E002C06FEF7FEFD0
:10148000C50117D14C01F32DF0683F2E820133FCCA
:1014900019C0822D90E088169906A0F4B60180E26A
:1014A00090E01DD12A94F5CFF50137FC859137FEE8
:1014B00081915F01B60190E012D121102A9421E0C0
:1014C000821A91088114910479F7E1C0843611F0F1
:1014D000893639F5F80137FE07C060817181828154
:1014E00093810C5F1F4F08C060817181072E000C33
:1014F000880B990B0E5F1F4FF32DFF763F2E97FF42
:1015000009C090958095709561957F4F8F4F9F4F43
:10151000F0683F2E2AE030E0A3011DD1882E861806
:1015200044C0853731F4232D2F7EB22E2AE030E0DF
:1015300025C0932D997FB92E8F36C1F018F48835C8
:1015400079F0AEC0803719F0883721F0A9C0E92FB3
:10155000E061BE2EB4FE0DC0FB2DF460BF2E09C0AD
:1015600034FE0AC0292F2660B22E06C028E030E0E3
:1015700005C020E130E002C020E132E0F801B7FE12
:1015800007C060817181828193810C5F1F4F06C00B
:101590006081718180E090E00E5F1F4FA301DBD07E
:1015A000882E8618FB2DFF773F2E36FE0DC0232D8B
:1015B0002E7FA22E891458F434FE0BC032FC09C0D1
:1015C000832D8E7EA82E05C0B82CA32C03C0B82C6A
:1015D00001C0B92CA4FE0FC0FE01E80DF11D8081F1
:1015E000803321F49A2D997EA92E09C0A2FE06C04F
:1015F000B394B39404C08A2D867809F0B394A3FC05
:1016000010C0A0FE06C0B21480F4280C922C9B18C7
:101610000DC0B21458F4B60180E290E060D0B394EB
:10162000F8CFB21418F42B1802C0982C212CA4FE69
:101630000FC0B60180E390E052D0A2FE16C0A1FC1C
:1016400003C088E790E002C088E590E0B6010CC0D6
:101650008A2D867851F0A1FE02C08BE201C080E2A3
:10166000A7FC8DE2B60190E03AD0891430F4B601BF
:1016700080E390E034D09A94F8CF8A94F301E80D97
:10168000F11D8081B60190E02AD08110F6CF222092
:1016900009F44ECEB60180E290E021D02A94F7CF33
:1016A000F6018681978102C08FEF9FEF2B96E2E1D2
:1016B000CCC0FC010590615070400110D8F78095B6
:1016C00090958E0F9F1F0895FC016150704001900E
:1016D0000110D8F7809590958E0F9F1F08950F9356
:1016E0001F93CF93DF93FB01238121FD03C08FEF75
:1016F0009FEF2CC022FF16C046815781248135817F
:101700004217530744F4A081B1819D012F5F3F4FE1
:10171000318320838C93268137812F5F3F4F37831E
:10172000268314C08B01EC01FB010084F185E02DC0
:101730000995892BE1F6D80116968D919C91179702
:10174000019617969C938E931697CE01DF91CF91B9
:101750001F910F910895FA01AA27283051F12031E5
:1017600081F1E8946F936E7F6E5F7F4F8F4F9F4F35
:10177000AF4FB1E03ED0B4E03CD0670F781F891F77
:101780009A1FA11D680F791F8A1F911DA11D6A0F45
:10179000711D811D911DA11D20D009F468943F91F8
:1017A0002AE0269F11243019305D3193DEF6CF01F7
:1017B0000895462F4770405D4193B3E00FD0C9F7BD
:1017C000F6CF462F4F70405D4A3318F0495D31FD2A
:1017D0004052419302D0A9F7EACFB4E0A69597957D
:1017E000879577956795BA95C9F700976105710553
:1017F00008959B01AC010A2E06945795479537959D
:101800002795BA95C9F7620F731F841F951FA01DF6
:1018100008952F923F924F925F926F927F928F9294
:101820009F92AF92BF92CF92DF92EF92FF920F936F
:101830001F93CF93DF93CDB7DEB7CA1BDB0B0FB679
:10184000F894DEBF0FBECDBF09942A883988488836
:101850005F846E847D848C849B84AA84B984C884CC
:10186000DF80EE80FD800C811B81AA81B981CE0FC3
:10187000D11D0FB6F894DEBF0FBECDBFED010895A8
:04188000F894FFCF0A
:101884001414B5B5A1B7B5A125642025642E25642B
:101894002025642E25642025642000576946692D7F
:0E18A4004F4B00576946692D4552524F520076
:00000001FF
