S01E00004741535F424F494C45525F5452414E534D49545445522E7372656353
S113000012C07DC8F8C141C129C028C0CFC126C0D3
S113001025C024C023C020C221C020C01FC01EC0D0
S11300201DC01CC01BC011241FBECFE5D4E0DEBF21
S1130030CDBF10E0A0E6B0E0E6E1FCE102C005902F
S11300400D92A03AB107D9F721E0A0EAB0E001C0CF
S11300501D92A233B207E1F72CD2DBCDD1CF809130
S1130060D700811126C080912D0140912F0120914C
S11300702E0130E05AE0859F200D311D112480911E
S11300802B0190E05AE0459F800D911D1124281703
S1130090390734F481E08093DE00C098949A04C058
S11300A01092DE00C09A94986091DE0085E090E0A2
S11300B0D1C008959FB7F8948F9AE3E9F7E0319798
S11300C0F1F700C000008F98E3E0F1E03197F1F719
S11300D000C0000080B39FBFEFE8F6E03197F1F76E
S11300E000C000008095881F8827881F08959FB747
S11300F0F8948F9A2AE02A95F1F700C08F9885E446
S11301008A95F1F7000080B320EF2A95F1F79FBF9D
S1130110881F8827881F08951F93CF93DF93C0E01B
S1130120D0E010E0E4DF0C2E01C0880F0A94EAF757
S1130130182B2196C830D105A9F7812FDF91CF91D3
S11301401F9108959FB7F8948F9A2AE02A95F1F7A2
S113015000C081118F98E3E0F1E03197F1F700C01E
S113016000008F989FBF0895EF92FF920F931F9303
S1130170CF93DF93C0E0D0E0EE24E394F12C082F7A
S113018010E0C7010C2E02C0880F991F0A94E2F7F1
S11301909801282339238217930711F481E001C0C1
S11301A080E0D0DF2196C830D10559F7DF91CF9197
S11301B01F910F91FF90EF900895CF937BDF8130D3
S11301C0D9F48CECD1DF84E4CFDF2FEF4DE259E09A
S11301D0215040405040E1F700C000006BDF8CEC40
S11301E0C3DF8EEBC1DF98DFC82F96DF2C2F30E002
S11301F0A901582BCA0102C080E090E0CF91089574
S1130200DCDF292F259525952595382F61F43F703E
S1130210232F220F48E0349F200D112422952F70A4
S11302202093DC000EC030953F70232F220F48E04E
S1130230349F200D112422952F702093DC0080958B
S11302409095977024E0959587952A95E1F780938A
S1130250DD000895E199FECF9FBB8EBB6DBBE29A92
S1130260E19A0895E199FECF9FBB8EBBE09A8DB3CE
S1130270089585B5886085BD89B7806889BF88EC95
S113028083BD85B5826085BD08951F920F920FB618
S11302900F9211242F933F934F935F936F937F9308
S11302A08F939F93AF93BF93CF93EF93FF93C0919B
S11302B0C200C13009F05AC09A9928C08091C10087
S11302C0811124C08091F1009091F20005969093E1
S11302D0F2008093F10020912D016AE070E002D8D1
S11302E03AE0369FA001379F500D1124BA01680FE0
S11302F0791F90912E01892F90E03AE0239F800D81
S1130300911D1124DDD5C093C1002AC09B9928C03A
S11303108091C000811124C08091F1009091F2007D
S113032005979093F2008093F10020912D016AE0EB
S113033070E0D8D73AE0369FA001379F500D1124C2
S1130340BA01680F791F90912E01892F90E03AE04D
S1130350239F800D911D1124B3D581E08093C000AB
S11303609A991092C1009B991092C000FF91EF914D
S1130370CF91BF91AF919F918F917F916F915F9139
S11303804F913F912F910F900FBE0F901F90189592
S11303908EB588608EBD89B7806189BF87E08BBDCB
S11303A080ED8ABD8EB582608EBD08951F920F9236
S11303B00FB60F9211248F939F93AF93BF938091A5
S11303C0D3009091D400A091D500B091D6000196AD
S11303D0A11DB11D8093D3009093D400A093D500A8
S11303E0B093D600BF91AF919F918F910F900FBEA4
S11303F00F901F9018951F920F920FB60F92112411
S11304008F9381E08093DF008F910F900FBE0F9048
S11304101F90189587B38E6287BB88B3837D88BB92
S1130420C29A8DB180658DB908958A98929A8E9AF0
S113043096988D9A95988C9A9498A19AA998B89A16
S1130440C098A09AA89A8B98939AA298AA9AA398CB
S1130450AB9A8F98979808951F920F920FB60F92A8
S113046011242F938F939F93EF93FF938091A00078
S11304709091A1002CB1FC01E950FF4F20832F3251
S113048021F481E08093E00005C001969093A100DF
S11304908093A000FF91EF919F918F912F910F90E6
S11304A00FBE0F901F9018958FB9779BFECF8FB119
S11304B00895CF93DF93CDB7DEB7C654D1090FB6F5
S11304C0F894DEBF0FBECDBF2FEF33ED40E32150D4
S11304D030404040E1F700C00000A7DF969A959AAB
S11304E0949AA99A97DF80E190E0DAD65ED66FEF0E
S11304F071EE84E0615070408040E1F700C000007C
S113050086D49FEFE3EDF0E39150E040F040E1F753
S113051000C0000085B78A6085BF8BB7806C8BBF35
S11305202FEF37EA41E6215030404040E1F700C068
S11305300000969895989498A9982ADF9ADE8FDD02
S113054081B5877F81BD9FE088E10FB6F894A895B7
S113055081BD0FBE91BD479A6FEF7DE389E4615081
S113056070408040E1F700C00000A8959FEFEDE3E4
S1130570F9E49150E040F040E1F700C00000A89594
S113058081E090E06FDE853620F064E181E090E068
S113059061DE82E090E066DE853620F060E082E095
S11305A090E058DE83E090E05DDE853620F064E183
S11305B083E090E04FDE84E090E054DE853620F066
S11305C060E084E090E046DE85E090E04BDE853636
S11305D020F060E085E090E03DDE86E090E042DEE1
S11305E0853620F060E086E090E034DE81E090E043
S11305F039DE80932F0182E090E034DE80932B017A
S113060083E090E02FDE80932D0184E090E02ADEE9
S113061080932E0185E090E025DE8093DE0086E065
S113062090E020DE8093D7001ADD8091D7001F92DE
S11306308F9380912B011F928F9380912F011F9292
S11306408F9380912E011F928F9380912D011F9281
S11306508F938091DE001F928F9386E690E09F93A4
S11306608F9302EA10E01F930F93D3D7C80123D6C8
S1130670F80101900020E9F73197AF01425A504048
S113068060E070E0C80199D778940FB6F894DEBFA3
S11306900FBECDBF552453949AE0892E912C26E6A3
S11306A0C22E20E0D22E31EE632E30E0732E47EFBF
S11306B0A42E40E0B42E54E1452E7E0133E3E30E34
S11306C0F11C9091EB00913009F037C1959A4FEFEE
S11306D061EE74E0415060407040E1F700C00000FA
S11306E095984091D3005091D4006091D5007091B9
S11306F0D6004093CF005093D0006093D100709304
S1130700D2008091EC008093DE008B3009F457C056
S113071030F4813099F090F08A3091F10CC1853633
S113072009F489C020F4843609F468C004C18E3603
S113073009F4A2C08F3609F4C2C0FDC06091EF0075
S1130740633308F0F8C08091F0008A3008F0F3C0F9
S11307509091ED00933308F0EEC09091EE009A3042
S113076008F0E9C01092D70060932D0180932E0108
S113077083E090E06FDD60912E0184E090E0D5C0CD
S11307809091EF00933308F0D6C08091F0008A3046
S113079008F0D1C02091ED00233308F0CCC02091A3
S11307A0EE002A3008F0C7C01092DE005092D70045
S11307B090932D0180932E01C09A9498A8C0209103
S11307C0EF00233308F0B7C08091F0008A3008F0BE
S11307D0B2C03091ED00333308F0ADC03091EE007B
S11307E03A3008F0A8C09093DE009093D70020938D
S11307F02D0180932E01C098949A89C02091EF0016
S1130800233308F098C09091F0009A3008F093C018
S11308106091ED00633308F08EC08091EE008A3061
S113082008F089C01092DE001092D70020932D01A9
S113083090932E011CC03091EF00333308F07BC03D
S11308402091F0002A3008F076C06091ED00633307
S113085008F071C08091EE008A3008F06CC090936B
S1130860DE001092D70030932D0120932E01609367
S11308702F0180932B0143C03091EF00333308F0F4
S11308805AC02091F0002A3008F055C09091ED0034
S1130890933308F050C08091EE008A3008F04BC0CA
S11308A01092DE005092D70030932D0120932E0138
S11308B090932F0180932B01C09A94981EC030917D
S11308C0EF003333C0F52091F0002A30A0F5909169
S11308D0ED00933380F58091EE008A3060F55092FC
S11308E0DE005092D70030932D0120932E01909377
S11308F02F0180932B01C098949A60912F0181E07D
S113090090E0A8DC60912B0182E090E0A3DC609190
S11309102D0183E090E09EDC60912E0184E090E064
S113092099DC6091DE0085E090E094DC6091D70072
S113093086E090E08FDC1092EB002091DF00213004
S113094009F05FC08091C200813009F048C0109264
S1130950C2008091F1009091F200B401C3D460937D
S11309602F0180932B0181E090E074DC60912B01D6
S113097082E090E06FDC73DB8091D7001F928F934D
S113098080912B011F928F9380912F011F928F933F
S113099080912E011F928F9380912D011F928F932E
S11309A08091DE001F928F93DF92CF921F930F935B
S11309B030D682EA90E07FD4F80101900020E9F774
S11309C03197AF01425A504060E070E082EA90E013
S11309D0F4D50FB6F894DEBF0FBECDBF10C0309172
S11309E02F0180912B0190E0EAE03E9F800D911D44
S11309F011249093F2008093F1002093C20010928E
S1130A00DF002091D3003091D4004091D500509163
S1130A10D6008091CF009091D000B901681B790B6A
S1130A20CB0177FF03C091958195910989399A4348
S1130A30FCF01092D7006091DD0060932D0180914D
S1130A40DC0080932E012093CF003093D00040939C
S1130A50D1005093D20083E090E0FCDB60912E0142
S1130A6084E090E0F7DB6091D70086E090E0F2DB71
S1130A70A8958091D3009091D4002091CB0030911F
S1130A80CC00821B930B97FF03C09195819591092C
S1130A90893B9B400CF444C08091DE008093E100CC
S1130AA020912F013091ED0090912B01321304C05D
S1130AB03091EE00391719F08C598093E10020939E
S1130AC0E2009093E30080912D018093E4008091F3
S1130AD02E018093E50081EE90E0A1D38093F6008F
S1130AE0F30101900020E9F73197AF01415E5040D6
S1130AF0440F551F60E070E081EE90E05ED580DB2E
S1130B008091D3009091D400A091D500B091D600EB
S1130B108093CB009093CC00A093CD00B093CE00F3
S1130B20A8958091D3009091D4002091C300309176
S1130B30C400821B930B97FF03C091958195910983
S1130B40853F91404CF18091C200813029F1809120
S1130B502F0120912D0160912B0170E03AE0839FD9
S1130B60600D711D112480912E0190E04AE0249FB4
S1130B70800D911D1124A4D18091D3009091D400B3
S1130B80A091D500B091D6008093C3009093C40087
S1130B90A093C500B093C600A8958091D30090910E
S1130BA0D4002091C7003091C800821B930B97FF9B
S1130BB003C0919581959109813197420CF443C00A
S1130BC04EDA8091D7001F928F9380912B011F9250
S1130BD08F9380912F011F928F9380912E011F92EA
S1130BE08F9380912D011F928F938091DE001F922D
S1130BF08F93DF92CF921F930F930BD582EA90E0ED
S1130C005AD3F80101900020E9F73197AF01425A15
S1130C10504060E070E082EA90E0CFD48091D3004D
S1130C209091D400A091D500B091D6008093C700D4
S1130C309093C800A093C900B093CA000FB6F8946B
S1130C40DEBF0FBECDBF8091E000813009F0BBC094
S1130C50F50101900020E9F7AF01495F504067EFCB
S1130C6070E0CE010196A0D4F50101900020E9F7CF
S1130C703197AF01475F504060E070E087EF90E04C
S1130C809CD41092A1001092A00069E770E0CE01FC
S1130C900196A5D4892B09F0A99A61E870E0CE01E8
S1130CA001969DD4892B09F0A9986CE870E0CE01D7
S1130CB0019695D4892B09F484C06FE870E0CE01C5
S1130CC001968DD4892B19F01092D90009C062E9DC
S1130CD070E0CE01019683D4892B11F05092D90093
S1130CE065E970E0CE0101967AD4892B19F010924F
S1130CF0D80009C06AE970E0CE01019670D4892B4E
S1130D0011F05092D800F701242D11922A95E9F799
S1130D1062E470E0CE01019657D4FC01868197818C
S1130D20F701918380834AE050E060E070E0C701FE
S1130D3022D36093DB00F701242D11922A95E9F761
S1130D4062E470E0CE0101963FD4FC0181858BAB57
S1130D504AE050E060E070E0C7010DD36093DA0030
S1130D60F701242D11922A95E9F76091DB00809117
S1130D702F01861729F060932F0181E090E06ADA51
S1130D806091DA0080912B01861729F060932B0182
S1130D9082E090E05FDA6091D9008091DE008617EE
S1130DA029F06093DE0085E090E054DA6091D80089
S1130DB08091D700861729F06093D70086E090E0F1
S1130DC049DA1092E000A8957CCCCF93C62FA8985E
S1130DD0000090E069DB8C2F90E066DBA89A0000AD
S1130DE0CF910895CF9360E08FE0EFDF61E08CE076
S1130DF0ECDF67E08BE0E9DF6FEF89E0E6DFC8E076
S1130E006FE08C2FE2DFC150D9F7CF91089560E0F5
S1130E108FE0DBDF8FE39CE90197F1F700C000006E
S1130E2061E08CE0D2DF8FE39CE90197F1F700C029
S1130E30000067E08BE0C9DF8FE39CE90197F1F7DD
S1130E4000C000006FEF89E0C0DF8FE39CE90197E9
S1130E50F1F700C0000064E08AE0B7DF8FE39CE9AB
S1130E600197F1F700C00000BDDF60E089E0ADDF6D
S1130E708FE39CE90197F1F700C000006FEF81E078
S1130E80A4DF6FEF82E0A1DF6FEF83E09EDF6FEFFF
S1130E9084E09BDF6FEF85E098DF6FEF86E095DFFE
S1130EA06FEF87E092DF6FEF88E08FDF9FEF23ED36
S1130EB080E3915020408040E1F700C00000089595
S1130EC0CF92DF92EF92FF920F931F93CF93DF9312
S1130ED08C01EB01083E83E018070CF05CC0683E0F
S1130EE073400CF058C07EDF6EEE89E06EDF6EE476
S1130EF081E06BDF6EE485E068DF0115110539F4EC
S1130F0060E082E062DF60E883E05FDF1DC092E0C2
S1130F10F92E2AE0C22ED12CC801B601F7D1682FD0
S1130F208F2D53DF2F2DF394C801B601EFD18B0120
S1130F300000672B49F02B7F223071F7C801B601FE
S1130F40E5D1682F6068ECCF209739F460E086E043
S1130F503CDF60E887E039DF1CC016E08AE0E82E59
S1130F60F12CCE01B701D2D1682F812F2EDF212F92
S1130F701F5FCE01B701CAD1EB010000209749F0F1
S1130F802B7F223071F7CE01B701C0D1682F606882
S1130F90ECCF80E001C081E0DF91CF911F910F91F0
S1130FA0FF90EF90DF90CF900895FF920F931F93DF
S1130FB0CF93DF93F62ED72FC42FC198C29890E019
S1130FC073DA85E08A95F1F700000F2D1D2FCC23ED
S1130FD039F0F80181918F0190E066DAC150F7CFC2
S1130FE0C29AC19ADF91CF911F910F91FF900895FA
S1130FF0C29882EE90E058DA85E08A95F1F7000015
S1131000C29A0895C29881EE90E04EDA85E08A95FE
S1131010F1F70000C29A0895C29880E590E044DA9E
S113102085E08A95F1F7000083E790E03DDAC29A03
S11310300895FF920F931F93CF93DF93F62ED72F2C
S1131040C42FC29890E030DA0F2D1D2FCC2341F02D
S11310508FEF90E029DAF80181938F01C150F6CF28
S1131060C29ADF91CF911F910F91FF900895FF9243
S11310700F931F93CF93DF93F62ED72FC42FC298CD
S1131080806290E011DA85E08A95F1F700000F2D77
S11310901D2FCC2339F0F80181918F0190E004DAFF
S11310A0C150F7CFC29ADF91CF911F910F91FF905A
S11310B0089543E063E670E080E1D9DF43E063E64E
S11310C070E08BE0D4DFC19893DF9CCFCF93C62F21
S11310D0C298806290E0E8D98C2F90E0E5D9C29A5A
S11310E0CF910895CF93C82FC29890E0DDD9C7302F
S11310F019F08FEF90E0D8D9C29ACF9108951F923A
S11311000F920FB60F9211242F933F934F935F9337
S11311106F937F938F939F93AF93BF93CF93EF93EB
S1131120FF9387E0DFDFC82F86FF0FC086958770A7
S113113080932C0145E06CEE70E081E67ADF60E498
S113114087E0C4DF81E08093EB00C57019F060E2B2
S113115087E0BCDFFF91EF91CF91BF91AF919F9159
S11311608F917F916F915F914F913F912F910F904C
S11311700FBE0F901F90189580E0B4DF682F636056
S113118080E0A4DF43E060E670E080E170DF43E0EC
S113119060E670E08BE06BDFC19A87E592E001972F
S11311A0F1F700C0000024DF2DCFC1988FE19EE449
S11311B00197F1F700C000006AE080E087DF8FE16B
S11311C09EE40197F1F700C0000063E081E07EDF58
S11311D063E082E07BDF61E083E078DF6FE684E058
S11311E075DF1ADF60E08DE171DF60E08CE16EDFB6
S11311F060E787E06BDF6CE485E068DF66E086E04B
S113120065DF43E060E670E080E131DF43E060E603
S113121070E08BE02CDF65E082E158DFADCFCF9347
S1131220DF93EC0146DF80E05DDF8E7F682F626034
S113123080E04CDF87E592E00197F1F700C0000001
S113124045E0BE0180EAB1DEC19A90E59A95F1F7D6
S1131250C1988299FECF87E045DF982F957079F089
S1131260969A2FEF81EE94E0215080409040E1F770
S113127000C00000969860E287E028DF06C082FF85
S113128004C060E187E022DFBDDE88E02BDFC82FE9
S113129073DF60E787E01ADF8C2FDF91CF91089529
S11312A090BD89B98AB188618AB9579A599A80B52B
S11312B08E6880BD089540E0242F30E0FC01019049
S11312C00020E9F73197E81BF90B2E173F0748F484
S11312D05D9BFECFFC01E20FF31F20812CB94F5F11
S11312E0EBCF0895AA1BBB1B51E107C0AA1FBB1F6C
S11312F0A617B70710F0A61BB70B881F991F5A959E
S1131300A9F780959095BC01CD01089597FB072E10
S113131016F4009406D077FD08D0E4DF07FC05D06E
S11313203EF4909581959F4F0895709561957F4FF8
S11313300895A1E21A2EAA1BBB1BFD010DC0AA1F12
S1131340BB1FEE1FFF1FA217B307E407F50720F02A
S1131350A21BB30BE40BF50B661F771F881F991FA5
S11313601A9469F760957095809590959B01AC01EE
S1131370BD01CF010895A0E0B0E0E0ECF9E007C4BE
S11313805C016B017A016115710519F0FB01918310
S11313908083E114F10429F0C7010297839708F0D0
S11313A0E2C0E5012196F5011081812F90E0F4D08F
S11313B0892B11F05E01F5CF1D3229F42196F50138
S11313C0118101E007C01B3221F4E5012296F501E9
S11313D0118100E0E114F10409F1F0E1EF16F104E8
S11313E029F43EC010E3E114F10421F128E0E216EF
S11313F0F10401F154F4E2E0EE16F10421F5812C3C
S1131400912CA12CB0E4BB2E3DC0FAE0EF16F10400
S113141039F020E1E216F104B1F42FC0103311F1D8
S1131420FAE0EF2EF12CACEC8A2E982CA82CACE030
S1131430BA2E28C078E0E72EF12C812C912CA12C17
S1131440E0E1BE2E1FC060E070E080E090E897010C
S11314500F2C000C440B550B6CDF49015A0112C0D0
S1131460103359F488818F7D883509F0BBCF1981F9
S11314702296026080E1E82EF12C812C912CA12C83
S113148068E0B62E40E060E070E0CB0127010F2C4D
S1131490000C66087708FE0150ED352E310E29E068
S11314A0231570F42FEB210F2A3118F439EC332E65
S11314B006C02FE9210F2A3110F529EA322E310E08
S11314C0232D30E02E153F05D4F447FD15C08616B4
S11314D09706A806B90668F0A30192013ED3630DEE
S11314E0711D811D911D61307105810520E89207F0
S11314F010F04FEF01C041E021961081CCCF202F96
S11315002170C114D10471F0442329F02197F6010C
S1131510D183C08307C001FF19C02297F601D1838C
S1131520C08314C047FF12C0222329F060E070E09A
S113153080E090E804C06FEF7FEF8FEF9FE722E237
S113154030E0309331012093300109C0222381F02F
S113155090958095709561957F4F8F4F9F4F462F43
S1131560372F282F12C040E030E020E090E00DC07B
S113157097FFF5CF82E290E09093310180933001A0
S11315806FEF7FEF8FEF9FE7EACF642F732F822FE8
S1131590CDB7DEB7E1E117C391112CC2803219F047
S11315A089508550D0F70895FB01DC0102C00190F9
S11315B00D9241505040D8F70895DC0101C06D935D
S11315C041505040E0F70895FC018191861721F0C5
S11315D08823D9F7992708953197CF010895FB01FE
S11315E051915523A9F0BF01DC014D9145174111DB
S11315F0E1F759F4CD010190002049F04D914015D7
S11316004111C9F3FB014111EFCF81E090E0019753
S11316100895AEE0B0E0EEE0FBE0C6C20D891E899D
S113162086E08C831A8309838FEF9FE79E838D83E3
S1131630AE01475E5F4F6F89788DCE01019608D069
S1131640EF81F885E00FF11F10822E96E4E0C8C206
S1131650ABE0B0E0EDE2FBE099C26C017B018A01F2
S1131660FC0117821682838181FFBFC1CE010196DE
S11316703C01F6019381F70193FD859193FF8191DC
S11316807F01882309F4ADC1853239F493FD859136
S113169093FF81917F01853221F4B60190E0C3D19B
S11316A0E8CF912C212C312CFFE1F315D8F08B32AB
S11316B079F038F4803279F08332A1F4232D20615B
S11316C01DC08D3261F0803369F4232D216016C072
S11316D0832D8260382EE32DE4603E2E2AC0F32D44
S11316E0F8601DC037FC2DC020ED280F2A3040F0D3
S11316F08E32B9F436FC75C1232D2064322E19C004
S113170036FE06C08AE0989E200D1124922E11C048
S1131710EAE02E9E200D1124222EF32DF0623F2E9E
S113172008C08C3621F4832D8068382E02C0883698
S113173041F4F70193FD859193FF81917F0181111C
S1131740B3CF982F9F7D9554933028F40C5F1F4F8F
S11317509FE399830DC0833631F0833771F083356D
S113176009F055C020C0F801808189830E5F1F4FA6
S113177088248394912C530112C02801F2E04F0E67
S1131780511CF801A080B18036FE03C0692D70E0C1
S113179002C06FEF7FEFC5013BD14C018201F32DF5
S11317A0FF773F2E15C0280122E0420E511CF8019C
S11317B0A080B18036FE03C0692D70E002C06FEFD7
S11317C07FEFC5011AD14C01F32DF0683F2E820141
S11317D033FC19C0822D90E088169906A0F4B60156
S11317E080E290E020D12A94F5CFF50137FC859171
S11317F037FE81915F01B60190E015D121102A9442
S113180021E0821A91088114910479F7E1C08436A9
S113181011F0893639F5F80137FE07C0608171810E
S1131820828193810C5F1F4F08C060817181072EF4
S1131830000C880B990B0E5F1F4FF32DFF763F2E84
S113184097FF09C090958095709561957F4F8F4F54
S11318509F4FF0683F2E2AE030E0A30120D1882E6C
S1131860861844C0853731F4232D2F7EB22E2AE00A
S113187030E025C0932D997FB92E8F36C1F018F42E
S1131880883579F0AEC0803719F0883721F0A9C0C7
S1131890E92FE061BE2EB4FE0DC0FB2DF460BF2E17
S11318A009C034FE0AC0292F2660B22E06C028E0E3
S11318B030E005C020E130E002C020E132E0F80170
S11318C0B7FE07C060817181828193810C5F1F4FD5
S11318D006C06081718180E090E00E5F1F4FA3011C
S11318E0DED0882E8618FB2DFF773F2E36FE0DC0E6
S11318F0232D2E7FA22E891458F434FE0BC032FC03
S113190009C0832D8E7EA82E05C0B82CA32C03C03D
S1131910B82C01C0B92CA4FE0FC0FE01E80DF11DC6
S11319208081803321F49A2D997EA92E09C0A2FECC
S113193006C0B394B39404C08A2D867809F0B39496
S1131940A3FC10C0A0FE06C0B21480F4280C922C94
S11319509B180DC0B21458F4B60180E290E063D035
S1131960B394F8CFB21418F42B1802C0982C212C7D
S1131970A4FE0FC0B60180E390E055D0A2FE16C0CD
S1131980A1FC03C088E790E002C088E590E0B601BE
S11319900CC08A2D867851F0A1FE02C08BE201C0F2
S11319A080E2A7FC8DE2B60190E03DD0891430F4CA
S11319B0B60180E390E037D09A94F8CF8A94F3018B
S11319C0E80DF11D8081B60190E02DD08110F6CF95
S11319D0222009F44ECEB60180E290E024D02A946D
S11319E0F7CFF6018681978102C08FEF9FEF2B9688
S11319F0E2E1E8C0992788270895FC010590615029
S1131A0070400110D8F7809590958E0F9F1F089510
S1131A10FC016150704001900110D8F780959095B9
S1131A208E0F9F1F08950F931F93CF93DF93FB0196
S1131A30238121FD03C08FEF9FEF2CC022FF16C02E
S1131A4046815781248135814217530744F4A0818C
S1131A50B1819D012F5F3F4F318320838C93268179
S1131A6037812F5F3F4F3783268314C08B01EC01EE
S1131A70FB010084F185E02D0995892BE1F6D8015D
S1131A8016968D919C911797019617969C938E9319
S1131A901697CE01DF91CF911F910F910895FA010E
S1131AA0AA27283051F1203181F1E8946F936E7F99
S1131AB06E5F7F4F8F4F9F4FAF4FB1E03ED0B4E08A
S1131AC03CD0670F781F891F9A1FA11D680F791FCB
S1131AD08A1F911DA11D6A0F711D811D911DA11DDC
S1131AE020D009F468943F912AE0269F11243019EC
S1131AF0305D3193DEF6CF010895462F4770405D87
S1131B004193B3E00FD0C9F7F6CF462F4F70405D35
S1131B104A3318F0495D31FD4052419302D0A9F790
S1131B20EACFB4E0A6959795879577956795BA958A
S1131B30C9F700976105710508959B01AC010A2E50
S1131B4006945795479537952795BA95C9F7620F27
S1131B50731F841F951FA01D0895DB018F939F930E
S1131B600BD0BF91AF91A29F800D911DA39F900DAB
S1131B70B29F900D1124089540D0A59F900DB49F5D
S1131B80900DA49F800D911D112408952F923F92D2
S1131B904F925F926F927F928F929F92AF92BF9279
S1131BA0CF92DF92EF92FF920F931F93CF93DF9325
S1131BB0CDB7DEB7CA1BDB0B0FB6F894DEBF0FBE82
S1131BC0CDBF09942A88398848885F846E847D84CF
S1131BD08C849B84AA84B984C884DF80EE80FD80D1
S1131BE00C811B81AA81B981CE0FD11D0FB6F89447
S1131BF0DEBF0FBECDBFED010895A29FB001B39F1C
S1131C00C001A39F01D0B29F700D811D1124911DAD
S1091C100895F894FFCFD3
S1131C16B5B5A1B7B5A125642025642E2564202574
S1131C26642E25642025642000576946692D4F4B90
S1131C3600576946692D4552524F52004244004F9F
S1131C4646004F4E004155544F004D414E5500003D
S9030000FC
