S01E00004741535F424F494C45525F5452414E534D49545445522E7372656353
S113000012C08FC54DC25AC129C028C007C226C01C
S113001025C024C023C022C021C020C01FC01EC0D0
S11300201DC01CC01BC011241FBECFE5D4E0DEBF21
S1130030CDBF10E0A0E6B0E0E2EBFEE002C0059028
S11300400D92A836B107D9F720E0A8E6B0E001C0C8
S11300501D92A139B207E1F78ED229C7D1CF809181
S113006075008A30E0F58091600090E09C01220FD9
S1130070331F880F991F880F991F880F991F280F06
S1130080391F80918000280F311D8091610090E01C
S1130090AC01440F551F880F991F880F991F880FB3
S11300A0991F840F951F40918100840F911D28177B
S11300B0390754F481E08093750088B3816088BB6C
S11300C082B3806182BB08952817390744F01092E7
S11300D0750088B38E7F88BB82B38F7E82BB089500
S11300E09FB7F89481B3806881BBE3E9F7E0319767
S11300F0F1F700C0000081B38F7781BBE3E0F1E04A
S11301003197F1F700C00000879902C081E001C077
S113011080E09FBFEFE8F6E03197F1F700C0000000
S113012008959FB7F89481B3806881BB2AE02A952B
S1130130F1F700C081B38F7781BB85E48A95F1F72D
S1130140000080B3881F8827881F20EF2A95F1F7C5
S11301509FBF0895CF93DF93C0E0D0E00AC0E1DFF2
S113016090E00C2E02C0880F991F0A94E2F7D82B56
S1130170CF5FC830A0F38D2FDF91CF9108952FB7B3
S1130180F89491B3906891BB9AE09A95F1F700C006
S1130190882319F081B38F7781BB83E091E00197C5
S11301A0F1F700C0000081B38F7781BB2FBF0895A2
S11301B0CF93DF93D82FC0E015C081E090E00C2EE0
S11301C002C0880F991F0A94E2F72D2F30E02823EC
S11301D039238217930719F481E0D1DF02C080E04C
S11301E0CEDFCF5FC83048F3DF91CF910895CF932E
S11301F077DF8130D1F48CECDBDF84E4D9DF2FEFBF
S11302008DE299E0215080409040E1F700C0000069
S113021067DF8CECCDDF8EEBCBDF9CDFC82F9ADF62
S113022090E0982F88278C2B02C080E090E0CF913B
S11302300895DDDF292F259525952595C1F4282FCF
S11302402F70322F330F220F220F220F230F2295EC
S11302502F70209373009770959587959595879542
S11302609595879595958795809374000895282F83
S113027020952F70322F330F220F220F220F230FBE
S113028022952F7020937300809590959770959583
S11302908795959587959595879595958795809359
S11302A07400089585B5886085BD89B7806889BF65
S11302B088EC83BD85B5826085BD08951F920F9239
S11302C00FB60F9211242F933F934F935F936F9325
S11302D07F938F939F93AF93BF9380916A008130F4
S11302E009F07FC09A993BC080916900811137C0A1
S11302F08091610090E0AC01440F551F880F991F55
S1130300880F991F880F991F480F591F80918100EA
S1130310480F511D4B5F5F4F5093890040938800F5
S11303209A01ADECBCEC7AD5969587959695879510
S113033096958795809361009C01220F331F880F47
S1130340991F880F991F880F991F820F931F481BAD
S1130350590B4093810081E0809369003CC09B99D4
S11303603AC080916800811136C08091610090E0AC
S1130370AC01440F551F880F991F880F991F880FD0
S1130380991F480F591F80918100480F511D4550F6
S1130390510950938900409388009A01ADECBCEC5C
S11303A03DD596958795969587959695879580934F
S11303B061009C01220F331F880F991F880F991F1A
S11303C0880F991F820F931F481B590B409381007C
S11303D081E0809368009A99109269009B99109229
S11303E06800BF91AF919F918F917F916F915F91C1
S11303F04F913F912F910F900FBE0F901F90189522
S11304008EB588608EBD89B7806189BF87E08BBD5A
S113041080ED8ABD8EB582608EBD08951F920F92C5
S11304200FB60F9211242F933F934F935F936F93C3
S11304307F938F939F93AF93BF93EF93FF93809199
S11304406F0090917000A0917100B0917200BC0196
S1130450CD016F5F7F4F8F4F9F4F60936F007093FD
S11304607000809371009093720020E137E240E0C5
S113047050E0B8D4672B682B692B09F4F0DDFF91A9
S1130480EF91BF91AF919F918F917F916F915F9108
S11304904F913F912F910F900FBE0F901F90189581
S11304A01F920F920FB60F9211248F9380916A00BE
S11304B0813019F410926A0003C081E080936A00CD
S11304C08F910F900FBE0F901F90189587B38E6277
S11304D087BB88B3837D88BB88B3846088BB8DB1B8
S11304E080658DB9089581B38B7F81BB82B38460AD
S11304F082BB81B3806481BB82B38F7B82BB81B3B7
S1130500806281BB82B38F7D82BB81B3806181BBFA
S113051082B38F7E82BB84B3826084BB85B38D7FBC
S113052085BB87B3816087BB88B38E7F88BB84B368
S1130530816084BB85B3816085BB81B3877F81BBC8
S113054082B3886082BB84B38B7F84BB85B38460B1
S113055085BB84B3877F84BB85B3886085BB81B347
S11305608F7781BB82B38F7782BB08958FB9779BD6
S1130570FECF8FB108952FEF43ED80E3215040402B
S11305808040E1F700C00000AEDF82B3806482BB2C
S113059082B3806282BB82B3806182BB85B3826096
S11305A085BB94DF86D39FEF21EE44E09150204039
S11305B04040E1F700C00000FED08FEF93ED20E350
S11305C0815090402040E1F700C0000085B78A6068
S11305D085BF8BB7806C8BBF4FEF83ED90E34150A9
S11305E080409040E1F700C0000082B38F7B82BB63
S11305F082B38F7D82BB82B38F7E82BB85B38D7FB6
S113060085BB81B5877F81BD9FE088E10FB6F894F3
S1130610A89581BD0FBE91BD88B1806888B9F0DE10
S113062041DE7894A89560916F007091700080917C
S113063071009091720020916B0030916C00AB01BD
S1130640421B530B9A0122F422273327241B350B18
S113065029393A43BCF0209175002A502A3010F40D
S11306602093750020917400209360002091730002
S11306702093800060936B0070936C0080936D00F6
S113068090936E0028EB3BE040E050E0ABD3672B47
S1130690682B692B91F580917500809376002091E9
S11306A0840090916100291306C030918500209147
S11306B08100321719F08C5980937600C6E7D0E098
S11306C09983809181008A83809160008B838091DB
S11306D080008C83CE012AD380938D000990002062
S11306E0E9F72197C657D040AE01440F551F60E08B
S11306F070E086E790E0D4D39CDD60916F00709148
S11307007000809171009091720024EF31E040E01C
S113071050E068D3672B682B692B29F58091610021
S113072090E0BC01660F771F880F991F880F991FEF
S1130730880F991F680F791F2091600030E0C9016C
S1130740880F991F220F331F220F331F220F331FCD
S1130750820F931F20918100620F711D20918000F0
S1130760820F911D81D0A8955ECFCF93C62F95B3EC
S11307709E7F95BB000090E0F9DE8C2F90E0F6DEC2
S113078085B3816085BB0000CF910895CF9360E06D
S11307908FE0EBDF61E08CE0E8DF67E08BE0E5DF32
S11307A06FEF89E0E2DFC8E06FE08C2FDEDFC1503D
S11307B0D9F7CF91089560E08FE0D7DF8FE39CE90C
S11307C00197F1F700C0000061E08CE0CEDF8FE319
S11307D09CE90197F1F700C0000067E08BE0C5DFFA
S11307E08FE39CE90197F1F700C000006FEF89E007
S11307F0BCDF8FE39CE90197F1F700C0000062E0E1
S11308008AE0B3DF8FE39CE90197F1F700C00000B1
S1130810BDDF60E089E0A9DF8FE39CE90197F1F790
S113082000C000006FEF81E0A0DF6FEF82E09DDF8A
S11308306FEF83E09ADF6FEF84E097DF6FEF85E07F
S113084094DF6FEF86E091DF6FEF87E08EDF6FEF6D
S113085088E08BDF9FEF23ED80E3915020408040C0
S1130860E1F700C000000895FF920F931F93CF9308
S1130870DF938C01EB01083E83E018070CF067C09E
S1130880683E73400CF065C081DF6EEE89E06DDF79
S11308906EE481E06ADF6EE485E067DF011511052F
S11308A029F560E082E061DF60E883E05EDF24C078
S11308B083E0F81619F087E0F81209C0C8016AE06D
S11308C070E07DD2682F60688F2D4FDF07C0C801AC
S11308D06AE070E074D2682F8F2D47DFF394C8016B
S11308E06AE070E06CD28B01000003C06894FF24BE
S11308F0F1F801151105E1F6209721F560E086E095
S113090034DF60E887E031DF80E024C0133011F089
S1130910173049F4CE016AE070E051D2682F606864
S1130920812F23DF07C0CE016AE070E048D2682F30
S1130930812F1BDF1F5FCE016AE070E040D2EB0124
S1130940000001C016E0209709F780E003C081E0B1
S113095001C081E0DF91CF911F910F91FF90089525
S1130960EF92FF920F931F93CF93DF938B01C42FCA
S113097098B39D7F98BB98B39B7F98BB90E0F6DDBE
S113098085E08A95F1F700000AC07801EFEFEE1ACE
S1130990FE0AF801808190E0E9DDCD2F8701DFEFC9
S11309A0DC0FC111F2CF88B3846088BB88B3826046
S11309B088BBDF91CF911F910F91FF90EF90089525
S11309C088B38B7F88BB82EE90E0D0DD85E08A958A
S11309D0F1F7000088B3846088BB089588B38B7FE7
S11309E088BB81EE90E0C2DD85E08A95F1F70000D6
S11309F088B3846088BB089588B38B7F88BB80E507
S1130A0090E0B4DD85E08A95F1F7000083E790E09B
S1130A10ADDD88B3846088BB0895EF92FF920F9395
S1130A201F93CF93DF938B01C42F98B39B7F98BB05
S1130A3090E09CDD0BC078018FEFE81AF80A8FEF85
S1130A4090E094DDF8018083CD2F8701DFEFDC0F88
S1130A50C111F1CF88B3846088BBDF91CF911F911E
S1130A600F91FF90EF900895EF92FF920F931F93D1
S1130A70CF93DF938B01C42F806298B39B7F98BB85
S1130A8090E074DD85E08A95F1F700000AC07801F2
S1130A90EFEFEE1AFE0AF801808190E067DDCD2FBA
S1130AA08701DFEFDC0FC111F2CF88B3846088BB0C
S1130AB0DF91CF911F910F91FF90EF90089543E044
S1130AC065E670E080E1D0DF43E065E670E08BE04E
S1130AD0CBDF88B38D7F88BB73DF80DF0895CF932E
S1130AE0C62F806298B39B7F98BB90E03FDD8C2F2C
S1130AF090E03CDD88B3846088BBCF910895CF93A8
S1130B00C82F88B38B7F88BB8C2F90E02FDDC73034
S1130B1019F08FEF90E02ADD98B3946098BBCF91E1
S1130B2008951F920F920FB60F9211242F933F93A3
S1130B304F935F936F937F938F939F93AF93BF93E1
S1130B40CF93EF93FF9387E0DADFC82F86FF7EC051
S1130B50869587708093900045E063E870E081E6B5
S1130B605CDF60E487E0BBDF81E08093820082B3D6
S1130B70806282BB2FEF81EE94E021508040904050
S1130B80E1F700C0000082B38F7D82BB80916F00CB
S1130B9090917000A0917100B091720080936B00ED
S1130BA090936C00A0936D00B0936E0080918300CD
S1130BB0809375008436D9F028F48A3051F08B3054
S1130BC079F044C08E3629F18F3691F18536F1F5EE
S1130BD017C088B38E7F88BB82B38F7E82BB36C03A
S1130BE088B3816088BB82B3806182BB2FC0E3E895
S1130BF0F0E081818093610082818093810026C02E
S1130C00E3E8F0E081818093610082818093810038
S1130C101DC0E3E8F0E081818093610082818093CC
S1130C20810088B38E7F88BB82B38F7E82BB0EC067
S1130C30E3E8F0E081818093610082818093810008
S1130C4088B3816088BB82B3806182BBC57019F0B0
S1130C5060E287E044DFFF91EF91CF91BF91AF91C4
S1130C609F918F917F916F915F914F913F912F91C0
S1130C700F900FBE0F901F90189580E040DF682FF3
S1130C80636080E02CDF43E062E670E080E1ECDE4C
S1130C9043E062E670E08BE0E7DE88B3826088BB05
S1130CA087E592E00197F1F700C0000089DE96DE47
S1130CB0089588B38D7F88BB8FE19EE40197F1F797
S1130CC000C000006AE080E00ADF8FE19EE4019743
S1130CD0F1F700C0000063E081E001DF63E082E03F
S1130CE0FEDE61E083E0FBDE6FE684E0F8DE84DEB6
S1130CF060E08DE1F4DE60E08CE1F1DE60E787E046
S1130D00EEDE6CE485E0EBDE66E086E0E8DE43E000
S1130D1062E670E080E1A8DE43E062E670E08BE02A
S1130D20A3DE65E082E1DBDEA8DF0895CF93DF93E5
S1130D30EC01C5DE80E0E3DE8E7F682F626080E038
S1130D40CEDE87E592E00197F1F700C0000045E0B0
S1130D50BE0180EA05DE88B3826088BB90E59A957F
S1130D60F1F788B38D7F88BB8299FECF87E0C7DE19
S1130D70982F957099F082B3806482BB2FEF81EE37
S1130D8094E0215080409040E1F700C0000082B31D
S1130D908F7B82BB60E287E0A2DE06C082FF04C0D4
S1130DA060E187E09CDE1ADE88E0A9DEC82F65DFFB
S1130DB060E787E094DE8C2FDF91CF91089597FB55
S1130DC0072E16F4009406D077FD08D033D007FC24
S1130DD005D03EF4909581959F4F08957095619547
S1130DE07F4F0895052E97FB16F400940FD057FDFE
S1130DF005D034D007FC02D046F408C05095409585
S1130E00309521953F4F4F4F5F4F089590958095B2
S1130E10709561957F4F8F4F9F4F0895A29FB001AA
S1130E20B39FC001A39F01D0B29F700D811D1124F7
S1130E30911D0895AA1BBB1B51E107C0AA1FBB1F2C
S1130E40A617B70710F0A61BB70B881F991F5A9552
S1130E50A9F780959095BC01CD010895A1E21A2EC1
S1130E60AA1BBB1BFD010DC0AA1FBB1FEE1FFF1F4A
S1130E70A217B307E407F50720F0A21BB30BE40B9A
S1130E80F50B661F771F881F991F1A9469F76095E1
S1130E907095809590959B01AC01BD01CF0108959B
S1130EA0DC0101C06D9341505040E0F70895F8947F
S1050EB0FFCF6E
S10B0EB21414B5B5A1B7B5A1F4
S9030000FC
