S01E00004741535F424F494C45525F5452414E534D49545445522E7372656353
S113000012C0BFC22BC037C029C028C064C026C0DC
S113001025C024C023C022C021C020C01FC01EC0D0
S11300201DC01CC01BC011241FBECFE5D4E0DEBF21
S1130030CDBF10E0A0E6B0E0ECE7F8E002C0059028
S11300400D92A836B107D9F720E0A8E6B0E001C0C8
S11300501D92A938B207E1F789D00EC4D1CF85B576
S1130060886085BD8AEF83BD85B5866085BD89B707
S1130070806889BF08951F920F920FB60F921124C2
S11300802F938F939F938091680090916900863499
S11300902BE9920729F4109269001092680005C0B8
S11300A0019690936900809368009F918F912F919E
S11300B00F900FBE0F901F9018958EB588608EBD5F
S11300C089B7806189BF8DE38BBD89E08ABD8EB518
S11300D085608EBD08951F920F920FB60F92112462
S11300E08F939F9380916D0090916E0090936C001C
S11300F080936B0010926E0010926D009F918F910F
S11301000F900FBE0F901F90189587B38E6287BB18
S113011088B3837D88BB88B3846088BB8DB18065D8
S11301208DB9089581B38B7F81BB82B3846082BB18
S113013081B3806481BB82B38F7B82BB81B38062D5
S113014081BB82B38F7D82BB87B3816087BB88B359
S11301508E7F88BB84B3816084BB85B3816085BB9B
S113016008958FB9779BFECF8FB10895DBDF82B3FB
S1130170806482BB82B3806282BBC7DFC9D22FEFA7
S113018081EE94E0215080409040E1F700C00000EF
S1130190CBD02FEF83ED90E3215080409040E1F7E6
S11301A000C0000085B7826085BF8BB780648BBFB9
S11301B02FEF83ED90E3215080409040E1F700C0A1
S11301C0000082B38F7B82BB82B38F7D82BB81B5FB
S11301D0877F81BD88B1806888B96FDF40DF7894FC
S11301E0CFE6D0E080916A008883CE01CED280939E
S11301F08500FE0101900020E9F73197AF014F56C9
S11302005040440F551F60E070E0CE012ED32FEF15
S113021087EA91E6215080409040E1F700C0000059
S1130220DFCFCF93C62F95B39E7F95BB000090E0A0
S113023098DF8C2F90E095DF85B3816085BB00004B
S1130240CF910895CF93C8E06FE08C2FEADFC150BF
S1130250D9F7CF910895EF92FF920F931F93CF9305
S11302607C018B01EFDF6EEE89E0DBDF6EE481E081
S1130270D8DF6EE485E0D5DFE114F10411F560E028
S113028082E0CFDF60E883E0CCDF1FC0C33011F031
S1130290C73049F4C7016AE070E0C0D2682F6068D3
S11302A08C2FBFDF07C0C7016AE070E0B7D2682FA8
S11302B08C2FB7DFCF5FC7016AE070E0AFD27B015C
S11302C001C0C2E0E114F10409F70115110511F5AB
S11302D060E086E0A6DF60E887E0A3DF1FC0C330EC
S11302E011F0C73049F4C8016AE070E097D2682F72
S11302F060688C2F96DF07C0C8016AE070E08ED278
S1130300682F8C2F8EDFCF5FC8016AE070E086D241
S11303108B0101C0C6E00115110509F7CF911F91AA
S11303200F91FF90EF9008956FEF89E07ADF8FE3EC
S11303309CE90197F1F700C0000067E08BE071DFF2
S11303408FE39CE90197F1F700C0000065E08AE0C3
S113035068DF8FE39CE90197F1F700C0000061E0DA
S11303608CE05FDF8FE39CE90197F1F700C00000A8
S113037069DF61E081E055DF62E082E052DF63E043
S113038083E04FDF64E084E04CDF65E085E049DF33
S113039066E086E046DF67E087E043DF68E088E008
S11303A040DF9FEF23ED80E3915020408040E1F750
S11303B000C0000065E071E088EC90E04CDF089537
S11303C0EF92FF920F931F93CF93DF938B01C42F70
S11303D098B39D7F98BB98B39B7F98BB90E0C1DE98
S11303E085E08A95F1F700000AC07801EFEFEE1A74
S11303F0FE0AF801808190E0B4DECD2F8701DFEFA3
S1130400DC0FC111F2CF88B3846088BB88B38260EB
S113041088BBDF91CF911F910F91FF90EF900895CA
S113042088B38B7F88BB82EE90E09BDE85E08A9563
S1130430F1F7000088B3846088BB089588B38B7F8C
S113044088BB81EE90E08DDE85E08A95F1F70000AF
S113045088B3846088BB089588B38B7F88BB80E5AC
S113046090E07FDE85E08A95F1F7000083E790E075
S113047078DE88B3846088BB0895EF92FF920F936F
S11304801F93CF93DF938B01C42F98B39B7F98BBAB
S113049090E067DE0BC078018FEFE81AF80A8FEF5F
S11304A090E05FDEF8018083CD2F8701DFEFDC0F62
S11304B0C111F1CF88B3846088BBDF91CF911F91C4
S11304C00F91FF90EF900895EF92FF920F931F9377
S11304D0CF93DF938B01C42F806298B39B7F98BB2B
S11304E090E03FDE85E08A95F1F700000AC07801CC
S11304F0EFEFEE1AFE0AF801808190E032DECD2F94
S11305008701DFEFDC0FC111F2CF88B3846088BBB1
S1130510DF91CF911F910F91FF90EF90089543E0E9
S113052064E670E080E1D0DF43E064E670E08BE0F5
S1130530CBDF88B38D7F88BB73DF80DF0895CF93D3
S1130540C62F806298B39B7F98BB90E00ADE8C2F05
S113055090E007DE88B3846088BBCF910895CF9381
S1130560C82F88B38B7F88BB8C2F90E0FADDC7300F
S113057019F08FEF90E0F5DD98B3946098BBCF91BC
S113058008951F920F920FB60F9211242F933F9349
S11305904F935F936F937F938F939F93AF93BF9387
S11305A0EF93FF9387E0DBDF86FF85C08695877036
S11305B08093880045E06DE770E081E65EDF60E4EB
S11305C087E0BDDF81E080937C0082B3806282BBE0
S11305D02FEF81EE94E0215080409040E1F700C07D
S11305E0000082B38F7D82BB80917D00813091F5C4
S11305F088B3816088BB81E080936A00EDE7F0E016
S1130600818180936000528150937B0023812093E9
S11306107A0044814093790090E0BC01660F771F13
S1130620880F991F880F991F880F991F680F791FCA
S113063030E0C901880F991F220F331F220F331F87
S1130640220F331F820F931F650F711D840F911D9D
S113065002DE31C088B38E7F88BB10926A00EDE75A
S1130660F0E0218120936000528150937B008381CC
S113067080937A0044814093790030E0B901660F99
S1130680771F220F331F220F331F220F331F620FD6
S1130690731F282F30E0C901880F991F220F331FC1
S11306A0220F331F220F331F820F931F650F711DFB
S11306B0840F911DD0DDFF91EF91BF91AF919F9178
S11306C08F917F916F915F914F913F912F910F90F7
S11306D00FBE0F901F90189580E041DF682F636074
S11306E080E02DDF43E061E670E080E1EDDE43E091
S11306F061E670E08BE0E8DE88B3826088BB87E562
S113070092E00197F1F700C000008ADE97DE0895B9
S113071088B38D7F88BB8FE19EE40197F1F700C019
S113072000006AE080E00BDF8FE19EE40197F1F7BF
S113073000C0000063E081E002DF63E082E0FFDEEE
S113074061E083E0FCDE6FE684E0F9DE85DE60E0F4
S11307508DE1F5DE60E08CE1F2DE60E787E0EFDE5C
S11307606CE485E0ECDE66E086E0E9DE43E061E629
S113077070E080E1A9DE43E061E670E08BE0A4DE96
S113078065E082E1DCDEA8DF0895CF93DF93EC011E
S1130790C6DE80E0E4DE8E7F682F626080E0CFDE1C
S11307A087E592E00197F1F700C0000045E0BE0143
S11307B080EA06DE88B3826088BB90E59A95F1F7FB
S11307C088B38D7F88BB8299FECF87E0C8DE982FDF
S11307D0957099F082B3806482BB2FEF81EE94E030
S11307E0215080409040E1F700C0000082B38F7B2D
S11307F082BB60E287E0A3DE06C082FF04C060E142
S113080087E09DDE1BDE88E0AADEC82F65DF60E797
S113081087E095DE8C2FDF91CF91089597FB072E0B
S113082016F4009406D077FD08D00BD007FC05D051
S11308303EF4909581959F4F0895709561957F4FF3
S11308400895AA1BBB1B51E107C0AA1FBB1FA61713
S1130850B70710F0A61BB70B881F991F5A95A9F765
S113086080959095BC01CD010895DC0101C06D9384
S10F087041505040E0F70895F894FFCF89
S10B087C14B5B5A1B7B5A10044
S9030000FC
