S01E00004741535F424F494C45525F5452414E534D49545445522E7372656353
S113000012C0E6C4B6C1E0C029C028C08DC126C054
S113001025C024C023C022C021C020C01FC01EC0D0
S11300201DC01CC01BC011241FBECFE5D4E0DEBF21
S1130030CDBF10E0A0E6B0E0E0E2FDE002C0059034
S11300400D92A836B107D9F720E0A8E6B0E001C0C8
S11300501D92A039B207E1F7F1D160C6D1CF9FB7A5
S1130060F89481B3806881BBE3E9F7E03197F1F755
S113007000C0000081B38F7781BBE3E0F1E03197EA
S1130080F1F700C00000879902C081E001C080E060
S11300909FBFEFE8F6E03197F1F700C00000089544
S11300A09FB7F89481B3806881BB2AE02A95F1F761
S11300B000C081B38F7781BB85E48A95F1F7000096
S11300C080B3881F8827881F20EF2A95F1F79FBFE8
S11300D00895CF93DF93C0E0D0E00AC0E1DF90E061
S11300E00C2E02C0880F991F0A94E2F7D82BCF5F19
S11300F0C830A0F38D2FDF91CF9108952FB7F894D6
S113010091B3906891BB9AE09A95F1F700C0882367
S113011019F081B38F7781BB83E091E00197F1F708
S113012000C0000081B38F7781BB2FBF0895CF93A8
S1130130DF93D82FC0E015C081E090E00C2E02C000
S1130140880F991F0A94E2F72D2F30E028233923D2
S11301508217930719F481E0D1DF02C080E0CEDF7B
S1130160CF5FC83048F3DF91CF910895CF9377DF05
S11301708130D1F48CECDBDF84E4D9DF2FEF8DE226
S113018099E0215080409040E1F700C0000067DF13
S11301908CECCDDF8EEBCBDF9CDFC82F9ADF90E0B9
S11301A0982F88278C2B02C080E090E0CF9108958F
S11301B085B5886085BD89B7806889BF88EC83BDB3
S11301C085B5826085BD08951F920F920FB60F9278
S11301D011242F933F934F935F936F937F938F9348
S11301E09F93AF93BF9380916A00813009F07FC0E1
S11301F09A993BC080916900811137C08091600059
S113020090E0AC01440F551F880F991F880F991F68
S1130210880F991F480F591F80918000480F511D66
S11302204B5F5F4F50938800409387009A01ADEC79
S1130230BCEC2BD59695879596958795969587953D
S1130240809360009C01220F331F880F991F880F31
S1130250991F880F991F820F931F481B590B4093B6
S1130260800081E0809369003CC09B993AC08091F2
S11302706800811136C08091600090E0AC01440FA9
S1130280551F880F991F880F991F880F991F480FB2
S1130290591F80918000480F511D455051095093BA
S11302A08800409387009A01ADECBCECEED496959F
S11302B087959695879596958795809360009C0180
S11302C0220F331F880F991F880F991F880F991FBA
S11302D0820F931F481B590B4093800081E0809349
S11302E068009A99109269009B9910926800BF91D6
S11302F0AF919F918F917F916F915F914F913F91BA
S11303002F910F900FBE0F901F9018958EB5886097
S11303108EBD89B7806189BF87E08BBD80ED8ABDC2
S11303208EB582608EBD08951F920F920FB60F9204
S113033011248F939F93AF93BF9380916F009091FB
S11303407000A0917100B09172000196A11DB11DC1
S113035080936F0090937000A0937100B09372002B
S1130360BF91AF919F918F910F900FBE0F901F90EF
S113037018951F920F920FB60F9211248F938091AC
S11303806A00813019F410926A0003C081E08093FE
S11303906A008F910F900FBE0F901F90189587B32E
S11303A08E6287BB88B3837D88BB88B3846088BB37
S11303B08DB180658DB9089581B38B7F81BB82B384
S11303C0846082BB81B3806481BB82B38F7B82BB38
S11303D081B3806281BB82B38F7D82BB81B3806134
S11303E081BB82B38F7E82BB84B3826084BB85B3BE
S11303F08D7F85BB87B3816087BB88B38E7F88BBC5
S113040084B3816084BB85B3816085BB81B3877FFE
S113041081BB82B3886082BB84B38B7F84BB85B38A
S1130420846085BB84B3877F84BB85B3886085BBC8
S113043008958FB9779BFECF8FB10895BDDF82B346
S1130440806482BB82B3806282BB82B3806182BBE0
S113045085B3826085BBA3DF63D32FEF81EE94E085
S1130460215080409040E1F700C000001DD12FEFE3
S113047083ED90E3215080409040E1F700C00000FC
S113048085B78A6085BF8BB7806C8BBF2FEF83EDF8
S113049090E3215080409040E1F700C0000082B317
S11304A08F7B82BB82B38F7D82BB82B38F7E82BB04
S11304B085B38D7F85BB81B5877F81BD88B1806819
S11304C088B924DF75DE789480916F009091700074
S11304D020916B0030916C00821B930B9C0122F4E1
S11304E022273327281B390B213737410CF448C006
S11304F03DDE292F259525952595C1F4282F2F70AC
S1130500322F330F220F220F220F230F22952F7029
S113051020937E00977095958795959587959595E9
S113052087959595879580937F001AC0282F2095ED
S11305302F70322F330F220F220F220F230F2295F9
S11305402F7020937E008095909597709595879550
S113055095958795959587959595879580937F0033
S113056080916F0090917000A0917100B091720021
S113057080936B0090936C00A0936D00B0936E0019
S113058060916F0070917000809171009091720081
S113059028EB3BE040E050E05CD3672B682B692BF1
S11305A089F5809173008093740020918300909169
S11305B06000291306C03091840020918000321716
S11305C019F08C5980937400C4E7D0E0998380912A
S11305D080008A8380917F008B8380917E008C834E
S11305E0CE01DBD280938C0009900020E9F721979B
S11305F0C457D040AE01440F551F60E070E084E75B
S113060090E085D360916F007091700080917100CB
S11306109091720020E931E040E050E01AD3672B5A
S1130620682B692B09F050CF8091600090E0BC01E9
S1130630660F771F880F991F880F991F880F991FBE
S1130640680F791F20917F0030E0C901880F991F3E
S1130650220F331F220F331F220F331F820F931FCA
S113066020918000620F711D20917E00820F911DE8
S113067065D02ACFCF93C62F95B39E7F95BB00003C
S113068090E0D7DE8C2F90E0D4DE85B3816085BB0B
S11306900000CF910895CF93C8E06FE08C2FEADF7C
S11306A0C150D9F7CF9108956FEF89E0E3DF8FE36D
S11306B09CE90197F1F700C0000067E08BE0DADF06
S11306C08FE39CE90197F1F700C0000061E08AE044
S11306D0D1DF8FE39CE90197F1F700C0000061E0EE
S11306E08CE0C8DF8FE39CE90197F1F700C00000BC
S11306F0D2DF60E089E0BEDF6FEF81E0BBDF6FEF48
S113070082E0B8DF6FEF83E0B5DF6FEF84E0B2DF44
S11307106FEF85E0AFDF6FEF86E0ACDF6FEF87E070
S1130720A9DF6FEF88E0A6DF9FEF23ED80E3915010
S113073020408040E1F700C000000895EF92FF924E
S11307400F931F93CF937C018B01A5DF6EEE89E09D
S113075091DF6EE481E08EDF6EE485E08BDFE114EF
S1130760F10411F560E082E085DF60E883E082DF78
S11307701FC0C33011F0C73049F4C7016AE070E00C
S113078055D2682F60688C2F75DF07C0C7016AE0F7
S113079070E04CD2682F8C2F6DDFCF5FC7016AE009
S11307A070E044D27B0101C0C2E0E114F10409F716
S11307B00115110511F560E086E05CDF60E887E073
S11307C059DF1FC0C33011F0C73049F4C8016AE0D3
S11307D070E02CD2682F60688C2F4CDF07C0C801F2
S11307E06AE070E023D2682F8C2F44DFCF5FC8010A
S11307F06AE070E01BD28B0101C0C6E0011511054F
S113080009F7CF911F910F91FF90EF900895EF9208
S1130810FF920F931F93CF93DF938B01C42F98B351
S11308209D7F98BB98B39B7F98BB90E002DE85E0E8
S11308308A95F1F700000AC07801EFEFEE1AFE0A7C
S1130840F801808190E0F5DDCD2F8701DFEFDC0F2B
S1130850C111F2CF88B3846088BB88B3826088BB3F
S1130860DF91CF911F910F91FF90EF90089588B37E
S11308708B7F88BB82EE90E0DCDD85E08A95F1F722
S1130880000088B3846088BB089588B38B7F88BBDD
S113089081EE90E0CEDD85E08A95F1F7000088B323
S11308A0846088BB089588B38B7F88BB80E590E023
S11308B0C0DD85E08A95F1F7000083E790E0B9DDBB
S11308C088B3846088BB0895EF92FF920F931F93BF
S11308D0CF93DF938B01C42F98B39B7F98BB90E099
S11308E0A8DD0BC078018FEFE81AF80A8FEF90E0CB
S11308F0A0DDF8018083CD2F8701DFEFDC0FC1116C
S1130900F1CF88B3846088BBDF91CF911F910F91A1
S1130910FF90EF900895EF92FF920F931F93CF9360
S1130920DF938B01C42F806298B39B7F98BB90E0C8
S113093080DD85E08A95F1F700000AC07801EFEFC9
S1130940EE1AFE0AF801808190E073DDCD2F870155
S1130950DFEFDC0FC111F2CF88B3846088BBDF9175
S1130960CF911F910F91FF90EF90089543E064E6BB
S113097070E080E1D0DF43E064E670E08BE0CBDF41
S113098088B38D7F88BB73DF80DF0895CF93C62F34
S1130990806298B39B7F98BB90E04BDD8C2F90E0F6
S11309A048DD88B3846088BBCF910895CF93C82F66
S11309B088B38B7F88BB8C2F90E03BDDC73019F068
S11309C08FEF90E036DD98B3946098BBCF91089593
S11309D01F920F920FB60F9211242F933F934F93B0
S11309E05F936F937F938F939F93AF93BF93EF9393
S11309F0FF9387E0DBDF86FF66C086958770809370
S1130A008F0045E062E870E081E65EDF60E487E045
S1130A10BDDF81E08093810082B3806282BB2FEFCF
S1130A2081EE94E0215080409040E1F700C0000046
S1130A3082B38F7D82BB80916F0090917000A091F2
S1130A407100B091720080936B0090936C00A0933E
S1130A506D00B0936E0080918200809373008436A1
S1130A6058F0E2E8F0E091819093600092819093D5
S1130A708000845680937300909173009A30D8F06C
S1130A808DEC989F812D1124869586958695880FE7
S1130A90282F220F220F820F981307C088B38E7F4E
S1130AA088BB82B38F7E82BB06C088B3816088BB5B
S1130AB082B3806182BBE2E8F0E0838180937F00AF
S1130AC0848180937E00FF91EF91BF91AF919F91BC
S1130AD08F917F916F915F914F913F912F910F90E3
S1130AE00FBE0F901F90189580E060DF682F636041
S1130AF080E04CDF43E061E670E080E10CDF43E03E
S1130B0061E670E08BE007DF88B3826088BB87E52D
S1130B1092E00197F1F700C00000A9DEB6DE089567
S1130B2088B38D7F88BB8FE19EE40197F1F700C005
S1130B3000006AE080E02ADF8FE19EE40197F1F78C
S1130B4000C0000063E081E021DF63E082E01EDF9B
S1130B5061E083E01BDF6FE684E018DFA4DE60E081
S1130B608DE114DF60E08CE111DF60E787E00EDFE8
S1130B706CE485E00BDF66E086E008DF43E061E6D5
S1130B8070E080E1C8DE43E061E670E08BE0C3DE44
S1130B9065E082E1FBDEA8DF0895CF93DF93EC01EB
S1130BA0E5DE80E003DF8E7F682F626080E0EEDEAA
S1130BB087E592E00197F1F700C0000045E0BE012F
S1130BC080EA25DE88B3826088BB90E59A95F1F7C8
S1130BD088B38D7F88BB8299FECF87E0E7DE982FAC
S1130BE0957099F082B3806482BB2FEF81EE94E01C
S1130BF0215080409040E1F700C0000082B38F7B19
S1130C0082BB60E287E0C2DE06C082FF04C060E10E
S1130C1087E0BCDE3ADE88E0C9DEC82F65DF60E726
S1130C2087E0B4DE8C2FDF91CF91089597FB072ED8
S1130C3016F4009406D077FD08D033D007FC05D015
S1130C403EF4909581959F4F0895709561957F4FDF
S1130C500895052E97FB16F400940FD057FD05D088
S1130C6034D007FC02D046F408C050954095309526
S1130C7021953F4F4F4F5F4F089590958095709504
S1130C8061957F4F8F4F9F4F0895A29FB001B39FEF
S1130C90C001A39F01D0B29F700D811D1124911D2D
S1130CA00895AA1BBB1B51E107C0AA1FBB1FA617AF
S1130CB0B70710F0A61BB70B881F991F5A95A9F701
S1130CC080959095BC01CD010895A1E21A2EAA1B2E
S1130CD0BB1BFD010DC0AA1FBB1FEE1FFF1FA217E8
S1130CE0B307E407F50720F0A21BB30BE40BF50BE5
S1130CF0661F771F881F991F1A9469F7609570956E
S1130D00809590959B01AC01BD01CF010895DC0154
S1130D1001C06D9341505040E0F70895F894FFCF1F
S10B0D2014B5B5A1B7B5A1009B
S9030000FC
