S01E00004741535F424F494C45525F5452414E534D49545445522E7372656353
S113000012C01EC7BFC279C129C028C03EC226C0C3
S113001025C024C023C01CC321C020C01FC01EC0D3
S11300201DC01CC01BC011241FBECFE5D4E0DEBF21
S1130030CDBF10E0A0E6B0E0E4E3FBE102C0059030
S11300400D92AC38B107D9F721E0ACE8B0E001C0BB
S11300501D92A23DB207E1F76BD36ACDD1CF809157
S1130060E900811146C08091CF0190E09C01220FEC
S1130070331F880F991F880F991F880F991F280F06
S1130080391F8091D001280F311D8091D10190E05A
S1130090AC01440F551F880F991F880F991F880FB3
S11300A0991F840F951F4091CD01840F911D28172E
S11300B039077CF481E08093EC0088B38E7F88BBA1
S11300C082B3806182BB6091EC0085E090E0F4D063
S11300D00895281739076CF01092EC0088B38160FA
S11300E088BB82B38F7E82BB6091EC0085E090E098
S11300F0E3D008959FB7F89481B3806881BBE3E9A6
S1130100F7E03197F1F700C0000081B38F7781BB2E
S1130110E3E0F1E03197F1F700C00000879902C0F5
S113012081E001C080E09FBFEFE8F6E03197F1F78E
S113013000C0000008959FB7F89481B3806881BB24
S11301402AE02A95F1F700C081B38F7781BB85E45B
S11301508A95F1F7000080B3881F8827881F20EF55
S11301602A95F1F79FBF0895CF93DF93C0E0D0E0C5
S11301700AC0E1DF90E00C2E02C0880F991F0A9498
S1130180E2F7D82BCF5FC830A0F38D2FDF91CF914A
S113019008952FB7F89491B3906891BB9AE09A951B
S11301A0F1F700C0882319F081B38F7781BB83E016
S11301B091E00197F1F700C0000081B38F7781BB14
S11301C02FBF0895CF93DF93D82FC0E015C081E0EF
S11301D090E00C2E02C0880F991F0A94E2F72D2F8D
S11301E030E0282339238217930719F481E0D1DF03
S11301F002C080E0CEDFCF5FC83048F3DF91CF91FB
S11302000895CF9377DF8130D1F48CECDBDF84E485
S1130210D9DF2FEF8DE299E0215080409040E1F743
S113022000C0000067DF8CECCDDF8EEBCBDF9CDF02
S1130230C82F9ADF90E0982F88278C2B02C080E08B
S113024090E0CF910895DDDF292F259525952595FB
S1130250C1F4282F2F70322F330F220F220F220FB9
S1130260230F22952F702093EA0097709595879518
S11302709595879595958795959587958093EB00AA
S11302800895282F20952F70322F330F220F220F1D
S1130290220F230F22952F702093EA0080959095CA
S11302A09770959587959595879595958795959547
S11302B087958093EB000895E199FECF9FBB8EBB99
S11302C06DBB8CB384608CBB8CB382608CBB089593
S11302D0E199FECF9FBB8EBB8CB381608CBB8DB389
S11302E0089585B5886085BD89B7806889BF88EC25
S11302F083BD85B5826085BD08951F920F920FB6A8
S11303000F9211242F933F934F935F936F937F9397
S11303108F939F93AF93BF93EF93FF938091E000EC
S1130320813009F093C09A9945C08091DF00811112
S113033041C08091D10190E0AC01440F551F880F5A
S1130340991F880F991F880F991F480F591F809173
S1130350CD01480F511D4B5F5F4F5093FE004093FA
S1130360FD009A01ADECBCEC9FD8969587959695C7
S11303708795969587958093D101BC01660F771F69
S11303809C01220F331F220F331F220F331F260F0E
S1130390371F421B530B4093CD0191E09093DF0034
S11303A0682F81E090E088DF6091CD0182E090E0E9
S11303B083DF46C09B9944C08091DE00811140C018
S11303C08091D10190E0AC01440F551F880F991F13
S11303D0880F991F880F991F480F591F8091CD01CD
S11303E0480F511D455051095093FE004093FD00A4
S11303F09A01ADECBCEC58D896958795969587955F
S1130400969587958093D101BC01660F771F9C0157
S1130410220F331F220F331F220F331F260F371FC4
S1130420421B530B4093CD0191E09093DE00682F63
S113043081E090E041DF6091CD0182E090E03CDF1B
S11304409A991092DF009B991092DE00FF91EF9130
S1130450BF91AF919F918F917F916F915F914F91D8
S11304603F912F910F900FBE0F901F9018958EB54E
S113047088608EBD89B7806189BF87E08BBD80EDC0
S11304808ABD8EB582608EBD08951F920F920FB6FD
S11304900F9211242F933F934F935F936F937F9306
S11304A08F939F93AF93BF93CF93DF93EF93FF9378
S11304B08091E5009091E600A091E700B091E800FA
S11304C0BC01CD016F5F7F4F8F4F9F4F6093E5005D
S11304D07093E6008093E7009093E80020E137E210
S11304E040E050E0C5D7672B682B692BC1F5B7DD19
S11304F08091E9001F928F938091CD011F928F9379
S11305008091D1011F928F938091D0011F928F937C
S11305108091CF011F928F938091EC001F928F9353
S113052086E690E09F938F93CEE8D0E0DF93CF935D
S113053027D8CE0172D709900020E9F72197AE01A0
S11305404E58504060E070E08EE890E0F8D78DB7E8
S11305509EB740960FB6F8949EBF0FBE8DBFFF9115
S1130560EF91DF91CF91BF91AF919F918F917F9147
S11305706F915F914F913F912F910F900FBE0F900C
S11305801F9018951F920F920FB60F9211248F93FC
S11305908091E000813019F41092E00003C081E002
S11305A08093E0008F910F900FBE0F901F901895CD
S11305B087B38E6287BB88B3837D88BB88B384602E
S11305C088BB8DB180658DB9089581B38B7F81BB64
S11305D082B3846082BB81B3806481BB82B38F7B2E
S11305E082BB81B3806281BB82B38F7D82BB81B3C6
S11305F0806181BB82B38F7E82BB84B3826084BB03
S113060085B38D7F85BB87B3816087BB88B38E7FBD
S113061088BB84B3816084BB85B3816085BB81B3AF
S1130620877F81BB82B3886082BB84B38B7F84BBAA
S113063085B3846085BB84B3877F84BB85B38860BE
S113064085BB81B38F7781BB82B38F7782BB0895DB
S11306501F920F920FB60F9211242F933F934F9333
S11306605F936F937F938F939F93AF93BF93CF9336
S1130670DF93EF93FF9380918C0090918D002CB1C8
S1130680FC01E959FE4F20832F32A9F5C7E6D1E0DA
S1130690FE0101900020E9F73197AF014756514020
S11306A041505109BE0182E091E040D7FE01019022
S11306B00020E9F73197AF014756514060E070E000
S11306C0CE013DD710928D0010928C0069E770E046
S11306D082E091E03BD7892B19F085B3826085BB1A
S11306E061E870E082E091E031D7892B49F085B36D
S11306F08D7F85BB05C0019690938D0080938C00FF
S1130700FF91EF91DF91CF91BF91AF919F918F9125
S11307107F916F915F914F913F912F910F900FBEF9
S11307200F901F9018958FB9779BFECF8FB10895C6
S11307302FEF83ED90E3215080409040E1F700C01B
S1130740000043DF82B3806482BB82B3806282BBD9
S113075082B3806182BB85B3826085BB29DF80E17F
S113076090E04CD6C5D52FEF81EE94E02150804027
S11307709040E1F700C00000ADD12FEF83ED90E38E
S1130780215080409040E1F700C0000085B78A60A6
S113079085BF8BB7806C8BBF2FEF87EA91E6215022
S11307A080409040E1F700C0000082B38F7B82BBA1
S11307B082B38F7D82BB82B38F7E82BB85B38D7FF4
S11307C085BB55DE8EDD4BDC81B5877F81BD9FE027
S11307D088E10FB6F894A89581BD0FBE91BD88B18C
S11307E0806888B978942FEF8DE399E42150804094
S11307F09040E1F700C00000A8952FEF8DE399E445
S1130800215080409040E1F700C00000A89581E0AD
S113081090E05EDD853620F064E181E090E04CDD1F
S113082082E090E055DD853620F060E082E090E0E3
S113083043DD83E090E04CDD853620F064E183E025
S113084090E03ADD84E090E043DD853620F060E01E
S113085084E090E031DD85E090E03ADD853620F0FB
S113086060E085E090E028DD86E090E031DD8536CB
S113087020F060E086E090E01FDD81E090E028DD7C
S11308808093D10182E090E023DD8093CD0183E069
S113089090E01EDD8093CF0184E090E019DD809329
S11308A0D00185E090E014DD8093EC0086E090E0D8
S11308B00FDD8093E9001F928F938091CD011F92E9
S11308C08F938091D1011F928F938091D0011F92B9
S11308D08F938091CF011F928F938091EC001F9290
S11308E08F9386E690E09F938F93CEE8D0E0DF93DA
S11308F0CF9346D6CE0191D509900020E9F72197F0
S1130900AE014E58504060E070E08EE890E017D69B
S11309108DB79EB740960FB6F8949EBF0FBE8DBF9D
S11309204091E5005091E6006091E7007091E80085
S11309308091E1009091E2009A01281B390BC901D2
S1130940992324F488279927821B930B89399A4386
S113095004F11092E9008091EB008093CF01909113
S1130960EA009093D0014093E1005093E200609339
S1130970E3007093E400682F83E090E09DDC6091D5
S1130980D00184E090E098DC6091E90086E090E09A
S113099093DC6091E5007091E6008091E70090910E
S11309A0E80028EB3BE040E050E062D5672B682B81
S11309B0692B91F58091EC008093ED002091F90072
S11309C09091D101291306C03091FA002091CD01F4
S11309D0321719F08C598093ED00CDEED0E0998355
S11309E08091CD018A838091CF018B838091D00146
S11309F08C83CE01BAD48093660109900020E9F774
S1130A002197CD5ED040AE01440F551F60E070E0E9
S1130A108DEE90E094D517DC6091E5007091E600CE
S1130A208091E7009091E80024EF31E040E050E04D
S1130A301FD5672B682B692B29F58091D10190E094
S1130A40BC01660F771F880F991F880F991F880FA5
S1130A50991F680F791F2091CF0130E0C901880FD9
S1130A60991F220F331F220F331F220F331F820FB0
S1130A70931F2091CD01620F711D2091D001820F2F
S1130A80911D81D0A8954CCFCF93C62F95B39E7F4F
S1130A9095BB000090E047DE8C2F90E044DE85B3E8
S1130AA0816085BB0000CF910895CF9360E08FE013
S1130AB0EBDF61E08CE0E8DF67E08BE0E5DF6FEF20
S1130AC089E0E2DFC8E06FE08C2FDEDFC150D9F7A8
S1130AD0CF91089560E08FE0D7DF8FE39CE9019721
S1130AE0F1F700C0000061E08CE0CEDF8FE39CE909
S1130AF00197F1F700C0000067E08BE0C5DF8FE3EA
S1130B009CE90197F1F700C000006FEF89E0BCDFBA
S1130B108FE39CE90197F1F700C0000062E08AE0EE
S1130B20B3DF8FE39CE90197F1F700C00000BDDF5C
S1130B3060E089E0A9DF8FE39CE90197F1F700C049
S1130B4000006FEF81E0A0DF6FEF82E09DDF6FEFC9
S1130B5083E09ADF6FEF84E097DF6FEF85E094DF47
S1130B606FEF86E091DF6FEF87E08EDF6FEF88E055
S1130B708BDF9FEF23ED80E3915020408040E1F72D
S1130B8000C000000895FF920F931F93CF93DF934B
S1130B908C01EB01083E83E018070CF067C0683E47
S1130BA073400CF065C081DF6EEE89E06DDF6EE4AA
S1130BB081E06ADF6EE485E067DF0115110529F540
S1130BC060E082E061DF60E883E05EDF24C083E010
S1130BD0F81619F087E0F81209C0C8016AE070E05D
S1130BE034D4682F60688F2D4FDF07C0C8016AE0D6
S1130BF070E02BD4682F8F2D47DFF394C8016AE08F
S1130C0070E023D48B01000003C06894FF24F1F842
S1130C1001151105E1F6209721F560E086E034DF47
S1130C2060E887E031DF80E024C0133011F0173032
S1130C3049F4CE016AE070E008D4682F6068812F1F
S1130C4023DF07C0CE016AE070E0FFD3682F812F55
S1130C501BDF1F5FCE016AE070E0F7D3EB010000F9
S1130C6001C016E0209709F780E003C081E001C0CD
S1130C7081E0DF91CF911F910F91FF900895EF9242
S1130C80FF920F931F93CF93DF938B01C42F98B3DD
S1130C909D7F98BB98B39B7F98BB90E044DD85E033
S1130CA08A95F1F700000AC07801EFEFEE1AFE0A08
S1130CB0F801808190E037DDCD2F8701DFEFDC0F75
S1130CC0C111F2CF88B3846088BB88B3826088BBCB
S1130CD0DF91CF911F910F91FF90EF90089588B30A
S1130CE08B7F88BB82EE90E01EDD85E08A95F1F76C
S1130CF0000088B3846088BB089588B38B7F88BB69
S1130D0081EE90E010DD85E08A95F1F7000088B36C
S1130D10846088BB089588B38B7F88BB80E590E0AE
S1130D2002DD85E08A95F1F7000083E790E0FBDCC3
S1130D3088B3846088BB0895EF92FF920F931F934A
S1130D40CF93DF938B01C42F98B39B7F98BB90E024
S1130D50EADC0BC078018FEFE81AF80A8FEF90E015
S1130D60E2DCF8018083CD2F8701DFEFDC0FC111B6
S1130D70F1CF88B3846088BBDF91CF911F910F912D
S1130D80FF90EF900895EF92FF920F931F93CF93EC
S1130D90DF938B01C42F806298B39B7F98BB90E054
S1130DA0C2DC85E08A95F1F700000AC07801EFEF14
S1130DB0EE1AFE0AF801808190E0B5DCCD2F8701A0
S1130DC0DFEFDC0FC111F2CF88B3846088BBDF9101
S1130DD0CF911F910F91FF90EF90089543E063E648
S1130DE070E080E1D0DF43E063E670E08BE0CBDFCE
S1130DF088B38D7F88BB73DF80DF0895CF93C62FC0
S1130E00806298B39B7F98BB90E08DDC8C2F90E040
S1130E108ADC88B3846088BBCF910895CF93C82FB0
S1130E2088B38B7F88BB8C2F90E07DDCC73019F0B2
S1130E308FEF90E078DC98B3946098BBCF910895DD
S1130E401F920F920FB60F9211242F933F934F933B
S1130E505F936F937F938F939F93AF93BF93CF933E
S1130E60EF93FF9387E0DADFC82F86FF0EC28695E3
S1130E7087708093CE0145E068EF70E081E65CDF27
S1130E8060E487E0BBDF81E08093F70082B3806297
S1130E9082BB2FEF81EE94E0215080409040E1F737
S1130EA000C0000082B38F7D82BB8091E5009091E9
S1130EB0E600A091E700B091E8008093E1009093F0
S1130EC0E200A093E300B093E4008091F8008093E3
S1130ED0EC008B3009F49FC038F48130E1F198F0D4
S1130EE08A3009F460C0D1C1853609F409C120F4FF
S1130EF0843609F4C8C0C9C18E3609F43FC18F369F
S1130F0009F482C1C2C16091FB00633308F0BDC122
S1130F108091FC008A3008F0B8C19091F9009333B5
S1130F2008F0B3C19091FA009A3008F0AEC1109263
S1130F30E9006093CF018093D00183E090E0BCD9B5
S1130F406091D00184E090E0B7D96091E90086E037
S1130F5090E0B2D99AC16091FB00633308F095C167
S1130F608091FC008A3008F090C19091F90093338D
S1130F7008F08BC19091FA009A3008F086C1109263
S1130F80E9006093CF018093D00183E090E094D98D
S1130F906091D00184E090E08FD96091E90086E00F
S1130FA090E08AD972C18091FB00833308F06DC14F
S1130FB09091FC009A3008F068C12091F900233325
S1130FC008F063C12091FA002A3008F05EC1109243
S1130FD0EC0021E02093E9008093CF019093D001AD
S1130FE088B3816088BB82B38F7E82BB6091CF015E
S1130FF083E090E061D96091D00184E090E05CD915
S11310006091EC0085E090E057D96091E90086E0BA
S113101090E052D93AC18091FB00833308F035C186
S11310209091FC009A3008F030C12091F9002333EC
S113103008F02BC12091FA002A3008F026C121E0E3
S11310402093EC002093E9008093CF019093D0018A
S113105088B38E7F88BB82B3806182BB6091CF01ED
S113106083E090E029D96091D00184E090E024D914
S11310706091EC0085E090E01FD96091E90086E082
S113108090E01AD902C18091FB00833308F0FDC0BF
S11310909091FC009A3008F0F8C06091F900633335
S11310A008F0F3C02091FA002A3008F0EEC0109244
S11310B0EC001092E9008093CF019093D0016093EB
S11310C0D1012093CD0181E090E0F6D86091CD016B
S11310D082E090E0F1D86091CF0183E090E0ECD819
S11310E06091D00184E090E0E7D86091EC0085E065
S11310F090E0E2D86091E90086E090E0DDD8C5C0D8
S11311008091FB00833308F0C0C09091FC009A30BA
S113111008F0BBC06091F900633308F0B6C02091B9
S1131120FA002A3008F0B1C031E03093EC0010929C
S1131130E9008093CF019093D0016093D101209373
S1131140CD0181E090E0B8D86091CD0182E090E0DB
S1131150B3D86091CF0183E090E0AED86091D00124
S113116084E090E0A9D86091EC0085E090E0A4D8F8
S11311706091E90086E090E09FD887C08091FB00F1
S1131180833308F082C09091FC009A3008F07DC04F
S11311902091F900233308F078C03091FA003A30F6
S11311A008F073C01092EC0041E04093E900809392
S11311B0CF019093D0012093D1013093CD0188B316
S11311C0816088BB82B38F7E82BB6091D10181E054
S11311D090E072D86091CD0182E090E06DD860918A
S11311E0CF0183E090E068D86091D00184E090E082
S11311F063D86091EC0085E090E05ED86091E900EE
S113120086E090E059D841C08091FB008333E8F533
S11312109091FC009A30C8F52091F9002333A8F589
S11312203091FA003A3088F541E04093EC00409365
S1131230E9008093CF019093D0012093D1013093A2
S1131240CD0188B38E7F88BB82B3806182BB6091FD
S1131250D10181E090E030D86091CD0182E090E04E
S11312602BD86091CF0183E090E026D86091D00123
S113127084E090E021D86091EC0085E090E01CD8F7
S11312806091E90086E090E017D8C57019F060E23B
S113129087E0B4DDFF91EF91CF91BF91AF919F9122
S11312A08F917F916F915F914F913F912F910F900B
S11312B00FBE0F901F90189580E0B0DD682F63601B
S11312C080E09CDD43E060E670E080E15CDD43E0CB
S11312D060E670E08BE057DD88B3826088BB87E509
S11312E092E00197F1F700C00000F9DC06DD0895F3
S11312F088B38D7F88BB8FE19EE40197F1F700C02E
S113130000006AE080E07ADD8FE19EE40197F1F766
S113131000C0000063E081E071DD63E082E06EDD27
S113132061E083E06BDD6FE684E068DDF4DC60E0BF
S11313308DE164DD60E08CE161DD60E787E05EDD26
S11313406CE485E05BDD66E086E058DD43E060E662
S113135070E080E118DD43E060E670E08BE013DDCF
S113136065E082E14BDDA8DF0895CF93DF93EC01C4
S113137035DD80E053DD8E7F682F626080E03EDDE6
S113138087E592E00197F1F700C0000045E0BE0157
S113139080EA75DC88B3826088BB90E59A95F1F7A2
S11313A088B38D7F88BB8299FECF87E037DD982F85
S11313B0957099F082B3806482BB2FEF81EE94E044
S11313C0215080409040E1F700C0000082B38F7B41
S11313D082BB60E287E012DD06C082FF04C060E1E8
S11313E087E00CDD8ADC88E019DDC82F65DF60E763
S11313F087E004DD8C2FDF91CF91089590BD89B9EA
S11314008AB188618AB98AB180688AB98BB18260ED
S11314108BB980B58E6880BD0895DC0180E008C07A
S11314205D9BFECFFD01E20FF31F90819CB98F5F9E
S1131430282F30E0FD0101900020E9F73197EA1BE5
S1131440FB0B2E173F0760F3089597FB072E16F446
S1131450009406D077FD08D033D007FC05D03EF4C5
S1131460909581959F4F0895709561957F4F08954C
S1131470052E97FB16F400940FD057FD05D034D0F9
S113148007FC02D046F408C050954095309521954C
S11314903F4F4F4F5F4F089590958095709561959C
S11314A07F4F8F4F9F4F0895A29FB001B39FC001FC
S11314B0A39F01D0B29F700D811D1124911D089529
S11314C0AA1BBB1B51E107C0AA1FBB1FA617B70766
S11314D010F0A61BB70B881F991F5A95A9F7809582
S11314E09095BC01CD010895A1E21A2EAA1BBB1B45
S11314F0FD010DC0AA1FBB1FEE1FFF1FA217B307DC
S1131500E407F50720F0A21BB30BE40BF50B661FF1
S1131510771F881F991F1A9469F7609570958095B5
S113152090959B01AC01BD01CF010895FB01DC0145
S113153002C001900D9241505040D8F70895DC014B
S113154001C06D9341505040E0F70895FB01519163
S11315505523A9F0BF01DC014D9145174111E1F775
S113156059F4CD010190002049F04D9140154111ED
S1131570C9F3FB014111EFCF81E090E00197089599
S1131580AEE0B0E0E5ECFAE0AAC20D891E8986E07F
S11315908C831A8309838FEF9FE79E838D83AE012B
S11315A0475E5F4F6F89788DCE01019608D0EF8139
S11315B0F885E00FF11F10822E96E4E0ACC2ABE098
S11315C0B0E0E4EEFAE07DC26C017B018A01FC012B
S11315D017821682838181FFBFC1CE0101963C012F
S11315E0F6019381F70193FD859193FF81917F012A
S11315F0882309F4ADC1853239F493FD859193FFB5
S113160081917F01853221F4B60190E0C0D1E8CF09
S1131610912C212C312CFFE1F315D8F08B3279F089
S113162038F4803279F08332A1F4232D20611DC077
S11316308D3261F0803369F4232D216016C0832D2F
S11316408260382EE32DE4603E2E2AC0F32DF8602C
S11316501DC037FC2DC020ED280F2A3040F08E32FB
S1131660B9F436FC75C1232D2064322E19C036FE20
S113167006C08AE0989E200D1124922E11C0EAE043
S11316802E9E200D1124222EF32DF0623F2E08C031
S11316908C3621F4832D8068382E02C0883641F4BC
S11316A0F70193FD859193FF81917F018111B3CF60
S11316B0982F9F7D9554933028F40C5F1F4F9FE320
S11316C099830DC0833631F0833771F0833509F087
S11316D055C020C0F801808189830E5F1F4F882484
S11316E08394912C530112C02801F2E04F0E511C37
S11316F0F801A080B18036FE03C0692D70E002C0FD
S11317006FEF7FEFC50138D14C018201F32DFF77D4
S11317103F2E15C0280122E0420E511CF801A08082
S1131720B18036FE03C0692D70E002C06FEF7FEF19
S1131730C50117D14C01F32DF0683F2E820133FC13
S113174019C0822D90E088169906A0F4B60180E2B3
S113175090E01DD12A94F5CFF50137FC859137FE31
S113176081915F01B60190E012D121102A9421E009
S1131770821A91088114910479F7E1C0843611F03A
S1131780893639F5F80137FE07C06081718182819D
S113179093810C5F1F4F08C060817181072E000C7C
S11317A0880B990B0E5F1F4FF32DFF763F2E97FF8B
S11317B009C090958095709561957F4F8F4F9F4F8D
S11317C0F0683F2E2AE030E0A3011DD1882E861850
S11317D044C0853731F4232D2F7EB22E2AE030E029
S11317E025C0932D997FB92E8F36C1F018F4883512
S11317F079F0AEC0803719F0883721F0A9C0E92FFD
S1131800E061BE2EB4FE0DC0FB2DF460BF2E09C0F6
S113181034FE0AC0292F2660B22E06C028E030E02C
S113182005C020E130E002C020E132E0F801B7FE5B
S113183007C060817181828193810C5F1F4F06C054
S11318406081718180E090E00E5F1F4FA301DBD0C7
S1131850882E8618FB2DFF773F2E36FE0DC0232DD4
S11318602E7FA22E891458F434FE0BC032FC09C01A
S1131870832D8E7EA82E05C0B82CA32C03C0B82CB3
S113188001C0B92CA4FE0FC0FE01E80DF11D80813A
S1131890803321F49A2D997EA92E09C0A2FE06C098
S11318A0B394B39404C08A2D867809F0B394A3FC4E
S11318B010C0A0FE06C0B21480F4280C922C9B1811
S11318C00DC0B21458F4B60180E290E060D0B39435
S11318D0F8CFB21418F42B1802C0982C212CA4FEB3
S11318E00FC0B60180E390E052D0A2FE16C0A1FC66
S11318F003C088E790E002C088E590E0B6010CC020
S11319008A2D867851F0A1FE02C08BE201C080E2EC
S1131910A7FC8DE2B60190E03AD0891430F4B60108
S113192080E390E034D09A94F8CF8A94F301E80DE0
S1131930F11D8081B60190E02AD08110F6CF2220DB
S113194009F44ECEB60180E290E021D02A94F7CF7C
S1131950F6018681978102C08FEF9FEF2B96E2E11B
S1131960CCC0FC010590615070400110D8F78095FF
S113197090958E0F9F1F0895FC0161507040019057
S11319800110D8F7809590958E0F9F1F08950F939F
S11319901F93CF93DF93FB01238121FD03C08FEFBE
S11319A09FEF2CC022FF16C04681578124813581C8
S11319B04217530744F4A081B1819D012F5F3F4F2B
S11319C0318320838C93268137812F5F3F4F378368
S11319D0268314C08B01EC01FB010084F185E02D0A
S11319E00995892BE1F6D80116968D919C9117974C
S11319F0019617969C938E931697CE01DF91CF9103
S1131A001F910F910895FA01AA27283051F120312E
S1131A1081F1E8946F936E7F6E5F7F4F8F4F9F4F7E
S1131A20AF4FB1E03ED0B4E03CD0670F781F891FC0
S1131A309A1FA11D680F791F8A1F911DA11D6A0F8E
S1131A40711D811D911DA11D20D009F468943F9141
S1131A502AE0269F11243019305D3193DEF6CF0140
S1131A600895462F4770405D4193B3E00FD0C9F706
S1131A70F6CF462F4F70405D4A3318F0495D31FD73
S1131A804052419302D0A9F7EACFB4E0A6959795C6
S1131A90879577956795BA95C9F70097610571059C
S1131AA008959B01AC010A2E0694579547953795E6
S1131AB02795BA95C9F7620F731F841F951FA01D40
S1131AC008952F923F924F925F926F927F928F92DE
S1131AD09F92AF92BF92CF92DF92EF92FF920F93B9
S1131AE01F93CF93DF93CDB7DEB7CA1BDB0B0FB6C3
S1131AF0F894DEBF0FBECDBF09942A883988488880
S1131B005F846E847D848C849B84AA84B984C88415
S1131B10DF80EE80FD800C811B81AA81B981CE0F0C
S1131B20D11D0FB6F894DEBF0FBECDBFED010895F1
S1071B30F894FFCF53
S1131B34B5B5A1B7B5A125642025642E2564202557
S1131B44642E25642025642000576946692D4F4B73
S10F1B5400576946692D4552524F52005B
S9030000FC
