:1000000012C0F9C7FEC147C129C028C0D5C126C04A
:1000100025C024C023C026C221C020C01FC01EC0CE
:100020001DC01CC01BC011241FBECFE5D4E0DEBF25
:10003000CDBF10E0A0E6B0E0E2E3F8E102C0059039
:100040000D92AC38B107D9F721E0ACE8B0E001C0BF
:100050001D92A435B207E1F732D2E9CBD1CF80911E
:10006000C30081112CC0809151012091520130E0D8
:100070005AE0859F200D311D11244091530180913C
:100080004F0190E05AE0459F800D911D1124A90178
:100090004C5E5F4F8417950730F081E08093C60077
:1000A000C098949A07C08217930748F41092C6002C
:1000B000C09A94986091C60085E090E0D1C0089500
:1000C0009FB7F8948F9AE3E9F7E03197F1F700C012
:1000D00000008F98E3E0F1E03197F1F700C00000F5
:1000E00080B39FBFEFE8F6E03197F1F700C0000062
:1000F0008095881F8827881F08959FB7F8948F9A46
:100100002AE02A95F1F700C08F9885E48A95F1F7E7
:10011000000080B320EF2A95F1F79FBF881F882742
:10012000881F08951F93CF93DF93C0E0D0E010E0C5
:10013000E4DF0C2E01C0880F0A94EAF7182B2196F1
:10014000C830D105A9F7812FDF91CF911F91089574
:100150009FB7F8948F9A2AE02A95F1F700C0811191
:100160008F98E3E0F1E03197F1F700C000008F983D
:100170009FBF0895EF92FF920F931F93CF93DF934A
:10018000C0E0D0E0EE24E394F12C082F10E0C7018A
:100190000C2E02C0880F991F0A94E2F798012823B9
:1001A00039238217930711F481E001C080E0D0DF8A
:1001B0002196C830D10559F7DF91CF911F910F914A
:1001C000FF90EF900895CF937BDF8130D9F48CECD2
:1001D000D1DF84E4CFDF2FEF4DE259E021504040E2
:1001E0005040E1F700C000006BDF8CECC3DF8EEB0A
:1001F000C1DF98DFC82F96DF2C2F30E0A901582BE4
:10020000CA0102C080E090E0CF910895DCDF292F81
:10021000259525952595382F61F43F70232F220FC2
:1002200048E0349F200D112422952F702093C400A4
:100230000EC030953F70232F220F48E0349F200DD1
:10024000112422952F702093C4008095909597706B
:1002500024E0959587952A95E1F78093C500089548
:10026000E199FECF9FBB8EBB6DBBE29AE19A0895E8
:10027000E199FECF9FBB8EBBE09A8DB3089585B503
:10028000886085BD89B7806889BF88EC83BD85B5E6
:10029000826085BD08951F920F920FB60F921124B0
:1002A0002F933F934F935F936F937F938F939F937E
:1002B000AF93BF93CF93EF93FF93C091AE00C13044
:1002C00009F05AC09A9928C08091AD00811124C0CC
:1002D0008091D9009091DA0005969093DA0080938E
:1002E000D900209151016AE070E078D73AE0369F5A
:1002F000A001379F500D1124BA01680F791F90910A
:100300005201892F90E03AE0239F800D911D112426
:1003100053D5C093AD002AC09B9928C08091AC00F2
:10032000811124C08091D9009091DA0005979093B3
:10033000DA008093D900209151016AE070E04ED735
:100340003AE0369FA001379F500D1124BA01680F83
:10035000791F90915201892F90E03AE0239F800D00
:10036000911D112429D581E08093AC009A991092B7
:10037000AD009B991092AC00FF91EF91CF91BF918E
:10038000AF919F918F917F916F915F914F913F912D
:100390002F910F900FBE0F901F9018958EB588600B
:1003A0008EBD89B7806189BF87E08BBD80ED8ABD36
:1003B0008EB582608EBD08951F920F920FB60F9278
:1003C00011248F939F93AF93BF938091BF0090911F
:1003D000C000A091C100B091C2000196A11DB11D45
:1003E0008093BF009093C000A093C100B093C2005F
:1003F000BF91AF919F918F910F900FBE0F901F9063
:1004000018951F920F920FB60F9211248F9381E0CF
:100410008093C7008F910F900FBE0F901F9018957B
:1004200087B38E6287BB88B3837D88BBC29A8DB148
:1004300080658DB908958A98929A8E9A96988D9A29
:1004400095988C9A9498A19AA998B89AC098A09ACD
:10045000A89A8B98939AA298AA9AA398AB9A8F98E5
:10046000979808951F920F920FB60F9211242F9311
:100470008F939F93EF93FF9380918C0090918D00C9
:100480002CB1FC01E55EFE4F20832F3221F481E088
:100490008093C80005C0019690938D0080938C00D6
:1004A000FF91EF919F918F912F910F900FBE0F9021
:1004B0001F9018958FB9779BFECF8FB108952FEFBE
:1004C00033ED40E3215030404040E1F700C00000F0
:1004D000B2DF969A959A949AA99AA2DF80E190E069
:1004E0005BD6DFD58FEF91EEA4E081509040A04025
:1004F000E1F700C0000007D4BFEF23ED30E3B150B7
:1005000020403040E1F700C0000085B78A6085BF19
:100510008BB7806C8BBF4FEF87EA91E641508040EC
:100520009040E1F700C00000969895989498A9989B
:1005300035DFA5DE94DD81B5877F81BD9FE088E151
:100540000FB6F894A89581BD0FBE91BD479AAFEF45
:10055000BDE329E4A150B0402040E1F700C0000015
:10056000A8953FEF4DE389E4315040408040E1F7EA
:1005700000C00000A89581E090E07ADE853620F08A
:1005800064E181E090E06CDE82E090E071DE85362F
:1005900020F060E082E090E063DE83E090E068DEDF
:1005A000853620F064E183E090E05ADE84E090E05C
:1005B0005FDE853620F060E084E090E051DE85E08B
:1005C00090E056DE853620F060E085E090E048DE81
:1005D00086E090E04DDE853620F060E086E090E039
:1005E0003FDE81E090E044DE8093530182E090E0C2
:1005F0003FDE80934F0183E090E03ADE809351012B
:1006000084E090E035DE8093520185E090E030DEBA
:100610008093C60086E090E02BDE8093C3001FDD50
:100620008091C3001F928F9380914F011F928F93EF
:10063000809153011F928F93809152011F928F934B
:10064000809151011F928F938091C6001F928F93CA
:1006500086E690E09F938F93CEE8D0E0DF93CF9330
:100660000ED6CE01A4D509900020E9F72197AE015E
:100670004E58504060E070E08EE890E0DFD578940E
:100680002DB73EB7205F3F4F0FB6F8943EBF0FBE69
:100690002DBF992493949AE0C92ED12C06E610E040
:1006A000CEE8D0E029ECA22E20E0B22E3BE1E32EF2
:1006B00031E0F32E42E3842E9091D300913009F083
:1006C00037C1959A3FEF41EE84E031504040804081
:1006D000E1F700C0000095984091BF005091C00024
:1006E0006091C1007091C2004093BB005093BC0068
:1006F0006093BD007093BE008091D4008093C600CB
:100700008B3009F457C030F4813099F090F08A3082
:1007100091F10CC1853609F489C020F4843609F4BE
:1007200068C004C18E3609F4A2C08F3609F4C2C075
:10073000FDC06091D700633308F0F8C08091D80005
:100740008A3008F0F3C09091D500933308F0EEC0E2
:100750009091D6009A3008F0E9C01092C3006093DF
:1007600051018093520183E090E07ADD6091520163
:1007700084E090E0D5C09091D700933308F0D6C0C4
:100780008091D8008A3008F0D1C02091D500233361
:1007900008F0CCC02091D6002A3008F0C7C01092D3
:1007A000C6009092C3009093510180935201C09A69
:1007B0009498A8C02091D700233308F0B7C0809147
:1007C000D8008A3008F0B2C03091D500333308F039
:1007D000ADC03091D6003A3008F0A8C09093C60062
:1007E0009093C3002093510180935201C098949A32
:1007F00089C02091D700233308F098C09091D80089
:100800009A3008F093C06091D500633308F08EC031
:100810008091D6008A3008F089C01092C6001092EC
:10082000C30020935101909352011CC03091D70016
:10083000333308F07BC02091D8002A3008F076C00E
:100840006091D500633308F071C08091D6008A3082
:1008500008F06CC09093C6001092C3003093510111
:10086000209352016093530180934F0143C0309114
:10087000D700333308F05AC02091D8002A3008F04E
:1008800055C09091D500933308F050C08091D600A8
:100890008A3008F04BC01092C6009092C30030938B
:1008A0005101209352019093530180934F01C09ABC
:1008B00094981EC03091D7003333C0F52091D800F2
:1008C0002A30A0F59091D500933380F58091D60021
:1008D0008A3060F59092C6009092C3003093510127
:1008E000209352019093530180934F01C098949AA2
:1008F0006091530181E090E0B3DC60914F0182E0B0
:1009000090E0AEDC6091510183E090E0A9DC609161
:10091000520184E090E0A4DC6091C60085E090E0A4
:100920009FDC6091C30086E090E09ADC1092D300D7
:100930002091C700213009F063C08091AE00813062
:1009400009F04CC01092AE008091D9009091DA006D
:10095000B60144D46093530180934F0181E090E04D
:100960007FDC60914F0182E090E07ADC78DB80915F
:10097000C3001F928F9380914F011F928F9380919C
:1009800053011F928F93809152011F928F938091F8
:1009900051011F928F938091C6001F928F931F93D6
:1009A0000F93DF93CF936BD48EE890E000D4FE01D9
:1009B00001900020E9F73197AF014E58504060E0B8
:1009C00070E08EE890E03AD42DB73EB7205F3F4FFD
:1009D0000FB6F8943EBF0FBE2DBF10C0309153012B
:1009E00080914F0190E04AE0349F800D911D1124C9
:1009F0009093DA008093D9002093AE001092C70044
:100A00004090BF005090C0006090C1007090C20044
:100A10008091BB009091BC00D201A81BB90BCD0105
:100A2000B7FF03C091958195910989399A43FCF0EC
:100A30001092C3006091C500609351018091C40081
:100A4000809352014092BB005092BC006092BD0066
:100A50007092BE0083E090E003DC6091520184E07C
:100A600090E0FEDB6091C30086E090E0F9DBA895A2
:100A70008091BF009091C0002091B7003091B800E4
:100A8000821B930B97FF03C0919581959109893B38
:100A90009B400CF445C08091C6008093C900209112
:100AA00053013091D50090914F01321304C0309121
:100AB000D600391719F08C598093C9002093CA00C9
:100AC0009093CB00809151018093CC008091520192
:100AD0008093CD0089EC90E01ED38093E800F5016F
:100AE00001900020E9F73197AF01495C5040440F75
:100AF000551F60E070E089EC90E0A0D387DBAFDAAF
:100B00008091BF009091C000A091C100B091C2003F
:100B10008093B7009093B800A093B900B093BA0047
:100B2000A8958091BF009091C0002091AF003091B6
:100B3000B000821B930B97FF03C09195819591099B
:100B4000853F91404CF18091AE00813029F1809138
:100B500053012091510160914F0170E04AE0849F60
:100B6000600D711D11248091520190E0AAE02A9F2E
:100B7000800D911D112420D18091BF009091C00063
:100B8000A091C100B091C2008093AF009093B000DB
:100B9000A093B100B093B200A8958091BF0090914E
:100BA000C0002091B3003091B400821B930B97FFDB
:100BB00003C0919581959109813197420CF445C00C
:100BC0008091C3001F928F9380914F011F928F934A
:100BD000809153011F928F93809152011F928F93A6
:100BE000809151011F928F938091C6001F928F9325
:100BF0001F930F93DF93CF9342D38EE890E0D7D229
:100C0000FE0101900020E9F73197AF014E585040A6
:100C100060E070E08EE890E011D38091BF00909189
:100C2000C000A091C100B091C2008093B300909326
:100C3000B400A093B500B093B6008DB79EB74096B0
:100C40000FB6F8949EBF0FBE8DBF8091C800813053
:100C5000B1F5F70101900020E9F7AF014D51514086
:100C60006BE171E089EE90E0E0D2F70101900020A5
:100C7000E9F73197AF014B51514060E070E08BE1F3
:100C800091E0DCD210928D0010928C0069E770E048
:100C900089EE90E0DAD2892B09F0A99A61E870E038
:100CA00089EE90E0D2D2892B09F0A998E9EEF0E024
:100CB000DF01282D1D922A95E9F71092C800A8950A
:100CC000FBCCCF93C62FA898000090E0F3DB8C2FCD
:100CD00090E0F0DBA89A0000CF910895CF9360E0F8
:100CE0008FE0EFDF61E08CE0ECDF67E08BE0E9DFD5
:100CF0006FEF89E0E6DFC8E06FE08C2FE2DFC150E4
:100D0000D9F7CF91089560E08FE0DBDF8FE39CE9B6
:100D10000197F1F700C0000061E08CE0D2DF8FE3C3
:100D20009CE90197F1F700C0000067E08BE0C9DFA4
:100D30008FE39CE90197F1F700C000006FEF89E0B5
:100D4000C0DF8FE39CE90197F1F700C0000064E089
:100D50008AE0B7DF8FE39CE90197F1F700C000005C
:100D6000BDDF60E089E0ADDF8FE39CE90197F1F73B
:100D700000C000006FEF81E0A4DF6FEF82E0A1DF31
:100D80006FEF83E09EDF6FEF84E09BDF6FEF85E026
:100D900098DF6FEF86E095DF6FEF87E092DF6FEF10
:100DA00088E08FDF9FEF23ED80E39150204080406B
:100DB000E1F700C000000895CF92DF92EF92FF921A
:100DC0000F931F93CF93DF938C01EB01083E83E0D9
:100DD00018070CF05CC0683E73400CF058C07EDF12
:100DE0006EEE89E06EDF6EE481E06BDF6EE485E03D
:100DF00068DF0115110539F460E082E062DF60E828
:100E000083E05FDF1DC092E0F92E2AE0C22ED12CD4
:100E1000C801B601F7D1682F8F2D53DF2F2DF39422
:100E2000C801B601EFD18B010000672B49F02B7F81
:100E3000223071F7C801B601E5D1682F6068ECCFA8
:100E4000209739F460E086E03CDF60E887E039DF36
:100E50001CC016E08AE0E82EF12CCE01B701D2D1F9
:100E6000682F812F2EDF212F1F5FCE01B701CAD13E
:100E7000EB010000209749F02B7F223071F7CE0163
:100E8000B701C0D1682F6068ECCF80E001C081E07D
:100E9000DF91CF911F910F91FF90EF90DF90CF9056
:100EA0000895FF920F931F93CF93DF93F62ED72FC2
:100EB000C42FC198C29890E0FDDA85E08A95F1F7D9
:100EC00000000F2D1D2FCC2339F0F80181918F01E7
:100ED00090E0F0DAC150F7CFC29AC19ADF91CF917A
:100EE0001F910F91FF900895C29882EE90E0E2DA90
:100EF00085E08A95F1F70000C29A0895C29881EEC4
:100F000090E0D8DA85E08A95F1F70000C29A08955A
:100F1000C29880E590E0CEDA85E08A95F1F700008E
:100F200083E790E0C7DAC29A0895FF920F931F9368
:100F3000CF93DF93F62ED72FC42FC29890E0BADA62
:100F40000F2D1D2FCC2341F08FEF90E0B3DAF80185
:100F500081938F01C150F6CFC29ADF91CF911F913B
:100F60000F91FF900895FF920F931F93CF93DF93FC
:100F7000F62ED72FC42FC298806290E09BDA85E0CE
:100F80008A95F1F700000F2D1D2FCC2339F0F801C1
:100F900081918F0190E08EDAC150F7CFC29ADF9134
:100FA000CF911F910F91FF90089543E063E670E0A9
:100FB00080E1D9DF43E063E670E08BE0D4DFC198E5
:100FC00093DF9CCFCF93C62FC298806290E072DAF5
:100FD0008C2F90E06FDAC29ACF910895CF93C82FEB
:100FE000C29890E067DAC73019F08FEF90E062DACC
:100FF000C29ACF9108951F920F920FB60F921124AB
:101000002F933F934F935F936F937F938F939F9310
:10101000AF93BF93CF93EF93FF9387E0DFDFC82FAA
:1010200086FF0FC0869587708093500145E064ED80
:1010300070E081E67ADF60E487E0C4DF81E08093DE
:10104000D300C57019F060E287E0BCDFFF91EF913B
:10105000CF91BF91AF919F918F917F916F915F9150
:101060004F913F912F910F900FBE0F901F901895A9
:1010700080E0B4DF682F636080E0A4DF43E060E6D7
:1010800070E080E170DF43E060E670E08BE06BDFF2
:10109000C19A87E592E00197F1F700C0000024DFD4
:1010A0002DCFC1988FE19EE40197F1F700C00000B9
:1010B0006AE080E087DF8FE19EE40197F1F700C0EE
:1010C000000063E081E07EDF63E082E07BDF61E0DF
:1010D00083E078DF6FE684E075DF1ADF60E08DE1A2
:1010E00071DF60E08CE16EDF60E787E06BDF6CE46E
:1010F00085E068DF66E086E065DF43E060E670E09B
:1011000080E131DF43E060E670E08BE02CDF65E0FA
:1011100082E158DFADCFCF93DF93EC0146DF80E073
:101120005DDF8E7F682F626080E04CDF87E592E0B4
:101130000197F1F700C0000045E0BE0180EAB1DE92
:10114000C19A90E59A95F1F7C1988299FECF87E010
:1011500045DF982F957079F0969A2FEF81EE94E005
:10116000215080409040E1F700C00000969860E276
:1011700087E028DF06C082FF04C060E187E022DF4D
:10118000BDDE88E02BDFC82F73DF60E787E01ADF62
:101190008C2FDF91CF91089590BD89B98AB1886174
:1011A0008AB9579A599A80B58E6880BD089540E0F3
:1011B000242F30E0FC0101900020E9F73197E81B73
:1011C000F90B2E173F0748F45D9BFECFFC01E20FA1
:1011D000F31F20812CB94F5FEBCF0895AA1BBB1BD7
:1011E00051E107C0AA1FBB1FA617B70710F0A61B27
:1011F000B70B881F991F5A95A9F780959095BC0148
:10120000CD01089597FB072E16F4009406D077FDC4
:1012100008D0E4DF07FC05D03EF4909581959F4F00
:101220000895709561957F4F0895FB01DC0102C020
:1012300001900D9241505040D8F70895DC0101C053
:101240006D9341505040E0F70895FB0151915523B3
:10125000A9F0BF01DC014D9145174111E1F759F4A7
:10126000CD010190002049F04D9140154111C9F385
:10127000FB014111EFCF81E090E001970895AEE0CE
:10128000B0E0E4E4F9E0AAC20D891E8986E08C830F
:101290001A8309838FEF9FE79E838D83AE01475E9C
:1012A0005F4F6F89788DCE01019608D0EF81F88568
:1012B000E00FF11F10822E96E4E0ACC2ABE0B0E08C
:1012C000E3E6F9E07DC26C017B018A01FC01178233
:1012D0001682838181FFBFC1CE0101963C01F601D8
:1012E0009381F70193FD859193FF81917F0188237D
:1012F00009F4ADC1853239F493FD859193FF819155
:101300007F01853221F4B60190E0C0D1E8CF912C65
:10131000212C312CFFE1F315D8F08B3279F038F421
:10132000803279F08332A1F4232D20611DC08D32EB
:1013300061F0803369F4232D216016C0832D826013
:10134000382EE32DE4603E2E2AC0F32DF8601DC038
:1013500037FC2DC020ED280F2A3040F08E32B9F432
:1013600036FC75C1232D2064322E19C036FE06C00E
:101370008AE0989E200D1124922E11C0EAE02E9E44
:10138000200D1124222EF32DF0623F2E08C08C3642
:1013900021F4832D8068382E02C0883641F4F7018D
:1013A00093FD859193FF81917F018111B3CF982F98
:1013B0009F7D9554933028F40C5F1F4F9FE39983D2
:1013C0000DC0833631F0833771F0833509F055C095
:1013D00020C0F801808189830E5F1F4F8824839489
:1013E000912C530112C02801F2E04F0E511CF8015C
:1013F000A080B18036FE03C0692D70E002C06FEF9F
:101400007FEFC50138D14C018201F32DFF773F2ECC
:1014100015C0280122E0420E511CF801A080B180C5
:1014200036FE03C0692D70E002C06FEF7FEFC5018B
:1014300017D14C01F32DF0683F2E820133FC19C007
:10144000822D90E088169906A0F4B60180E290E023
:101450001DD12A94F5CFF50137FC859137FE819196
:101460005F01B60190E012D121102A9421E0821A86
:1014700091088114910479F7E1C0843611F089361E
:1014800039F5F80137FE07C060817181828193814F
:101490000C5F1F4F08C060817181072E000C880B04
:1014A000990B0E5F1F4FF32DFF763F2E97FF09C05C
:1014B00090958095709561957F4F8F4F9F4FF06805
:1014C0003F2E2AE030E0A3011DD1882E861844C0AB
:1014D000853731F4232D2F7EB22E2AE030E025C04F
:1014E000932D997FB92E8F36C1F018F4883579F095
:1014F000AEC0803719F0883721F0A9C0E92FE0612C
:10150000BE2EB4FE0DC0FB2DF460BF2E09C034FE0C
:101510000AC0292F2660B22E06C028E030E005C0A0
:1015200020E130E002C020E132E0F801B7FE07C060
:1015300060817181828193810C5F1F4F06C0608141
:10154000718180E090E00E5F1F4FA301DBD0882EF9
:101550008618FB2DFF773F2E36FE0DC0232D2E7FE4
:10156000A22E891458F434FE0BC032FC09C0832D1E
:101570008E7EA82E05C0B82CA32C03C0B82C01C0A9
:10158000B92CA4FE0FC0FE01E80DF11D808180334F
:1015900021F49A2D997EA92E09C0A2FE06C0B3940B
:1015A000B39404C08A2D867809F0B394A3FC10C0CC
:1015B000A0FE06C0B21480F4280C922C9B180DC01B
:1015C000B21458F4B60180E290E060D0B394F8CF42
:1015D000B21418F42B1802C0982C212CA4FE0FC0B2
:1015E000B60180E390E052D0A2FE16C0A1FC03C079
:1015F00088E790E002C088E590E0B6010CC08A2D33
:10160000867851F0A1FE02C08BE201C080E2A7FC07
:101610008DE2B60190E03AD0891430F4B60180E34F
:1016200090E034D09A94F8CF8A94F301E80DF11D3C
:101630008081B60190E02AD08110F6CF222009F4F3
:101640004ECEB60180E290E021D02A94F7CFF60189
:101650008681978102C08FEF9FEF2B96E2E1CCC08D
:10166000FC010590615070400110D8F7809590956D
:101670008E0F9F1F0895FC01615070400190011072
:10168000D8F7809590958E0F9F1F08950F931F9305
:10169000CF93DF93FB01238121FD03C08FEF9FEFE9
:1016A0002CC022FF16C04681578124813581421704
:1016B000530744F4A081B1819D012F5F3F4F3183D7
:1016C00020838C93268137812F5F3F4F378326837A
:1016D00014C08B01EC01FB010084F185E02D09951C
:1016E000892BE1F6D80116968D919C91179701965A
:1016F00017969C938E931697CE01DF91CF911F91F1
:101700000F910895FA01AA27283051F1203181F173
:10171000E8946F936E7F6E5F7F4F8F4F9F4FAF4FF9
:10172000B1E03ED0B4E03CD0670F781F891F9A1F0C
:10173000A11D680F791F8A1F911DA11D6A0F711DC0
:10174000811D911DA11D20D009F468943F912AE0CC
:10175000269F11243019305D3193DEF6CF010895B4
:10176000462F4770405D4193B3E00FD0C9F7F6CFE5
:10177000462F4F70405D4A3318F0495D31FD4052AD
:10178000419302D0A9F7EACFB4E0A6959795879543
:1017900077956795BA95C9F7009761057105089522
:1017A0009B01AC010A2E06945795479537952795CE
:1017B000BA95C9F7620F731F841F951FA01D089566
:1017C0002F923F924F925F926F927F928F929F9251
:1017D000AF92BF92CF92DF92EF92FF920F931F933F
:1017E000CF93DF93CDB7DEB7CA1BDB0B0FB6F894F0
:1017F000DEBF0FBECDBF09942A88398848885F8430
:101800006E847D848C849B84AA84B984C884DF80A0
:10181000EE80FD800C811B81AA81B981CE0FD11D84
:101820000FB6F894DEBF0FBECDBFED010895F8945A
:02183000FFCFE8
:10183200B5B5A1B7B5A125642025642E2564202560
:10184200642E25642025642000576946692D4F4B7C
:0C18520000576946692D4552524F520064
:00000001FF
