:100000000C94257D0C94C0930C94467D0C94467DF5
:100010000C94467D0C947F8E0C94F88E0C94208F5B
:100020000C94518F0C94467D0C94467D0C94467D27
:100030000C94467D0C94467D0C94467D0C94467D34
:100040000C94467D0C94508E0C94467D0C94467D09
:100050000C94467D0C94758E0C94467D0C94467DD4
:100060000C94467D0C94467D0C94467D0C94467D04
:100070000C94467D0C94467D0C94467D0C94467DF4
:100080000C94467D0C94467D0C94467D0C94467DE4
:100090000C94467D0C94467D0C94467D0C94467DD4
:1000A0000C94467D0C94467D0C94467D0C94467DC4
:1000B0000C94467D0C94467D0C94467D0C94467DB4
:1000C0000C94467D0C94467D0C94467D0C94467DA4
:1000D0000C94467D0C94467D0C94467D0C94467D94
:1000E0000C94467DEFA194A23BA3E2A389A430A582
:1000F000D7A57EA681B18BB195B19FB1A9B1B3B19E
:10010000BDB1D5B1DDB1E5B1EDB1F5B1FDB105B22E
:100110000DB215B21DB225B22DB26364696E6F7057
:10012000737578585B0000000000000000000000BC
:1001300000000000000000000000000000000000BF
:1001400000000000000000000100000000010000AD
:100150000000010000008001000000E0010000003C
:100160007C010000001F010000E003010000F80016
:100170000100009F000000C087000000F880000020
:10018000003E800000007F80000000FF8300000030
:10019000FE9F000000F0FF00010080FF030100004F
:1001A000FE1F010000F07F01000080FF0100000041
:1001B000FC01000000F001000000800100000000D0
:1001C000010000000001000000000100000000002C
:1001D000000000000000000000000000000000001F
:1001E000000000000000000000000000000000000F
:1001F00000000000000000000000000000000000FF
:1002000000000000000000000000000000000000EE
:1002100000000000000000000000000000000000DE
:1002200000010000010001000001000100000100C8
:10023000FFFFFF0100FFFFFF0100FFFFFF0100FFC5
:10024000FFFF01000104000100010400010001049E
:1002500000010001040001000104000100010C8004
:100260000100010C800100071CC000003F78E00085
:10027000003FF8FF00003FF07F000000E03F00007B
:1002800000800F00000000000000000000000000DF
:10029000000000000000000000000000000000005E
:1002A000000000000000000000000000000000004E
:1002B000000000000000000000000000000000003E
:1002C000000000000000000000000000000000002E
:1002D000000000000000000000000000000000001E
:1002E000000000000000000000010000010001000B
:1002F0000001000100000100FFFFFF0100FFFFFF00
:100300000100FFFFFF0100FFFFFF010001080001E6
:1003100000010800010001080001000108000100BF
:10032000030C000100031C800100071F800100FE78
:100330003FC00100FEF3E00000FCF3FF0000F8E026
:100340007F000000C03F000000801F000000000090
:10035000000000000000000000000000000000009D
:10036000000000000000000000000000000000008D
:10037000000000000000000000000000000000007D
:10038000000000000000000000000000000000006D
:10039000000000000000000000000000000000005D
:1003A000000000000000000000000000000000004D
:1003B0000000000000000100000100010000010039
:1003C0000100000100FFFFFF0100FFFFFF0100FF30
:1003D000FFFF0100FFFFFF0100010000010001001D
:1003E0000001000100000100010000000001000008
:1003F00000000100000000010000000007000000F4
:10040000003F000000003F000000003F000000002F
:1004100000000000000000000000000000000000DC
:1004200000000000000000000000000000000000CC
:1004300000000000000000000000000000000000BC
:1004400000000000000000000000000000000000AC
:10045000000000000000000000000000000000009C
:1004600000000000000000000000000000FF00008D
:100470000000FF00000000FF000000001F0000005F
:100480008001000000E00100010078010001001F70
:10049000010001E007010081FF000100FF1F0001D2
:1004A000007F0000010001000001000100000100C8
:1004B0000100000100010000010001000001000135
:1004C00000000100FFFFFF0100FFFFFF0100FFFF31
:1004D000FF0100FFFFFF01000100001F00010000FD
:1004E000FF00010000FF00000000FF00000000000E
:1004F00000000000000000000000000000000000FC
:1005000000000000000000000000000000000000EB
:1005100000000000000000000000000000000000DB
:1005200000000000000000000000000000000000CB
:1005300000000000000000000000000000000000BB
:1005400000010000010001000001000100000100A5
:10055000FFFFFF0100FFFFFF0100FFFFFF0100FFA2
:10056000FFFF010001100001000110000100011057
:100570000001000110000100011000010001FE0057
:10058000010001FE00010007000001003F00C00162
:10059000003F00F801003F00F801000000F80100F2
:1005A000000000000000000000000000000000004B
:1005B000000000000000000000000000000000003B
:1005C000000000000000000000000000000000002B
:1005D000000000000000000000000000000000011A
:1005E00000020000010007000001000F0080010070
:1005F0000F00E001000700F801000E00FE01003CC2
:10060000007F0000F0C03F0000C0E30F000000E7E3
:1006100003000000FC00000000780000000138002A
:10062000010001100001000110000100FFFFFF01A7
:1006300000FFFFFF0100FFFFFF0100FFFFFF0100C0
:10064000011000010001100001000138000100004C
:100650007800000000FC00000000E7030000C0E399
:100660000F0000F0C03F00003C00FF00000E00FE45
:1006700001000700F801000F00E001000F008001F9
:10068000000700000100020000010000000001005E
:10069000000000000000000000000000000000005A
:1006A000000000000000000000000000000000004A
:1006B000000000000000000000000000000000003A
:1006C000000000000000000000000000000000002A
:1006D00000000000000000000000007E00FC0000A0
:1006E0007E00FC00007F00FC01000F00E001000321
:1006F0000880010001080001000108000100010854
:100700000001000108000100030C800100031C80AF
:1007100001000F3FC00000FE7FE00000FEF77F00F9
:1007200000FCE37F0000F0C03F000000800F0000ED
:1007300000000000000000000000000000000000B9
:1007400000000000000000000000000000000000A9
:100750000000000000000000000000000000000099
:100760000000000000000000000000000000000089
:100770000000000000000000000000000000000079
:100780000000000000000000000001000001000166
:10079000000001000100000100FFFFFF0100FFFF5A
:1007A000FF0100FFFFFF0100FFFFFF010001001C30
:1007B00001000100060100018003010000C00100EA
:1007C0000000600000000030000000001C0000007D
:1007D000000E0000000003000000C101000100E164
:1007E000000001003100000100FFFFFF0100FFFFDA
:1007F000FF0100FFFFFF0100FFFFFF0100010000FC
:1008000001000100000100010000010000000000E3
:1008100000000000000000000000000000000000D8
:1008200000000000000000000000000000000000C8
:1008300000000000000000000000000000000000B8
:1008400000000000000000000000000000000000A8
:100850000000010000010001000001000100000192
:1008600000FFFFFF0100FFFFFF0100FFFFFF01008E
:10087000FFFFFF010E01001C011E010006011E0109
:100880008003013E00C00100200060000020003015
:10089000000020001C000020000E000020000300CB
:1008A000003EC10100011EE10000011E31000001F7
:1008B0000EFFFFFF0100FFFFFF0100FFFFFF010030
:1008C000FFFFFF0100010000010001000001000125
:1008D0000000010000000000000000000000000017
:1008E0000000000000000000000000000000000008
:1008F00000000000000000000000000000000000F8
:1009000000000000000000000000000000000000E7
:1009100000000000000000000000000000000000D7
:1009200000000000010000010001000001000100C2
:10093000000100FFFFFF0100FFFFFF0100FFFFFFBD
:100940000100FFFFFF010001100001000110000184
:10095000000138000100007800000000FC000000E9
:1009600000E601000080E3070000F0C11F00007CEA
:10097000807F00000E00FE01000700F801000F005C
:10098000E001000F008001000700000100020000EC
:100990000100000000010000000000000000000055
:1009A0000000000000000000000000000000000047
:1009B0000000000000000000000000000000000037
:1009C0000000000000000000000000000000000027
:1009D0000000000000000000000000000000000017
:1009E000000000008000000000E001000000E001C5
:1009F000000000E001000000C001000100E0010073
:100A00000100F0000001007E000001FC1F0000FF5B
:100A1000FF010000FF0300000001000000000100D2
:100A200000000001000000000100000100010000C2
:100A300001000100000100FFFFFF0100FFFFFF01B7
:100A400000FFFFFF0100FFFFFF01000100000100A8
:100A50000100000100010000010000000000000092
:100A60000000000000000000000000000000000086
:100A70000000000000000000000000000000000076
:100A80000000000000000000000000000000000066
:100A90000000000000000000000000000000000056
:100AA000010000010001000001000100000100FF41
:100AB000FFFF0100FFFFFF01003F00000100FF00FA
:100AC000000100FE07000100F81F000000C07F00C9
:100AD000000000FF03000000FC0F000000E07F00AA
:100AE000000080FF01000000FE01000000F800008F
:100AF00000003F000000C007000000F800000000F8
:100B00003E000000C007000100F8010001003E00A7
:100B1000000100FFFFFF0100FFFFFF0100FFFFFFDB
:100B20000100FFFFFF0100010000010001000001C2
:100B300000010000010000000000000000000000B3
:100B400000000000000000000000000000000000A5
:100B50000000000000000000000000000000000095
:100B60000000000000000000000000000000000085
:100B7000000001000001000100000100010000016F
:100B800000FFFFFF0100FFFFFF0100FFFFFF01006B
:100B9000FFFFFF0100011000010001100001000132
:100BA0001000010000100000000010000000001004
:100BB0000000000010000000001000000001100004
:100BC000010001100001000110000100FFFFFF0102
:100BD00000FFFFFF0100FFFFFF0100FFFFFF01001B
:100BE00001000001000100000100010000010000FF
:100BF00000000000000000000000000000000000F5
:100C000000000000000000000000000000000000E4
:100C100000000000000000000000000000000000D4
:100C200000000000000000000000000000000000C4
:100C3000000000000000FE000000C0FF070000E010
:100C4000FF0F0000F0FF1F0000F8003F00003C0015
:100C50007C00000C007000000600E000000200C0F4
:100C6000000003008001000100800100010000017C
:100C7000000100000100010000010001000001006E
:100C800001000001000300000100030080010006D4
:100C9000008000000E00C000001E00E000007C008C
:100CA000700000F8013E0000F0FF1F0000E0FF0FA1
:100CB0000000C0FF07000000FE0000000000000070
:100CC0000000000000000000000000000000000024
:100CD0000000000000000000000000000000000014
:100CE0000000000000000000000000000000000004
:100CF00000000000000000000000000000000000F4
:100D000000000100000100010000010001000001DD
:100D100000FFFFFF0100FFFFFF0100FFFFFF0100D9
:100D2000FFFFFF01000100000100010000010001C0
:100D300000000100010000000001000000000100AF
:100D400000000001000000000100000000010000A0
:100D5000010001000001000100000100FFFFFF0190
:100D600000FFFFFF0100FFFFFF0100FFFFFF010089
:100D7000010000010001000001000100000100006D
:100D80000000000000000000000000000000000063
:100D90000000000000000000000000000000000053
:100DA0000000000000000000000000000000000043
:100DB0000000000000000000000000000000000033
:100DC0000000000000000000000000000000000023
:100DD0000000000000000000000100000100010010
:100DE0000001000100000100FFFFFF0100FFFFFF05
:100DF0000100FFFFFF0100FFFFFF010001200001D4
:100E0000000120000100012000010001200000007D
:100E10000120000000033000000003300000000744
:100E2000180000000E1C000000FE0F000000FC0F68
:100E3000000000FC07000000F001000000000000BE
:100E400000000000000000000000000000000000A2
:100E50000000000000000000000000000000000092
:100E60000000000000000000000000000000000082
:100E70000000000000000000000000000000000072
:100E80000000000000000000000000000000000062
:100E90000000000000000000FE00000080FF0300D2
:100EA00000E0FF0F0000F0FF1F0000F8803F00008F
:100EB00038007C00000C007000000E00E00000060E
:100EC00000C000000200C00000030080010001001B
:100ED000800100010000010001000001000100008C
:100EE00001000100000100010000010001000001FB
:100EF0000003008001000F00E001007F00FC000003
:100F00007E00FC00007E00FC0000000000000000ED
:100F100000000000000000000000000000000000D1
:100F200000000000000000000000000000000000C1
:100F300000000000000000000000000000000000B1
:100F400000000000000000000000000000000000A1
:100F50000000000000000000000000000000003F52
:100F6000000000003F000000003F000000000700FC
:100F7000000000010000000001000000000100006E
:100F8000010001000001000100000100FFFFFF015E
:100F900000FFFFFF0100FFFFFF0100FFFFFF010057
:100FA000010000010001000001000100000100013A
:100FB00000000000010000000007000000003F00EA
:100FC0000000003F000000003F00000000000000A3
:100FD0000000000000000000000000000000000011
:100FE0000000000000000000000000000000000001
:100FF00000000000000000000000000000000000F1
:1010000000000000000000000000000000000000E0
:1010100000000000000000000000000000000000D0
:1010200000000100000000010000000001000000BD
:101030000003000000000F008000003F00E00100FE
:10104000FF00E00100FF03E00100F90FC00100E133
:101050003FC0010081FFE0000000FE7B000000F8BF
:101060003F000000E00F000000E0010000007800F9
:101070000000001F000000C107000000F100000098
:10108000003D000000000F00000000030000000011
:10109000010000000001000000000100000000014C
:1010A0000000000000000000000000000000000040
:1010B0000000000000000000000000000000000030
:1010C0000000000000000000000000000000000020
:1010D0000000000000000000000000000000000010
:1010E00000000000000000000000007F000000C0C1
:1010F000FF010000E0FF030000F0FF070000F880A0
:101100000F000038000E000018000C00400C001802
:1011100001400C0018014004001001C0FFFFFF0156
:10112000C0FFFFFF01C0FFFFFF01C0FFFFFF014045
:10113000040010014004001001400C001801000CD4
:101140000008000018000C000038000E0000F880B5
:10115000070000F0FF070000E0FF030000C0FF01F0
:101160000000007F00000000000000000000000000
:10117000000000000000000000000000000000006F
:10118000000000000000000000000000000000005F
:10119000000000000000000000000000000000004F
:1011A000000000000000000000000000000000003F
:1011B0000000010000010001000001000100000129
:1011C0000001008001000700C001001F0070010045
:1011D0003F00380100FF000E0100F903070000F195
:1011E00087010000C1FF000000807F00000000FEBA
:1011F00000000000FE03000000F3070100C0C11F53
:101200000100E1803F01003900FE01001D00F801EE
:10121000000700F001000300C00100010000010010
:1012200001000001000100000100000000010000B9
:1012300000000000000000000000000000000000AE
:10124000000000000000000000000000000000009E
:10125000000000000000000000000000000000008E
:10126000000000000000000000000000000000007E
:10127000000000000000000000000100000100016B
:10128000000001000100000100FFFFFF0100FFFF5F
:10129000FF0100FFFFFF0100FFFFFF010001000051
:1012A0000100010000010001000001000000000138
:1012B000000000000100000000010000000001002B
:1012C0000000000100010000010001000001000118
:1012D00000000100FFFFFF0100FFFFFF0100FFFF13
:1012E000FF0100FFFFFF01000100001F00010000DF
:1012F000FF00010000FF00000000FF0000000000F0
:1013000000000000000000000000000000000000DD
:1013100000000000000000000000000000000000CD
:1013200000000000000000000000000000000000BD
:1013300000000000000000000000000000000000AD
:10134000000000000000000100000000010000009B
:10135000000100000000FF0F000000FF1F00000060
:10136000FF3F000000FF3F00000001780000000187
:1013700070000000016000000000600000000060DC
:101380000000000060000100016000010001600039
:1013900001000120000100FFFFFF0100FFFFFF012E
:1013A00000FFFFFF0100FFFFFF010001000001003F
:1013B0000100000100010000010000000000000029
:1013C000000000000000000000000000000000001D
:1013D000000000000000000000000000000000000D
:1013E00000000000000000000000000000000000FD
:1013F00000000000000001000001000100000100E9
:101400000100000100FFFFFF0100FFFFFF0100FFDF
:10141000FFFF0100FFFFFF010001000001000100CC
:1014200000010001000001000000000100000000B8
:1014300001000100000100010000010001000001A5
:1014400000FFFFFF0100FFFFFF0100FFFFFF0100A2
:10145000FFFFFF0100010000010001000001000189
:101460000000010000000001000000000100010078
:1014700000010001000001000100000100FFFFFF6A
:101480000100FFFFFF0100FFFFFF0100FFFFFF0161
:101490000001000001000100000100010000010046
:1014A000000000000000000000000000000000003C
:1014B0000000000000000000000100000100010029
:1014C0000001000100000100FFFFFF0100FFFFFF1E
:1014D0000100FFFFFF0100FFFFFF0100010000010D
:1014E00000010000010001000001000000000100F7
:1014F00000000001000100000100010000010001E6
:1015000000000100FFFFFF0100FFFFFF0100FFFFE0
:10151000FF0100FFFFFF01000100000100010000CA
:1015200001000100000100000000010000000001B6
:1015300000010000010001000001000100000100A5
:10154000FFFFFF0100FFFFFF0100FFFFFF0100FFA2
:10155000FFFF010001000001000100001F00010069
:1015600000FF00000000FF00000000FF000000007E
:10157000000000000000000000000000000000006B
:10158000000000000000000000000000000000005B
:1015900000000000003F000000003F000000003F8E
:1015A0000000000007000000000100000000010032
:1015B0000000000100000000010000010001000027
:1015C00001000100000100FFFFFF0100FFFFFF011C
:1015D00000FFFFFF0100FFFFFF0100010400010009
:1015E00001040001000104000100000400010000EA
:1015F0000C000100000C800100000C800100001CA8
:10160000C000000078E0000000F8FF000000F07F5C
:10161000000000E03F000000800F0000000000001C
:1016200000000000000000000000000000000000BA
:1016300000000000000000000000000000000000AA
:10164000000000000000000000000000000000009A
:101650000000000000000000010000010001000087
:1016600001000100000100FFFFFF0100FFFFFF017B
:1016700000FFFFFF0100FFFFFF0100010400010068
:101680000104000100010400010000040001000049
:101690000C800100000C800100001CC001000078DB
:1016A000E0000000F8FF000000F07F000000E03FD5
:1016B000000000800F000001000001000100000197
:1016C000000100000100FFFFFF0100FFFFFF01001C
:1016D000FFFFFF0100FFFFFF01000100000100010B
:1016E00000000100010000010000000000000000F7
:1016F00000000000000000000000000000000000EA
:1017000000000000000000000000000000000000D9
:1017100000000000000000000000000000000000C9
:1017200000000000000000000000000000000000B9
:1017300000000000000000000001000001000100A6
:101740000001000100000100FFFFFF0100FFFFFF9B
:101750000100FFFFFF0100FFFFFF01000104000186
:101760000001040001000104000100000400010068
:101770000004000100000C800100000C800100004A
:101780001CC000000078E0000000F8FF000000F03E
:101790007F000000E03F000000800F00000000001C
:1017A0000000000000000000000000000000000039
:1017B0000000000000000000000000000000000029
:1017C0000000000000000000000000000000000019
:1017D0000000000000000000000000000000000009
:1017E00000000000000000000000000000000000F9
:1017F0000000000000000000000000007E00FC006F
:10180000007E00FC00007F00FC01000F00E00100F2
:10181000030080010001100001000110000100011F
:101820001000010001100001000110000100011072
:1018300000010003108001000310800000061080EA
:1018400000000E10C000001E106000007C10700030
:1018500000F8133E0000F0FF1F0000E0FF0F000043
:10186000C0FF07000000FE000000000000000000B4
:101870000000000000000000000000000000000068
:101880000000000000000000000000000000000058
:101890000000000000000000000000000100000146
:1018A0000001000001000100000100FFFFFF010036
:1018B000FFFFFF0100FFFFFF0100FFFFFF0100012D
:1018C000100001000110000100011000010000FCE7
:1018D00001000080FF070000E0FF0F0000F0FF1F85
:1018E0000000F8003F00001C007C00000C00F0002D
:1018F000000600E000000200C000000300800100BC
:101900000100800100010000010001000001000150
:1019100000000100010000010001000001000300BF
:10192000000100030080010006008000000E00C0DE
:1019300000001E00E000003C00700000F8013E00C6
:1019400000F8FF1F0000E0FF0F0000C0FF070000CD
:1019500000FE000000000000000000000000000089
:101960000000000000000000000000000000000077
:101970000000000000000000000000000000000067
:101980000000000000010000000001000000000154
:10199000000000800100F001E00100FC03F80100FC
:1019A000FE07FE0100FE8F7F00000FCE1F00000328
:1019B000FC07000003F8010000017800000001307E
:1019C00000000001300001000110000100011000C2
:1019D0000100FFFFFF0100FFFFFF0100FFFFFF010C
:1019E00000FFFFFF010001000001000100000100F5
:1019F00001000001000000000000000000000000E5
:101A000000000000000000000000000000000000D6
:101A100000000000000000000000000000000000C6
:101A200000000000000000000000000000000000B6
:101A300000000000000000000000000000000000A6
:101A40000000000000000000000000000000000096
:101A50000000000000000000000000000000000086
:101A60000000000000780000003CFC0000003CFE8C
:101A70000100003EFE01000006C6010000028301D5
:101A800000000283010000028101000006C1000085
:101A900000FEFF010000FEFF010000FCFF0100004E
:101AA000F8FF0100000080010000000001000000BC
:101AB0000000000000000000000000000000000026
:101AC0000000000000000000000000000000000016
:101AD0000000000000000000000000000000000006
:101AE00000000000000000000000000000000000F6
:101AF00000000000000000000000000000000000E6
:101B000000000000000000000000000000000000D5
:101B100000000000000000000000000000000000C5
:101B200000000000000000FC07000080FF1F000014
:101B3000E0F77F0000F0F8FF0000781CF0000038AC
:101B400006C001001C068001001C020001001C02EE
:101B50000001001E020001000E020001000E0680BE
:101B600001000E0E8001000E3CE000000FFCFF00A3
:101B70000007F87F008003F03F008001C00F0000E5
:101B80000000000000000000000000000000000055
:101B90000000000000000000000000000000000045
:101BA0000000000000000000000000000000000035
:101BB0000000000000000000000000000000000025
:101BC0000000000000000000000000000000000015
:101BD0000000000000000000000000000000000005
:101BE00000000000000000000000000000000000F5
:101BF00000000000000000000002000100000200E0
:101C0000010000FEFF010000FEFF010000FEFF01D9
:101C10000000FEFF010000020101000002010100BE
:101C20000002010100008603010000FE87010000A0
:101C3000FEFF010000FCFE00000038FE0000000076
:101C40003C00000000000000000000000000000058
:101C50000000000000000000000000000000000084
:101C60000000000000000000000000000000000074
:101C70000000000000000000000000000000000064
:101C80000000000000000000000000000000000054
:101C90000000000000000000000000000000000044
:101CA0000000000000000000000000000000000034
:101CB0000000000000000000000000000000000024
:101CC0000002000100000200010000FEFF01000010
:101CD000FEFF010000FEFF010000FEFF0100000208
:101CE00000010000020001000002000000000200EC
:101CF00000000006000000003E000000003E000062
:101D000000003E0000000000000000000000000095
:101D100000000000000000000000000000000000C3
:101D200000000000000000000000000000000000B3
:101D300000000000000000000000000000000000A3
:101D40000000000000000000000000000000000093
:101D50000000000000000000000000000000000083
:101D60000000000000000000000000000000000073
:101D70000000000000000000000000007F000000E4
:101D8000007F000000007F000002C00F000002F88A
:101D9000010000823F010000FE0F0100007E0001F3
:101DA000000002000100000200010000020001002A
:101DB000000200010000FEFF010000FEFF01000024
:101DC000FEFF010000FEFF0F000002007F00000286
:101DD000007F000000007F00000000000000000005
:101DE00000000000000000000000000000000000F3
:101DF00000000000000000000000000000000000E3
:101E000000000000000000000000000000000000D2
:101E100000000000000000000000000000000000C2
:101E200000000000000000000000000000000000B2
:101E300000000000000000000000000000000000A2
:101E4000000000000000000000000000C00F0000C3
:101E500000F03F000000F87F000000FCFF000000E1
:101E60009CF800000086E001000086C001000082AE
:101E7000C001000082800100008280010000868095
:101E80000100008E80010000FC80010000FCC00009
:101E90000000F8C0000000F040000000000000005A
:101EA0000000000000000000000000000000000032
:101EB0000000000000000000000000000000000022
:101EC0000000000000000000000000000000000012
:101ED0000000000000000000000000000000000002
:101EE00000000000000000000000000000000000F2
:101EF00000000000000000000000000000010000E1
:101F000006000100001E800100001EE00100000E1E
:101F1000F80100001CFC010000787E000000E01FBA
:101F20000000008007000000020301000002010120
:101F30000000FEFF010000FEFF010000FEFF0100A7
:101F400000FEFF0100000201010000020301000089
:101F50008007000000E01E000000787E0000001CEA
:101F6000FC0100000EF80100001EE00100001E80D0
:101F70000100000600010000000001000000000058
:101F80000000000000000000000000000000000051
:101F90000000000000000000000000000000000041
:101FA0000000000000000000000000000000000031
:101FB0000000000000000000000000000000000021
:101FC0000000000000000000000000000000000011
:101FD0000000000000000000000000000000000001
:101FE000003CF00000003EF00100003EF001000067
:101FF000068101000002010100000201010000024F
:10200000010100008603010000FE87010000FCFEC4
:10201000000000FCFE000000787E000000003C0094
:1020200000000000000000000000000000000000B0
:1020300000000000000000000000000000000000A0
:102040000000000000000000000000000000000090
:102050000000000000000000000000000000000080
:102060000000000000000000000000000000000070
:102070000000000000000000000000000000000060
:102080000000000000000000000000000000000050
:10209000000000000000000000000200010000023B
:1020A00000010000FEFF010000FEFF010000FEFF36
:1020B000010000FEFF0100000218010000020C01F7
:1020C000000000060000008003000000C0010000C6
:1020D0000062000100003200010000FEFF0100006C
:1020E000FEFF010000FEFF010000FEFF01000002F4
:1020F00000010000020001000000000000000000DC
:1021000000000000000000000000000000000000CF
:1021100000000000000000000000000000000000BF
:1021200000000000000000000000000000000000AF
:10213000000000000000000000000000000000009F
:10214000000000000000000000000000000000008F
:10215000000000000000000000000000000000007F
:10216000000002000100000200010000FEFF01006B
:1021700000FEFF01001CFEFF01003CFEFF01007C91
:10218000021801007C020C010040000600004080A3
:1021900003000040C001000040620001007C3200EA
:1021A00001007CFEFF01003CFEFF01001CFEFF0160
:1021B0000000FEFF0100000200010000020001001B
:1021C000000000000000000000000000000000000F
:1021D00000000000000000000000000000000000FF
:1021E00000000000000000000000000000000000EF
:1021F00000000000000000000000000000000000DF
:1022000000000000000000000000000000000000CE
:1022100000000000000000000000000000000000BE
:1022200000000000000000000000000000000000AE
:102230000000000002000100000200010000FEFF9B
:10224000010000FEFF010000FEFF010000FEFF0193
:1022500000000201010000020101000080030000F3
:1022600000C00F000000603E00000038FE000000CB
:102270001CFC0100000EF00100001EC00100001E49
:102280000001000006000100000000010000000045
:10229000000000000000000000000000000000003E
:1022A000000000000000000000000000000000002E
:1022B000000000000000000000000000000000001E
:1022C000000000000000000000000000000000000E
:1022D00000000000000000000000000000000000FE
:1022E000000000000000000000000000000080006E
:1022F000000000E001000000E001000000C001005B
:102300000002C001000002F0000000027F00000097
:10231000FE1F000000FE000000000200000000029E
:102320000000000002000100000200010000FEFFAA
:10233000010000FEFF010000FEFF010000FEFF01A2
:102340000000020001000002000100000000000087
:10235000000000000000000000000000000000007D
:10236000000000000000000000000000000000006D
:10237000000000000000000000000000000000005D
:10238000000000000000000000000000000000004D
:10239000000000000000000000000000000000003D
:1023A000000000000000000000000000000000002D
:1023B000000000000002000100000200010000FE19
:1023C000FF010000FEFF0100007E00010000FE0191
:1023D000010000FE0F000000F03F000000C0FF0100
:1023E000000000FE01000000F0010000003E0000BF
:1023F00000800F000000F0010100007E00010000DD
:10240000FEFF010000FEFF010000FEFF010000FED4
:10241000FF010000020001000002000100000000B6
:1024200000000000000000000000000000000000AC
:10243000000000000000000000000000000000009C
:10244000000000000000000000000000000000008C
:10245000000000000000000000000000000000007C
:10246000000000000000000000000000000000006C
:10247000000000000000000000000000000000005C
:10248000000002000100000200010000FEFF010048
:1024900000FEFF010000FEFF010000FEFF01000042
:1024A0000201010000020101000000010000000023
:1024B0000100000000010000000201010000020113
:1024C000010000FEFF010000FEFF010000FEFF0111
:1024D0000000FEFF010000020001000002000100F8
:1024E00000000000000000000000000000000000EC
:1024F00000000000000000000000000000000000DC
:1025000000000000000000000000000000000000CB
:1025100000000000000000000000000000000000BB
:1025200000000000000000000000000000000000AB
:10253000000000000000000000000000000000009B
:10254000000000000000000000000000000000C0CB
:102550000F000000F03F000000F87F000000FCFFCB
:102560000000001CF000000006C001000006800111
:102570000000020001000002000100000200010052
:1025800000020001000006800100000E8001000032
:102590003CE0000000FCFF000000F87F000000F0BD
:1025A0003F000000C00F000000000000000000001D
:1025B000000000000000000000000000000000001B
:1025C000000000000000000000000000000000000B
:1025D00000000000000000000000000000000000FB
:1025E00000000000000000000000000000000000EB
:1025F00000000000000000000000000000000000DB
:1026000000000000000000000000000000000000CA
:1026100000000000000000020001000002000100B4
:1026200000FEFF010000FEFF010000FEFF010000B0
:10263000FEFF010000020001000002000100000294
:102640000000000002000000000200010000020083
:10265000010000FEFF010000FEFF010000FEFF017F
:102660000000FEFF01000002000100000200010066
:10267000000000000000000000000000000000005A
:10268000000000000000000000000000000000004A
:10269000000000000000000000000000000000003A
:1026A000000000000000000000000000000000002A
:1026B000000000000000000000000000000000001A
:1026C000000000000000000000000000000000000A
:1026D00000000000000000000000000000000004F6
:1026E000000000000400000000FEFFFF0000FEFFED
:1026F000FF0000FEFFFF0000FEFFFF00000C0001D6
:1027000000000400010000060001000006000100B6
:102710000006000100000E800100000EC000000055
:102720003EF0000000FC7F000000FC3F000000F8CD
:102730001F000000E0070000000000000000000093
:102740000000000000000000000000000000000089
:102750000000000000000000000000000000000079
:102760000000000000000000000000000000000069
:102770000000000000000000000000000000000059
:102780000000000000000000000000000000000049
:102790000000000000000000000000000000000039
:1027A000000000000000000000000000C00F00005A
:1027B00000E03F000000F87F000000F8FF0000008C
:1027C0001CF80000000CE001000006C0010000023F
:1027D000C0010000028001000002800100000280B0
:1027E00001000002800100000E800100003EC000D8
:1027F00000003EC00000000040000000000000009B
:1028000000000000000000000000000000000000C8
:1028100000000000000000000000000000000000B8
:1028200000000000000000000000000000000000A8
:102830000000000000000000000000000000000098
:102840000000000000000000000000000000000088
:102850000000000000000000000000000000000078
:102860000000000000000000000000000000000068
:10287000000000003E000000003E000000003E009E
:10288000000000060000000002000100000200013C
:102890000000FEFF010000FEFF010000FEFF01003E
:1028A00000FEFF0100000200010000020001000024
:1028B00006000000003E000000003E000000003E58
:1028C0000000000000000000000000000000000008
:1028D00000000000000000000000000000000000F8
:1028E00000000000000000000000000000000000E8
:1028F00000000000000000000000000000000000D8
:1029000000000000000000000000000000000000C7
:1029100000000000000000000000000000000000B7
:1029200000000000000000000000000000000000A7
:10293000000002000000000200000000060080000D
:10294000001E008000007E00800000FE01C000002C
:10295000FA07C00000E21FF00000827F780000004C
:10296000FE1F000000F807000000F0000000003E1D
:10297000000000820F000000E2010000007A000069
:1029800000001E0000000006000000000200000021
:102990000002000000000000000000000000000035
:1029A0000000000000000000000000000000000027
:1029B0000000000000000000000000000000000017
:1029C0000000000000000000000000000000000007
:1029D00000000000000000000000000000000000F7
:1029E00000000000000000000000000000000000E7
:1029F000C01F000000F03F000000F8FF000000FCD6
:102A0000FF0000003CE00100000E80010000060015
:102A10000100000200010002020001000206800124
:102A200000FFFFFFFF00FFFFFFFF00FFFFFFFF00B2
:102A3000FFFFFFFF00000680010000020001000010
:102A40000200010000028001000006C00100001E1B
:102A5000E0000000FCFF000000FC7F000000F03FF1
:102A6000000000E00F000000000000000000000077
:102A70000000000000000000000000000000000056
:102A80000000000000000000000000000000000046
:102A90000000000000000000000000000000000036
:102AA0000000000000000000000000000000000026
:102AB0000000000000000000000000000000000016
:102AC00000000200010000020001000002000100FD
:102AD0000006800100001EE00100003E70010000C1
:102AE0007E18010000FA0D000000E007000000C0A1
:102AF0000F000000C01F000000723E0100003AFC01
:102B00000100000EF001000006E001000002C0011B
:102B100000000200010000020001000000000100AE
:102B200000000000000000000000000000000000A5
:102B30000000000000000000000000000000000095
:102B40000000000000000000000000000000000085
:102B50000000000000000000000000000000000075
:102B60000000000000000000000000000000000065
:102B70000000000000000000000000000000000055
:102B80000000000000000000000000000000000243
:102B9000000100000200010000FEFF010000FEFF36
:102BA000010000FEFF010000FEFF01000002000125
:102BB0000000020001000000000100000000010010
:102BC0000002000100000200010000FEFF01000001
:102BD000FEFF010000FEFF010000FEFF0F000002EB
:102BE000007F000002007F000000007F0000000066
:102BF00000000000000000000000000000000000D5
:102C000000000000000000000000000000000000C4
:102C100000000000000000000000000000000000B4
:102C200000000000000000000000000000000000A4
:102C30000000000000000000000000000000000094
:102C40000000000000000000000000000000000084
:102C5000000002000000000200000000FE00000072
:102C600000FE03000000FE03000000FE070000005D
:102C7000020700000002060000000006000000003D
:102C80000601000002060100000206010000FEFF2E
:102C9000010000FEFF010000FEFF010000FEFF0139
:102CA000000002000100000200010000000000001E
:102CB0000000000000000000000000000000000014
:102CC0000000000000000000000000000000000004
:102CD00000000000000000000000000000000000F4
:102CE00000000000000000000000000000000000E4
:102CF00000000000000000000000000000000000D4
:102D000000000000000000000000000200010000C0
:102D10000200010000FEFF010000FEFF010000FEB6
:102D2000FF010000FEFF01000002000100000200A0
:102D3000010000000001000002000100000200018B
:102D40000000FEFF010000FEFF010000FEFF010089
:102D500000FEFF010000020001000002000100006F
:102D6000000001000002000100000200010000FE5E
:102D7000FF010000FEFF010000FEFF010000FEFF5A
:102D8000010000020001000002000100000000003C
:102D90000000000000000000000000000000000033
:102DA0000000000000000000000000000000000023
:102DB0000000000000000000000000000000000013
:102DC0000000000000000000000000000000020001
:102DD0000100000200010000FEFF010000FEFF01F3
:102DE0000000FEFF010000FEFF01000002000100E4
:102DF00000020001000000000100000200010000CC
:102E00000200010000FEFF010000FEFF010000FEC5
:102E1000FF010000FEFF01000002000100000200AF
:102E2000010000000001000002000100000200019A
:102E30000000FEFF010000FEFF010000FEFF010098
:102E400000FEFF0F000002007F000002007F000074
:102E500000007F00000000000000000000000000F3
:102E60000000000000000000000000000000000062
:102E70000000000000000000000000000000000052
:102E80000000000000000000000000000000000042
:102E90000000000000000000000000000000000032
:102EA000000000000000000000003E000000003EA6
:102EB000000000003E0000000006000000000200CC
:102EC0000100000200010000FEFF010000FEFF0102
:102ED0000000FEFF010000FEFF01000002010100F2
:102EE00000020101000000010100000003010000D8
:102EF000008701000000FF01000000FE000000004C
:102F0000FE0000000038000000000000000000008B
:102F100000000000000000000000000000000000B1
:102F200000000000000000000000000000000000A1
:102F30000000000000000000000000000000000091
:102F40000000000000000000000000000000000081
:102F50000000000000000000000000000000000071
:102F6000000000000000000002000100000200015B
:102F70000000FEFF010000FEFF010000FEFF010057
:102F800000FEFF010000020101000002010100003B
:102F900000010100000003010000008701000000A3
:102FA000FF01000000FE00000000FE0000000038ED
:102FB00000000002000100000200010000FEFF010D
:102FC0000000FEFF010000FEFF010000FEFF010007
:102FD00000020001000002000100000000000000EB
:102FE00000000000000000000000000000000000E1
:102FF00000000000000000000000000000000000D1
:1030000000000000000000000000000000000000C0
:1030100000000000000000000000000000000000B0
:1030200000000000000000000000000000000000A0
:103030000000000000000000000000000000000090
:10304000000000000000000000020001000002007B
:10305000010000FEFF010000FEFF010000FEFF0175
:103060000000FEFF0100000201010000020101005A
:1030700000000101000000030100000087010000C2
:1030800000FF01000000FE00000000FE0000000044
:1030900038000000000000000000000000000000F8
:1030A0000000000000000000000000000000000020
:1030B0000000000000000000000000000000000010
:1030C0000000000000000000000000000000000000
:1030D00000000000000000000000000000000000F0
:1030E00000000000000000000000000000000000E0
:1030F00000000000000000000000000000000000D0
:103100000000000000000000000000003CF0000093
:10311000003EF00100003EF00100000EC101000081
:103120000201010000020101000002010100000291
:1031300001010000060101000006810100000EC12E
:103140000000003CF1000000FC7F000000F87F0060
:103150000000F01F000000C00F0000000000000091
:10316000000000000000000000000000000000005F
:10317000000000000000000000000000000000004F
:10318000000000000000000000000000000000003F
:10319000000000000000000000000000000000002F
:1031A000000000000000000000000000000000001F
:1031B000000000000000000000000002000100000C
:1031C0000200010000FEFF010000FEFF010000FE02
:1031D000FF010000FEFF01000002010100000201EA
:1031E000010000C00F000000F03F000000F87F0069
:1031F0000000FCFF0000001CF00000000EC00100F9
:1032000000068001000002800100000200010000B1
:103210000200010000020001000006800100000E13
:10322000800100003CE0000000FCFF000000F87F8F
:10323000000000F03F000000C00F00000000000090
:10324000000000000000000000000000000000007E
:10325000000000000000000000000000000000006E
:10326000000000000000000000000000000000005E
:10327000000000000000000000000000000000004E
:10328000000000000000000000000000000000003E
:10329000000000000100000000010000000001002B
:1032A00000F8C0010000FCF1010000FCF901000081
:1032B000FEFF000000063F000000020F00000002B9
:1032C000060100000202010000FEFF010000FEFFF7
:1032D000010000FEFF010000FEFF010000020001EE
:1032E00000000200010000000000000000000000DB
:1032F00000000000000000000000000000000000CE
:1033000000000000000000000000000000000000BD
:1033100000000000000000000000000000000000AD
:10332000000000000000000000000000000000009D
:10333000000000000000000000000000000000008D
:10334000000000000000000000000000000000007D
:10335000000000000000000000000000000000006D
:10336000000000000000000000000000000000005D
:10337000000000000000000000000000000000004D
:10338000000000000000000000000000000000003D
:10339000000000000000000000000000000000002D
:1033A000000000000000000000000000000000001D
:1033B000000000000000000000000000000000000D
:1033C00000000000000000000000000000000000FD
:1033D00000000000000000000000807F000780FF68
:1033E0003F0780FF3F07807F0007000000000000CC
:1033F00000000000000000000000000000000000CD
:1034000000000000000000000000000000000000BC
:1034100000000000000000000000000000000000AC
:10342000000000000000000000000000000000009C
:10343000000000000000000000000000000000008C
:10344000000000000000000000000000000000007C
:10345000000000000000803F0000803F000080036B
:103460000000803F0000803F00008003000000005B
:10347000000000000000000000000000000000004C
:10348000000000000000000000000000000000003C
:10349000000000000000000000000000000000002C
:1034A000000000000000000000000000000000001C
:1034B000000000000000000000000000000000000C
:1034C000000000000000000020000040200000403C
:1034D00020070040FC0700F0FF0000FE2300004E24
:1034E000200000402000004020070040FC0700F0C2
:1034F000FF0000FE2300004E20000040200000409E
:10350000200000400000000000000000000000005B
:1035100000000000000000000000000000000000AB
:10352000000000000000000000000000000000009B
:10353000000000000000000000000000000000008B
:103540000000000000000000000000000000007803
:10355000C00300FCC00700FE010600FE030400C318
:103560000304C0FFFF1FC0FFFF1F00011E06000372
:10357000FE03001FFC03001EFC010000F000000021
:10358000000000000000000000000000000000003B
:10359000000000000000000000000000000000002B
:1035A000000000000000000000000000000000001B
:1035B00000000000000000FC000000FE030000FF0F
:1035C00003008003070080010600800004008001E2
:1035D00004068003870700FFE30100FF790000FC79
:1035E0001E000080070000E0FD000078FE03001EC2
:1035F000FF038087030780810106008000040080AC
:103600000104008003070000FF030000FF01000029
:10361000FC000000000000000000000000000000AE
:10362000000000000000000000000000000000009A
:10363000000000000000000000000000000000008A
:10364000000000000000000000000000000000007A
:10365000000000000000000000000000000000006A
:10366000000000000000000000000000000000005A
:10367000000000000000000000000000000000004A
:10368000000000000000000000000000000000003A
:10369000000000000000000000000000000000002A
:1036A000000000000000000000000000000000001A
:1036B000000000000000000000000000000000000A
:1036C00000000000000000000000000000000000FA
:1036D0000000000000000000000000000000803F2B
:1036E0000000803F00008003000000000000000098
:1036F00000000000000000000000000000000000CA
:1037000000000000000000000000000000000000B9
:1037100000000000000000000000000000000000A9
:103720000000000000000000000000000000000099
:103730000000000000000000000000000000000089
:103740000000000000000000000000000000000079
:10375000000000000000000000000080FF0000F0FA
:10376000FF0700FCFF1F007E003F000F0078800372
:1037700000E0C000008040000000000000000000E9
:103780000000000000000000000000000000000039
:103790000000000000000000000000000000000029
:1037A0000000000000000000000000000000000019
:1037B0000000000000000000000000000000000009
:1037C00000000000000000000000000000000000F9
:1037D000000040000000C0000080800300E0000FF7
:1037E0000078007E003F00FCFF1F00F0FF07008014
:1037F000FF000000000000000000000000000000CA
:1038000000000000000000000000000000000000B8
:1038100000000000000000000000000000000000A8
:103820000000000000000000000000000000000098
:103830000000000000000000000000000000000088
:103840000000000000000000000000000000000078
:1038500000000000000000220000003600000036DA
:10386000000080FF000080FF000080FF00000036A5
:1038700000000036000000220000000000000000F0
:103880000000000000000000000000000000000038
:103890000000000000000000000000000000000028
:1038A0000000000000000000000000000000000018
:1038B0000000000000000000000000000000000008
:1038C00000000000000000000000000010000000E8
:1038D00010000000100000001000000010000000A8
:1038E000100000C0FF0700C0FF070000100000002C
:1038F0001000000010000000100000001000000088
:1039000010000000000000000000000000000000A7
:1039100000000000000000000000000000000000A7
:103920000000000000000000000000000000000097
:103930000000000000000000000000000000000087
:103940000000000000000000000000000000000077
:103950000000000000000000000000000043000024
:1039600000670000003F0000003F0000001E000054
:103970000000000000000000000000000000000047
:103980000000000000000000000000000000000037
:103990000000000000000000000000000000000027
:1039A0000000000000000000000000000000000017
:1039B0000000000000000000000000000000000007
:1039C00000000000000000000000000000000000F7
:1039D000000000000C0000000C0000000C000000C3
:1039E0000C0000000C0000000C0000000C000000A7
:1039F0000C0000000C0000000C00000000000000A3
:103A000000000000000000000000000000000000B6
:103A100000000000000000000000000000000000A6
:103A20000000000000000000000000000000000096
:103A30000000000000000000000000000000000086
:103A40000000000000000000000000000000000076
:103A50000000000000000000000000000000000066
:103A6000000700000007000000070000000700003A
:103A70000000000000000000000000000000000046
:103A80000000000000000000000000000000000036
:103A90000000000000000000000000000000000026
:103AA0000000000000000000000000000000000016
:103AB0000000000000000000000000000000000006
:103AC00000000000000000000000000000000000F6
:103AD0000000000000180000001F0000C0070000E8
:103AE000F80000003F0000E0070000F80000001FA1
:103AF0000000C0070000C00000000000000000003F
:103B000000000000000000000000000000000000B5
:103B100000000000000000000000000000000000A5
:103B20000000000000000000000000000000000095
:103B30000000000000000000000000000000000085
:103B40000000000000000000000000E03F0000FC5A
:103B5000FF0100FEFF0300FFFF038007C007800195
:103B60000006800000048000000480010006800F31
:103B7000800700FFFF0300FFFF0100FEFF0000F0D1
:103B80001F00000000000000000000000000000016
:103B90000000000000000000000000000000000025
:103BA0000000000000000000000000000000000015
:103BB0000000000000000000000000000000000005
:103BC00000000000000000000000000000000000F5
:103BD00000000002000000020004000300040003D3
:103BE000000480FFFF0780FFFF0780FFFF0780FFC3
:103BF000FF070000000400000004000000040000B3
:103C000000000000000000000000000000000000B4
:103C100000000000000000000000000000000000A4
:103C20000000000000000000000000000000000094
:103C30000000000000000000000000000000000084
:103C40000000000000000000000000000006000F5F
:103C50000007800F80078001C0078000E007800018
:103C600070078000380780011E0780830F0780FFE0
:103C7000070700FF030700FF0007003C00070000E4
:103C8000000700000000000000000000000000002D
:103C90000000000000000000000000000000000024
:103CA0000000000000000000000000000000000014
:103CB0000000000000000000000000000000000004
:103CC000000000000000000000000000C003000F22
:103CD000C007800F000680010004800001048000FE
:103CE0000104800001048081010480C1030680FF7B
:103CF0000703007FFF03003FFE01001EFE010000DE
:103D0000780000000000000000000000000000003B
:103D100000000000000000000000000000000000A3
:103D20000000000000000000000000000000000093
:103D30000000000000000000000000000000000083
:103D40000000000000000000000000003000000043
:103D5000380000003E000000370000C0310000F0D5
:103D600030040038300400FEFF0780FFFF0780FFAB
:103D7000FF0780FFFF070000300400003004000050
:103D80003000000000000000000000000000000003
:103D90000000000000000000000000000000000023
:103DA0000000000000000000000000000000000013
:103DB0000000000000000000000000000000000003
:103DC000000000000000000000000000000280FF72
:103DD000010680FF010680FF010480C3010480C347
:103DE000010480C3010680C3030680C307038083E8
:103DF000FF038083FF018003FF0000007E000000BE
:103E000000000000000000000000000000000000B2
:103E100000000000000000000000000000000000A2
:103E20000000000000000000000000000000000092
:103E30000000000000000000000000000000000082
:103E40000000000000000000000000007F0000C033
:103E5000FF0100F0FF0300F8FF0300FC830700BE32
:103E60000106008F010400870104008303048081A0
:103E700007078081FF038000FF038000FE01000030
:103E80007C000000000000000000000000000000B6
:103E90000000000000000000000000000000000022
:103EA0000000000000000000000000000000000012
:103EB0000000000000000000000000000000000002
:103EC00000000000000000000000800F0000800FD4
:103ED000000080030004800300078003C007800304
:103EE000F0078003FC0380037F0080C31F0080E392
:103EF000070080FB0000803F000080070000800179
:103F000000000000000000000000000000000000B1
:103F100000000000000000000000000000000000A1
:103F20000000000000000000000000000000000091
:103F30000000000000000000000000000000000081
:103F4000000000000000000000000000F000003C45
:103F5000F801007FFC0300FFFE0780FF0F0780E1F0
:103F6000030680C003048080070480C1070480FF2B
:103F70000F07007FFE03003FFE03001EFC01000050
:103F8000F800000000000000000000000000000039
:103F90000000000000000000000000000000000021
:103FA0000000000000000000000000000000000011
:103FB0000000000000000000000000000000000001
:103FC0000000000000000000000000F8000000FEFB
:103FD000010000FF030400FF070480830706800040
:103FE0000706800006038000C6038001F6018007F3
:103FF000FF0000FFFF0000FF3F0000FE1F0000F871
:1040000003000000000000000000000000000000AD
:1040100000000000000000000000000000000000A0
:104020000000000000000000000000000000000090
:104030000000000000000000000000000000000080
:104040000000000000000000000000000000000070
:10405000000000000000000000000000000000C0A0
:10406000010700C0010700C0010700C001070000F0
:104070000000000000000000000000000000000040
:104080000000000000000000000000000000000030
:104090000000000000000000000000000000000020
:1040A0000000000000000000000000000000000010
:1040B0000000000000000000000000000000000000
:1040C00000000000000000000000000000000000F0
:1040D000000000000000000000000000000000C020
:1040E000014300C0016700C0013F00C0013F000064
:1040F000001E0000000000000000000000000000A2
:1041000000000000000000000000000000000000AF
:10411000000000000000000000000000000000009F
:10412000000000000000000000000000000000008F
:10413000000000000000000000000000000000007F
:10414000000000000000000000000000000000006F
:1041500018000000180000003C00000024000000CF
:104160006600000042000000C300000081000080E3
:1041700081010080000100C0000300400002000037
:10418000000000000000000000000000000000002F
:10419000000000000000000000000000000000001F
:1041A000000000000000000000000000000000000F
:1041B00000000000000000000000000000000000FF
:1041C00000000000000000000000000044000000AB
:1041D00044000000440000004400000044000000CF
:1041E00044000000440000004400000044000000BF
:1041F00044000000440000004400000044000000AF
:10420000440000000000000000000000000000006A
:10421000000000000000000000000000000000009E
:10422000000000000000000000000000000000008E
:10423000000000000000000000000000000000007E
:10424000000000000000000000000000000000402E
:10425000000200C000030080000100808101000016
:1042600081000000C3000000420000006600000062
:10427000240000003C0000001800000018000000AE
:10428000000000000000000000000000000000002E
:10429000000000000000000000000000000000001E
:1042A000000000000000000000000000000000000E
:1042B00000000000000000000000000000000000FE
:1042C00000000000000000000000000000000000EE
:1042D0000000000700008007000080000007800049
:1042E0003C0780803F0780E1070780FF010080FFD7
:1042F0000000007F0000001E000000000000000021
:1043000000000000000000000000000000000000AD
:10431000000000000000000000000000000000009D
:10432000000000000000000000000000000000008D
:104330000000000000000000FC010000FF0F00C0B2
:10434000FF1F00E0FF3F00F0037E007800F0003820
:10435000F0E1000CFEC3000CFF870086FF8700869B
:10436000070700C20007004280030042F00300C2BA
:10437000FF0700C2FF0700C6FF8700C40784000CC8
:104380000086001C00030078C00300F0FF0100E07D
:104390007F0000803F0000000000000000000000DF
:1043A000000000000000000000000000000000000D
:1043B00000000000000000000000000000040000F9
:1043C000000400000006000080070000E005000077
:1043D0007C0400001F0400C00B0000F80800003E31
:1043E0000800801F0800807F080000FF0B0000FC11
:1043F0000F0400E07F040080FF050000FC070000C0
:10440000F007000080070000000600000004000024
:104410000004000000000000000000000000000098
:10442000000000000000000000000000000000008C
:10443000000000000000000000000000000000007C
:1044400000000000000080000004800000048000E4
:10445000000480FFFF0780FFFF0780FFFF0780FF4A
:10446000FF0780000104800001048081010480C3F3
:10447000030680FF070700FFFE03007FFE03003EE8
:10448000FC010000F8000000000000000000000037
:10449000000000000000000000000000000000001C
:1044A000000000000000000000000000000000000C
:1044B00000000000000000000000000000000000FC
:1044C000000000C00F0000F03F0000F8FF0000FCFB
:1044D000FF01001EF0010007C0030003800300017C
:1044E00000078001000680000006800000048000B4
:1044F00000048000000480000004800000048001AB
:104500000006800FC007800FC007000000000000F9
:10451000000000000000000000000000000000009B
:10452000000000000000000000000000000000008B
:1045300000000000000000000000000000008000FB
:104540000004800000048000000480FFFF0780FF5B
:10455000FF0780FFFF0780FFFF0780000004800047
:104560000004800000048000000480010004800139
:1045700000060003000200070003001FC00300FE46
:10458000FF0100FCFF0000F87F0000E01F000000BA
:10459000000000000000000000000000000000001B
:1045A000000000000000000000000000000000000B
:1045B00000000000000000000000000000000000FB
:1045C0000000000000008000000480000004800063
:1045D000000480FFFF0780FFFF0780FFFF0780FFC9
:1045E000FF0780000104800001048000010480E0D6
:1045F0000F0480E00F048000000480010006800F9B
:10460000C007800FC007000000000000000000008D
:10461000000000000000000000000000000000009A
:10462000000000000000000000000000000000008A
:10463000000000000000000000000000000000007A
:1046400000000000000080000004800000048000E2
:10465000000480FFFF0780FFFF0780FFFF0780FF48
:10466000FF0780000204800002048000020480C072
:104670001F0080C01F0080000000800F0000800F1E
:10468000000000000000000000000000000000002A
:10469000000000000000000000000000000000001A
:1046A000000000000000000000000000000000000A
:1046B000000000000000000000000000000000C03A
:1046C0000F0000F03F0000F8FF0000FCFF01001E9B
:1046D000F0010007C0030003000300010007800190
:1046E00000068000000480000004800004048000B4
:1046F0000404800004048000FC078001FC07800F94
:10470000FC07800FFC030000040000000400000010
:104710000000000000000000000000000000000099
:104720000000000000000000000000000000000089
:104730000000000000000000000080000004800075
:1047400000048000000480FFFF0780FFFF0780FF58
:10475000FF0780FFFF078000010480000104800044
:10476000010400000100000001008000010480003D
:1047700001048000010480FFFF0780FFFF0780FF26
:10478000FF0780FFFF078000000480000004800016
:104790000004000000000000000000000000000015
:1047A0000000000000000000000000000000000009
:1047B00000000000000000000000000000000000F9
:1047C00000000000000000000000000000000000E9
:1047D000000080000004800000048000000480FFCE
:1047E000FF0780FFFF0780FFFF0780FFFF078000B4
:1047F00000048000000480000004000000000000AD
:1048000000000000000000000000000000000000A8
:104810000000000000000000000000000000000098
:104820000000000000000000000000000000000088
:104830000000000000000000000000000000000078
:104840000000000000000000000000000000000068
:10485000000080000080800000C0800000F080FF29
:10486000FF7F80FFFF3F80FFFF1F80FFFF0780006B
:104870000000800000008000000000000000000038
:104880000000000000000000000000000000000028
:104890000000000000000000000000000000000018
:1048A0000000000000000000000000000000000008
:1048B00000000000000000000000000000000000F8
:1048C000000080000004800000048000000480FFDD
:1048D000FF0780FFFF0780FFFF0780FFFF07808043
:1048E000030480C00F0480E01F0400307E00001C21
:1048F000FC04800EF0078003E00780018007800041
:104900000007800000048000000400000004000094
:104910000000000000000000000000000000000097
:104920000000000000000000000000000000000087
:104930000000000000000000000000000000000077
:1049400000000000000080000004800000048000DF
:10495000000480FFFF0780FFFF0780FFFF0780FF45
:10496000FF078000000480000004800000040000B5
:10497000000400000004000000040000C007000064
:10498000C007000000000000000000000000000060
:104990000000000000000000000000000000000017
:1049A0000000000000000000000000000000000007
:1049B000000080000004800000048000000480FFEC
:1049C000FF0780FFFF07801F000480FF000480FFB7
:1049D000070400FC1F0000E0FF000000FF070000CC
:1049E000F8070000E00300007C0000801F0000E0EA
:1049F0000304007C0004801F000480FFFF0780FF89
:104A0000FF0780FFFF0780FFFF0780000004800092
:104A1000000480000004000000000000000000000E
:104A20000000000000000000000000000000000086
:104A30000000000000000000000080000004800072
:104A400000048000000480FFFF0780FFFF0780074D
:104A50000004801F0004003F0004007C000000F8F8
:104A6000010000F0030000C00F0000801F000000E4
:104A70003F008000FC008000F8018000E00380FF20
:104A8000FF0780FFFF07800000008000000080001B
:104A90000000000000000000000000000000000016
:104AA0000000000000000000000000000000000006
:104AB0000000000000000000000000C00F0000F037
:104AC0007F0000FCFF0000FEFF01001EF001000758
:104AD000C003000300038001000680000006800080
:104AE00000048000000480000004800100048001B4
:104AF000000680030002000F8003003FE00300FE79
:104B0000FF0100FCFF0000F87F0000E00F00000044
:104B10000000000000000000000000000000000095
:104B20000000000000000000000000000000000085
:104B30000000000000000000000000000000000075
:104B400000000000000080000004800000048000DD
:104B5000000480FFFF0780FFFF0780FFFF0780FF43
:104B6000FF0780000204800002048000020480012C
:104B700003008083030080FF010000FF010000FEAE
:104B80000000007C000000000000000000000000A9
:104B90000000000000000000000000000000000015
:104BA0000000000000000000000000000000000005
:104BB0000000000000000000000000C00F0000F036
:104BC0007F0000FCFF0000FEFF01001EF001000757
:104BD000C00300030003800100068000000680007F
:104BE000000480000004800000048001000C8001AB
:104BF000000E8003001E000F803B003FE07B00FEA4
:104C0000FF7100FCFFF000F87FE000E00FE0000023
:104C100000C0000000C0000000C0000000C0000094
:104C200000C0000000400000000000000000000084
:104C30000000000000000000000000000000000074
:104C4000000080000004800000048000000480FF59
:104C5000FF0780FFFF0780FFFF0780FFFF0780003F
:104C600002048000060480000E0480011F0080837F
:104C70007F0000FFFD0100FFF10700FEE007007C60
:104C8000800700000006000000040000000400008F
:104C90000000000000000000000000000000000014
:104CA0000000000000000000000000000000000004
:104CB00000000000000000000000000000000000F4
:104CC00000000000000000000000007CC00700FEA3
:104CD000C00700FF010600FF010480C303048081B8
:104CE0000304808007048000070680000F0780010E
:104CF000FE03800FFE03800FFC010000F80000009F
:104D000000000000000000000000000000000000A3
:104D10000000000000000000000000000000000093
:104D20000000000000000000000000000000000083
:104D30000000000000000000000000000000000073
:104D4000000000000000800F0000800F00008000C5
:104D5000000080000004800000048000000480FF48
:104D6000FF0780FFFF0780FFFF0780FFFF0780002E
:104D70000004800000048000000480000000800F18
:104D80000000800F00000000000000000000000094
:104D90000000000000000000000000000000000013
:104DA0000000000000000000000000000000000003
:104DB00000000000000000000000800000008000F3
:104DC00000008000000080FF7F0080FFFF0180FF67
:104DD000FF0380FFFF038000800780000006800043
:104DE00000060000000400000004000000040000B1
:104DF000000480000006800000028000800380FF25
:104E0000FF0180FF7F008000000080000000800024
:104E10000000000000000000000000000000000092
:104E20000000000000000000000000000000000082
:104E30000000000000000000000080000000800072
:104E400000008001000080070000803F000080FF1C
:104E5000000080FE070080F81F0080C0FF000000F7
:104E6000FF030000F8070000E0070000F001000069
:104E70007C0000800F0080E00300807C0000801F29
:104E8000000080030000800000008000000080001F
:104E90000000000000000000000000000000000012
:104EA0000000000000008000000080000000800181
:104EB000000080070000803F000080FF010080FEAE
:104EC000070080F83F0080C0FF000000FF0780005F
:104ED000F8078000E0078000FC0080071F0080FFCB
:104EE000030080FF000080FF070080F83F0080C0C3
:104EF000FF010000FF070000F8070000E0070000C6
:104F0000FC0000001F0080E0030080FC0000801F08
:104F1000000080030000800000008000000080008E
:104F20000000000000000000000000000000000081
:104F300000000000000000000000000000008000F1
:104F40000004800000048000000680030007800742
:104F50008005801FE004807F700480FC1C0080F8C6
:104F60000F0000E00F0000C01F0000E07F040030D1
:104F7000FC04801CF807800EE00780038007800196
:104F8000000780000004800000040000000400000E
:104F90000000000000000000000000000000000011
:104FA0000000000000000000000000000000000001
:104FB00000000000000000000000800000008000F1
:104FC0000000800000008001000080070000801FBA
:104FD0000000803F000480FE000480F8030400E02D
:104FE000FF0700C0FF070000FF070000FF0700C029
:104FF000030480F00004803C0004800E0000800365
:10500000000080010000800000008000000000001F
:105010000000000000000000000000000000000090
:105020000000000000000000000000000000000080
:105030000000000000000000000000000000000070
:10504000000000000004800F0007800FC0078001EF
:10505000E0078000F8078000FC0480003F048080A7
:105060001F0480E0070480F0030480FC0004807FBC
:105070000004801F0004800F00068003C00780002A
:10508000C007000000000000000000000000000059
:105090000000000000000000000000000000000010
:1050A0000000000000000000000000000000000000
:1050B00000000000000000000000000000000000F0
:1050C00000000000000000000000000000000000E0
:1050D00000000000000000000000C0FFFFFFC0FF54
:1050E000FFFFC0FFFFFF4000000040000000400045
:1050F00000000000000000000000000000000000B0
:10510000000000000000000000000000000000009F
:10511000000000000000000000000000000000008F
:10512000000000000000000000000000000000007F
:10513000000000000000000000000000000000006F
:10514000000000000000000000000000000000005F
:105150000000C0000000C0070000001F000000F8B1
:10516000000000E0070000003F000000F800000021
:10517000C0070000001F0000001800000000000031
:10518000000000000000000000000000000000001F
:10519000000000000000000000000000000000000F
:1051A00000000000000000000000000000000000FF
:1051B00000000000000000000000000000000000EF
:1051C00000000000000000000000000000000000DF
:1051D000000000000000400000004000000040000F
:1051E0000000C0FFFFFFC0FFFFFFC0FFFFFF000088
:1051F00000000000000000000000000000000000AF
:10520000000000000000000000000000000000009E
:10521000000000000000000000000000000000008E
:10522000000000000000000000000000000000007E
:10523000000000000000000000000000000000006E
:10524000000000000000000000000000000000005E
:1052500002000080030000F00100007C0000000F4D
:1052600000008003000080030000000F0000007CAD
:10527000000000F0010000800300000002000000B8
:10528000000000000000000000000000000000001E
:10529000000000000000000000000000000000000E
:1052A00000000000000000000000000000000000FE
:1052B00000000000000000000000000000000000EE
:1052C000000000000000000000400000004000005E
:1052D00000400000004000000040000000400000CE
:1052E00000400000004000000040000000400000BE
:1052F00000400000004000000040000000400000AE
:10530000004000000040000000000000000000001D
:10531000000000000000000000000000000000008D
:10532000000000000000000000000000000000007D
:10533000000000000000000000000000000000006D
:10534000000000000000000000000000000000005D
:1053500000000000000080000000800100008003C9
:10536000000080070000000F0000000C000000009B
:10537000000000000000000000000000000000002D
:10538000000000000000000000000000000000001D
:10539000000000000000000000000000000000000D
:1053A00000000000000000000000000000000000FD
:1053B00000000000000000000000000000000000ED
:1053C00000000000000000000000000000000000DD
:1053D000C0030080E30700C0F30700C0F0070040EF
:1053E00018060040180600C0080300C0FF0700C0F0
:1053F000FF070080FF070000FF0700000004000017
:105400000004000000000000000000000000000098
:10541000000000000000000000000000000000008C
:10542000000000000000000000000000000000007C
:10543000000000000000000000000000000000006C
:105440000000000000008000000080000000C0FF9D
:10545000FF03C0FFFF07C0FFFF07C0FFFF0700807B
:10546000010400C0000400C0000400C0010600C028
:10547000030700C0FF030080FF010000FF000000E1
:105480007E0000000000000000000000000000009E
:10549000000000000000000000000000000000000C
:1054A00000000000000000000000000000000000FC
:1054B00000000000000000000000000000000000EC
:1054C00000000000000000000000000000000000DC
:1054D000FC000000FF010080FF030080FF0700C008
:1054E000C10700C000070040000600400006004061
:1054F000000600C0000200C0030300C0030100005A
:10550000000000000000000000000000000000009B
:10551000000000000000000000000000000000008B
:10552000000000000000000000000000000000007B
:10553000000000000000000000000000000000006B
:10554000000000000000000000000000FC0000005F
:10555000FE010000FF030080FF0700C0810700C0BC
:105560000007004000068040000680400003C0FFA6
:10557000FF07C0FFFF07C0FFFF07C0FFFF070000D6
:105580000004000000040000000000000000000013
:10559000000000000000000000000000000000000B
:1055A00000000000000000000000000000000000FB
:1055B00000000000000000000000000000000000EB
:1055C00000000000000000000000000000000000DB
:1055D000FC000000FF010080FF030080FF0700C007
:1055E0008907004008070040080600C0080600C000
:1055F0000F0600C00F0200800F0300000F01000023
:10560000000000000000000000000000000000009A
:10561000000000000000000000000000000000008A
:10562000000000000000000000000000000000007A
:10563000000000000000000000000000000000006A
:10564000000000000000000000000000000000005A
:10565000000000000000004000040040000400FEC4
:10566000FF0780FFFF0780FFFF07C0FFFF07C04065
:1056700000044040000440400004C0030000C00398
:10568000000000000000000000000000000000001A
:10569000000000000000000000000000000000000A
:1056A00000000000000000000000000000000000FA
:1056B00000000000000000000000000000000000EA
:1056C00000000000000000000000000000C000001A
:1056D0001EE70080BFF70080FFFF00C07F1E00C0F4
:1056E000600E0040400E00C0600E00C07F0E00C083
:1056F0003F1E00C03FFE00400FFE004000FC004087
:105700000078000000000000000000000000000021
:105710000000000000000000000000000000000089
:105720000000000000000000000000000000000079
:105730000000000000000000000000000000000069
:1057400000008000000480000004C0FFFF07C0FFCD
:10575000FF07C0FFFF07C0FFFF070080010400C074
:10576000000400C0000000C0000400C0010400C02C
:10577000FF0700C0FF070080FF070000FF070000D1
:105780000004000000040000000000000000000011
:105790000000000000000000000000000000000009
:1057A00000000000000000000000000000000000F9
:1057B00000000000000000000000000000000000E9
:1057C00000000000000000000000000000000000D9
:1057D000000000000000008000040080000480C37E
:1057E000FF0780C3FF0780C3FF0780C3FF070000D8
:1057F00000040000000400000000000000000000A1
:105800000000000000000000000000000000000098
:105810000000000000000000000000000000000088
:105820000000000000000000000000000000000078
:105830000000000000000000000000000000000068
:105840000000000000000000000000000000000058
:1058500000000000000000800000008000C080C345
:10586000FFFF80C3FFFF80C3FF7F80C3FF1F0000D7
:105870000000000000000000000000000000000028
:105880000000000000000000000000000000000018
:105890000000000000000000000000000000000008
:1058A00000000000000000000000000000000000F8
:1058B00000000000000000000000000000000000E8
:1058C0000000000000008000000480000004C0FF11
:1058D000FF07C0FFFF07C0FFFF07C0FFFF07000073
:1058E0001C0400007C040040FE040040FB0700C0D4
:1058F000E10700C0C007004000070040000600406C
:10590000000400000004000000000000000000008F
:105910000000000000000000000000000000000087
:105920000000000000000000000000000000000077
:105930000000000000000000000000000000000067
:105940000000000000000000000000000000000057
:105950000000000000008000000480000004C0FF80
:10596000FF07C0FFFF07C0FFFF07C0FFFF070000E2
:10597000000400000004000000000000000000001F
:105980000000000000000000000000000000000017
:105990000000000000000000000000000000000007
:1059A00000000000000000000000000000000000F7
:1059B000000000000000008000040080000400C01F
:1059C000FF0700C0FF0700C0FF0700C0FF070080FF
:1059D000010400C0000400C0000400C0010400C0B5
:1059E000FF0700C0FF070080FF070080FF0700805F
:1059F000010400C0000400C0000400C0010400C095
:105A0000FF0700C0FF070080FF070000FF0700003E
:105A1000000400000004000000000000000000007E
:105A20000000000000000000000000000000000076
:105A30000000000000000000000000000000000066
:105A40000000008000040080000400C0FF0700C0C8
:105A5000FF0700C0FF0700C0FF070080010400C06F
:105A6000000400C0000000C0000400C0010400C029
:105A7000FF0700C0FF070080FF070000FF070000CE
:105A8000000400000004000000000000000000000E
:105A90000000000000000000000000000000000006
:105AA00000000000000000000000000000000000F6
:105AB00000000000000000000000000000000000E6
:105AC0000000000000000000000000007C0000005A
:105AD000FF010080FF030080FF0300C0810700C0BA
