S010000052454345495645522E73726563BF
S11300000C94B3140C9426250C9449220C94D0140B
S11300100C94D0140C94D0140C94D0140C94562139
S11300200C94D0140C94D0140C947B210C94D01404
S11300300C94D0140C94D0140C94D0140C94D014AC
S11300400C94D0140C94D0140C94D0140C94D0149C
S11300500C94D014B122C922E122F92211232923BC
S11300604123000000000000000000000000000028
S1130070000000000000000000000000000000007C
S1130080000000000000000000000000000000006C
S11300900000000000F00000000000F80100000073
S11300A000F80100000000F80100000000F8010061
S11300B0000000F80100000000F80100000000F852
S11300C00100000000F80100000000F80100000039
S11300D000F80100000000F80100000000F8010031
S11300E0000000F80100000000F80100000000F02A
S11300F000000000000000000000000000000000FC
S113010000000000000000000000000000000000EB
S113011000000000000000000000000000000000DB
S113012000000000000000000000000000000000CB
S113013000000000000000000000000000000000BB
S113014000000000000000000000000000000000AB
S1130150000000000000000000000000000000009B
S11301600000000000000000C00300000000E007E1
S113017000000000F00F00000000F00F000000007D
S1130180F00F00000000F00F00000000E007000086
S11301900000C00300000000000000000000000098
S11301A0000000000000000000000000000000004B
S11301B0000000000000000000000000000000003B
S11301C0000000000000000000000000000000002B
S11301D0000000000000000000000000000000001B
S11301E0000000000000000000000000000000000B
S11301F000000000000000000000000000000000FB
S113020000000000000000000000000000000000EA
S11302100000000000000000000000008007000053
S11302200000F80F00000080FF0F000000FCFF0F2B
S11302300000C0FFFF070000FCFFFF0000C0FFFF3D
S11302400F0000FCFFFF000080FFFF0F0000C0FF55
S11302507F000000C0FF07000000C07F0000000016
S11302608007000000000000000000000000000003
S1130270000000000000000000000000000000007A
S1130280000000000000000000000000000000006A
S1130290000000000000000000000000000000005A
S11302A0000000000000000000000000000000004A
S11302B0000000000000FCFF000000C0FFFF0F0072
S11302C000F0FFFF3F0000FCFFFF7F0000FEFFFF88
S11302D0FF0000FFFFFFFF0100FFFFFFFF0380FFA0
S11302E00300FF07803F0000F007C00F0000C007B5
S11302F0C00F0000C00FC0070000800FC00700003F
S1130300800FC0070000800FC0070000800FC00FDF
S11303100000C00FC00F0000C00F803F0000F007B6
S113032080FF0100FF0700FFFFFFFF0300FEFFFF48
S1130330FF0100FEFFFFFF0100F8FFFFFF0000F0D8
S1130340FFFF3F0000C0FFFF0F000000FCFF0000A4
S11303500000000000000000000000000000000099
S11303600000000000000000000000000000000089
S11303700000000000000C00000000001E0000004F
S113038000003F00000000003F00000000803F002C
S1130390000000801F00000000C01F00000000C01B
S11303A00F00000000E00F00000000F00700000054
S11303B000F80300000000FC0100000000FEFFFF45
S11303C0FF0300FFFFFFFF07C0FFFFFFFF0FC0FF9A
S11303D0FFFFFF0FC0FFFFFFFF0FC0FFFFFFFF077F
S11303E000FFFFFFFF03000000000000000000000A
S11303F000000000000000000000000000000000F9
S113040000000000000000000000000000000000E8
S113041000000000000000000000000000000000D8
S113042000000000000000000000000000000000C8
S11304300000000000800300800300F00700E007D4
S113044000F80F00F00F00FE0F00FC0F00FE0F007D
S1130450FE0F00FF0700FF0F80FF0180FF0F807F6A
S11304600080FF0F801F00C0FF0FC00F00E0DF0FF0
S1130470C00F00F0CF0FC00700F8C70FC00700FC83
S1130480C30FC00700FEC10FC00700FEC00FC007A6
S1130490007FC00FC00F807FC00FC01FE03FC00FA0
S11304A0803FF81FC00F80FFFF0FC00F80FFFF07C2
S11304B0C00F00FFFF03C00F00FEFF01C00F00FCD0
S11304C0FF00C00F00F83F00C00F00C00F008007FE
S11304D00000000000030000000000000000000015
S11304E00000000000000000000000000000000008
S11304F000000000000000001F0000F001807F00E9
S113050000FC0380FF0000FE0180FF0100FF01806A
S1130510FF0300FF0100FE0380FF0000F807803F97
S1130520C001F007800FE003C007C00FE003C00F55
S1130530C007E003800FC007E003800FC007E0039B
S1130540800FC007E003800FC007F003800FC00FC7
S1130550F003C00FC01FF807C00F80FFFF0FE007B4
S113056080FFFF1FF80780FFFFFFFF0300FFFFFF6F
S1130570FF0300FE3FFFFF0100FC0FFEFF0000F041
S113058007FC7F00000000F83F00000000E00700C7
S11305900000000000000000000000000000000057
S11305A00000000000C00300000000E0070000009D
S11305B000F00F00000000FC0F00000000FE0F0020
S11305C0000000FF0F000000C0FF0F000000E0DF8C
S11305D00F000000F0CF0F000000FCC30F0000006C
S11305E0FEC10F000000FFC00F0000C03FC00F009D
S11305F000E01FC00F0000F00FC00F0000FC03C09C
S11306000F0000FE01C00F0000FF00C00F0080FFBC
S1130610FFFFFF03C0FFFFFFFF07C0FFFFFFFF0F48
S1130620C0FFFFFFFF0FC0FFFFFFFF0F80FFFFFFB3
S1130630FF0F00FFFFFFFF07000000C00F000000D6
S113064000C00F00000000C00F00000000C00F0039
S1130650000000800700000000000200000000000D
S11306600000000000000000000000000000000086
S113067000000400000000033E000000FC07FF002F
S113068000F0FF0FFF0100FFFF0FFF0380FFFF0FCC
S1130690FE03C0FFFF07FC07C0FFFF03F007C0FF16
S11306A0EF03E007C03FF001C00FC00FF000C00F20
S11306B0C00FF000800FC00FF800800FC00FF800CB
S11306C0800FC00FF800800FC00FF800800FC00F1C
S11306D0F801C00FC00FF801C007C00FF803F007FE
S11306E0C00FF00FF807C00FF0FFFF03C00FE0FFCB
S11306F0FF03C00FE0FFFF01C00FC0FFFF00C00FEA
S113070080FF7F00800700FE1F00000000F8070044
S113071000000000000000000000000000000000D5
S113072000000000000000000000000000000000C5
S1130730F0FF00000000FFFF070000E0FFFF1F00C4
S113074000F0FFFF7F0000FCFFFFFF0000FEFFFF43
S1130750FF0100FEFFFFFF0300FF9FFFFF0380FF79
S1130760C00FFC07803FE003F007801FF001E00F9B
S1130770C00FF001C00FC00FF000800FC007F800D9
S1130780800FC007F800800FC007F800800FC00773
S1130790F800800FC00FF801C00FC00FF801C00FA0
S11307A0801FF803E007807FF00FF80780FFF0FF59
S11307B0FF0300FFE0FFFF0300FEE0FFFF0100FC7A
S11307C0C0FFFF0000F800FF7F00000000FE1F00D4
S11307D0000000F00700000000000000000000001E
S11307E00000000000000000000000000000000005
S11307F0000000000000000000008007000000006E
S1130800C00700000000C00F00000000C00F00007F
S11308100000C00F00000000C00F00000000C00F67
S11308200000FC07C00F0080FF0FC00F00F0FF0F97
S1130830C00F00FCFF0FC00F00FFFF0FC00FC0FF71
S1130840FF07C00FF0FFFF03C00FFCFF3F00C00F06
S1130850FEFF0000C08FFF0F0000C0CFFF010000AB
S1130860C0EF7F000000C0FF1F000000C0FF0700B2
S11308700000C0FF03000000C0FF00000000C07FB4
S113088000000000C03F00000000800F00000000D6
S113089080070000000000000000000000000000CD
S11308A00000000000000000000000000000000044
S11308B000E00F0000C003F83F0000F80FFCFF0049
S11308C000FC1FFEFF0100FE3FFFFF0300FF7FFF50
S11308D0FF0300FFFFFFFF0780FFFF3FF807803F94
S11308E0F80FE007C00FF007C00FC00FF007C00FEC
S11308F0C007E003800FC007E003800FC007E003D8
S1130900800FC007E003800FC007E003800FC00F13
S1130910F007C00FC01FF007C00F803FFC0FE007B7
S113092080FFFF3FF80700FFFFFFFF0700FF7FFF87
S1130930FF0300FE3FFFFF0300FC1FFEFF0100F862
S11309400FFCFF0000C001F83F00000000E00F00B2
S11309500000000000000000000000000000000093
S11309600000000000000000000000000000008003
S11309707F00000000E0FF01100000F8FF077C008A
S113098000FCFF0FFC0100FEFF1FFC0300FFFF1F24
S1130990FC0300FFFF3FFC07807FC03FF007801F80
S11309A0007FE00FC00F007EC00FC00F007E800FDD
S11309B0C007007C800FC007007C800FC007007C4C
S11309C0800FC007007C800FC00F003EC00FC01F07
S11309D0003EE007803F001FF00780FFC00FFC07C8
S11309E080FFFFF7FF0300FFFFFFFF0300FEFFFF91
S11309F0FF0100FCFFFFFF0000F8FFFF3F0000F0D5
S1130A00FFFF1F000080FFFF03000000FC3F000009
S1130A1000000000000000000000000000000000D2
S1130A2000000000000000000000000000000000C2
S1130A3000000000000000000000000000000000B2
S1130A4000000000000000000000000000000000A2
S1130A500000000000000000000000000000000092
S1130A600000000000000000000000000000000082
S1130A700000000000000000000000000000000072
S1130A80000000000000F8FFCF01F8FFCF01F8FFDD
S1130A90CF01000000000000000000000000000082
S1130AA00000000000000000000000000000000042
S1130AB00000000000000000000000000000000032
S1130AC00000F8070000F8070000F8070000F80726
S1130AD00000000000000000000000000000F80713
S1130AE00000F8070000F8070000F8070000000005
S1130AF000000000000000000000000000000000F2
S1130B000C00000C0C00000C0C00000CCC0100CC00
S1130B10FF0180FF7F00E07F0C00E00C0C00000C64
S1130B200C00000CCC0100CCFF0180FF7F00E07FB3
S1130B300C00E00C0C00000C0C00000C0C00000C71
S1130B4000000000000000000000001E8001803F43
S1130B508001C07F0003C0710003E0E0003F60E05B
S1130B60F83F60F0FF07F0FF3F03FEFF01037E80C4
S1130B7083036080C7016000FF01C000FE00000025
S1130B807C00000000000000000000000000C00322
S1130B900000F00F0008F81F000E3C3C80071C38D2
S1130BA0E0013C3C7800F81F1E00F08F0700C0E312
S1130BB0F1000078FC03001EFE0780070F0FE00120
S1130BC0070E78000F0F1C00FE070400FC01000054
S1130BD0F0000000000000007C000000FF00C0875F
S1130BE0FF01E0DFC301F0FF810338FC000318F0CC
S1130BF0010318F0030318B80703383C0F03F01F70
S1130C009E01F00FFC01C003F0000000FF01008012
S1130C10FF03000087030000000300000000000041
S1130C2000000000000000000000000000000000C0
S1130C30000000000000F8070000F8070000F807B3
S1130C400000F807000000000000000000000000A1
S1130C500000000000000000000000000000000090
S1130C600000000000000000000000000000000080
S1130C7000000000000000E01F0000FCFF0100FF76
S1130C80FF07801FE01FE003003FF000007C7800B6
S1130C9000F81C0000E00C0000C00400008000000C
S1130CA00000000000000000000000000000000040
S1130CB0000000000000040000800C0000C01C00C4
S1130CC000E0780000F0F000007CE003003FC01F6B
S1130CD0E00F00FFFF0700FCFF0100E01F00000021
S1130CE00000000000000000000000000000000000
S1130CF000000000000000000000000000004010A0
S1130D000000E0380000C0180000800D0000800FD3
S1130D100000F8FF0100F8FF0100800F0000800DC3
S1130D200000C0180000E03800004010000000007F
S1130D3000000000000000000000000000000000AF
S1130D400000000003000000030000000300000096
S1130D500300000003000000030000FEFF0100FE8A
S1130D60FF01000003000000030000000300000076
S1130D700300000003000000030000000000000066
S1130D80000000000000000000000000000000005F
S1130D900000000000C0000000C0000000C000000F
S1130DA0C0600000E07B0000E03F0000E01F0000A6
S1130DB0800F0000000000000000000000000000A0
S1130DC0000000000000000000000000000000001F
S1130DD00000000000000000000000000600000009
S1130DE006000000060000000600000006000000E7
S1130DF006000000060000000600000006000000D7
S1130E0006000000000000000000000000000000D8
S1130E1000000000000000000000000000000000CE
S1130E20000000000000000000000000C0010000FD
S1130E30E0030000E0030000E0030000C001000044
S1130E40000000000000000000000000000000009E
S1130E50000000000000000000000000000000008E
S1130E600000000000300000003C0000000F000003
S1130E70C0030000F00000003C0000000F0000C0B0
S1130E80030000F00000003C0000000F0000C0035D
S1130E900000F00000003C0000000C000000000016
S1130EA000000000000000F80F0000FE7F0080FF3B
S1130EB0FF00C007FC01C001C601E000830360809D
S1130EC0030360C0010360E00003E0608003C031FD
S1130ED0C001C01FF00180FFFF0000FF3F0000F8C9
S1130EE00F000000000000000000000000000000EF
S1130EF00000000200000007000380030003C0019B
S1130F000003E000000360000003E0FFFF03E0FFD4
S1130F10FF03E0FFFF0300000003000000030000E4
S1130F2000030000000300000003000000000000B4
S1130F300000000000000000000080000003C00169
S1130F408003C000C003E000E0036000F803600019
S1130F507C0360003E0360001F03E0800703C0C100
S1130F600303C0FF010380FF0003003E00030000F1
S1130F70000300000000000000000000000000006A
S1130F8000000000000000000003C0000003600037
S1130F90000360C0000360C0000360C0000360C0C1
S1130FA0000360E08003E0F08101C0BFC301C0BF63
S1130FB0FF00000F7F0000003E0000000000000062
S1130FC000000000000000001C0000001E00008063
S1130FD01F0000E01B0000F01800007C1800001E39
S1130FE01800800F1800C0031800E0001800E0FF8C
S1130FF0FF03E0FFFF03E0FFFF0300001800000011
S11310001800000018000000180000000000000094
S1131010000000000000E07F0003E07F0003E07FA9
S113102000036060000360600003606000036060B0
S113103000036060800360E0800160C0E10160C083
S1131040FF0060807F0000001F000000000000001F
S11310500000000000000000000000F01F0000FC81
S11310607F0000FFFF0080C7E00180638003C06150
S11310700003C06000036060000360600003606000
S1131080000360E0800160C0C10160C0FF00008017
S11310907F0000003F00000000000000000000008E
S11310A000006000000060000000600000026000BA
S11310B080036000E0036000F80360007E0060804D
S11310C01F0060E0070060FC0100607F0000E00F8B
S11310D00000E0030000E000000000000000000049
S11310E000000000000000000000000F7C00801FD2
S11310F0FE00C03FFF01C0F0870160E0830360E0B1
S1131100010360C0000360C0000360E0010360E00D
S11311108303E0F08701C03FFF01C01FFE00000F02
S11311207C0000000000000000000000000000003F
S11311300000007E000000FF000380FF0103C0C127
S11311400103C08003036000030360000303600025
S11311508301600083016000C301E000E300C083F9
S1131160F90080FF7F0000FF1F0000FC0700000063
S1131170000000000000000000000000000000006B
S11311800000000000000000000000000000003823
S1131190C001007CE003007CE003007CE003003835
S11311A0C00100000000000000000000000000007A
S11311B0000000000000000000000000000000002B
S11311C000000000000000000000000000C000005B
S11311D000C0000000C00038C060007CE07B007CE0
S11311E0E03F007CE01F0038800F0000000000009A
S11311F000000000000000000000000000000000EB
S113120000000000000000000000000000000000DA
S113121003000080070000C00F0000E01F0000E092
S11312201C000070380000387000001CE000001E34
S1131230E001000EC001000780030002000100006D
S1131240000000000000000000000000000000009A
S1131250000000C0180000C0180000C0180000C042
S1131260180000C0180000C0180000C0180000C01A
S1131270180000C0180000C0180000C0180000C00A
S1131280180000C0180000C0180000000000000092
S11312900000000000000000000000000000000248
S11312A0000100078003000EC001001EE001001CC5
S11312B0E000003870000070380000E01C0000E01E
S11312C01F0000C00F0000800700000003000000A2
S11312D0000000000000000000000000000000000A
S11312E000000000000000000000000000001800E2
S11312F000001800800118E0CF0318E0CF0330E0AD
S11313008F0170600000F0700000E03F0000C03FFB
S11313100000000F000000000000000000000000BA
S1131320000000F8FF0100FEFF07801F001FE0011E
S1131330003C70C01F7838F07F700CFC7F600E3C5E
S11313406060060E606006063C6006FE3F6006FEB6
S11313507F600C3E60301C006038F8003818F0FFE5
S11313601F0080FF03000000000000008003000055
S1131370F0030000FE0300C07F0000F81F0000FF20
S11313801800E01F1800E0031800E0001800E00354
S11313901800E01F180000FF190000F81F0000C02B
S11313A07F000000FE030000F00300008003000043
S11313B00000000000000000000000000000E0FF4A
S11313C0FF03E0FFFF03E0FFFF0360C0000360C012
S11313D0000360C0000360C0000360C00003E0E0DD
S11313E00003E0F08101C0BFC301C0BFFF00000FD4
S11313F0FF0000003E00000000000000000000F0BC
S11314000F0000FE3F0000FF7F00800FF800C003C4
S1131410C001C0018001E00080036000000360009F
S1131420000360000003600000036000000360002C
S1131430000360008001C000800100000000000083
S113144000000000000000000000E0FFFF03E0FFD8
S1131450FF03E0FFFF03600000036000000360007F
S113146000036000000360000003E0008001C0008E
S11314708001C001C0018007F80080FF7F0000FEEA
S11314803F0000F80700000000000000000000001A
S1131490000000000000E0FFFF03E0FFFF03E0FFA7
S11314A0FF0360C0000360C0000360C0000360C0AD
S11314B0000360C0000360C0000360C0000360C09C
S11314C0000360C0000300000000000000000000F2
S11314D00000000000000000000000000000E0FF29
S11314E0FF03E0FFFF03E0FFFF0360800100608073
S11314F00100608001006080010060800100608064
S11315000100608001006080010060800100000033
S1131510000000000000000000000000000000F0D7
S11315200F0000FC3F0000FF7F00800FF000C003AD
S1131530C001C0018001E0008003600000036080FE
S11315400103608001036080010360800103608007
S1131550FF036080FF01C080FF0100000000000065
S113156000000000000000000000E0FFFF03E0FFB7
S1131570FF03E0FFFF0300C0000000C0000000C044
S1131580000000C0000000C0000000C0000000C057
S1131590000000C00000E0FFFF03E0FFFF03E0FFE6
S11315A0FF03000000000000000000000000000035
S11315B00000000000006000000360000003600001
S11315C000036000000360000003E0FFFF03E0FF8E
S11315D0FF03E0FFFF0360000003600000036000FE
S11315E0000360000003600000030000000000002E
S11315F00000000000000000000000000000600087
S1131600C00060008001600000036000000360000F
S1131610000360000003600080036000C001E0FF7D
S1131620FF01E0FFFF00E0FF3F00000000000000BA
S113163000000000000000000000000000000000A6
S1131640000000000000E0FFFF03E0FFFF03E0FFF5
S1131650FF030080000000E0030000F00700003CEE
S11316601F00001E3C00800FF800C003F001E001E1
S1131670C003E0008003200000030000000000001D
S11316800000000000000000000000000000000056
S11316900000E0FFFF03E0FFFF03E0FFFF030000A3
S11316A0000300000003000000030000000300002A
S11316B0000300000003000000030000000300001A
S11316C00003000000000000000000000000E0FF34
S11316D0FF03E0FFFF03E0FFFF03E0010000E0077A
S11316E00000800F0000003E00000078000000F0C1
S11316F0000000780000003E0000800F0000E007BA
S11317000000E0010000E0FFFF03E0FFFF03E0FF53
S1131710FF030000000000000000E0FFFF03E0FF03
S1131720FF03E0FFFF03E0030000800F0000007EE2
S1131730000000F8010000C00F0000003F0000009E
S1131740F8000000E003E0FFFF03E0FFFF03E0FF19
S1131750FF0300000000000000000000000000F88B
S11317600F0000FE7F0080FFFF008007F001C00132
S1131770C001E0008003600000036000000360001B
S1131780000360000003E0008003C001C001C00743
S1131790F00080FFFF0000FF3F0000F80F00000092
S11317A00000000000000000000000000000E0FF56
S11317B0FF03E0FFFF03E0FFFF036000030060009E
S11317C00300600003006000030060000300600089
S11317D00300E0800100C0C10100C0FF0000807F61
S11317E00000003E0000000000000000000000F0C7
S11317F00F0000FE7F0080FFFF008007F001C001A2
S1131800C001E0008003600000036000000F60007E
S1131810003F6000007FE00080F3C001C0E1C0072A
S1131820F0C180FFFFC000FF3FC000F80FE00000E0
S11318300040000000000000000000000000E0FF85
S1131840FF03E0FFFF03E0FFFF0360C0000060C090
S1131850000060C0000060C0010060C00300E0E060
S11318600700C0701F00C07F7C00803FF001000FA4
S1131870E0030000800300000002000000000000FC
S11318800000001F8001803F8001C07F0003C07101
S11318900003E0E0000360E0000360C0010360C0F7
S11318A0010360C00103608083036080C701C0003E
S11318B0FF01C000FE0000007C00000000000000EA
S11318C00000000000000000000060000000600054
S11318D00000600000006000000060000000600084
S11318E00000E0FFFF03E0FFFF03E0FFFF036000F1
S11318F00000600000006000000060000000600064
S11319000000600000000000000000000000000073
S11319100000E0FF3F00E0FFFF00E0FFFF010000E8
S1131920C001000080030000000300000003000069
S11319300003000000030000000300008003000017
S1131940C001E0FFFF00E0FF7F00E0FF3F00000078
S1131950000000000000E0000000E0070000E03F9D
S1131960000080FF010000F80F0000C07F000000AD
S1131970FE010000F003000080030000F0030000FB
S1131980FE0100C03F0000F80F0000FF0100E03F2F
S11319900000E0070000E000000000000000E0FF9D
S11319A00300E0FF7F000080FF030000E00300006D
S11319B0F8030000FE0000801F0000E0070000E0C4
S11319C0070000801F000000FE000000F00300007C
S11319D0C0030080FF03E0FF3F00E0FF03000000BE
S11319E0000000000002200000036000C003E001CA
S11319F0E003E003F801800F7C00003F1F0000FCBF
S1131A000F0000F8030000F8030000FC0F00003F83
S1131A101F00800F7E00E003F801E001E003600096
S1131A20C00320000003000000022000000060004A
S1131A300000E0010000C0070000800F0000003E2D
S1131A40000000FC000000F0010000C0FF03008063
S1131A50FF0300C0FF0300F0010000F80000003E97
S1131A600000800F0000C0070000E00100006000DB
S1131A70000000000000000000006000000360009F
S1131A80C0036000E0036000F80360003E036000F0
S1131A901F0360C0070360F0010360FC0003603EA5
S1131AA00003E00F0003E0030003E0010003600013
S1131AB0000300000000000000000000000000001F
S1131AC00000000000000000000000000000FEFF15
S1131AD0FF7FFEFFFF7FFEFFFF7F06000060060022
S1131AE00060060000600600006006000060000060
S1131AF000000000000000000000000000000000E2
S1131B00000000000000000000000C0000003C0089
S1131B100000F0000000C0030000000F0000003CC3
S1131B20000000F0000000C0030000000F000000EF
S1131B303C000000F0000000C0030000000F0000A3
S1131B40003C000000300000000000000000000025
S1131B50000000000000000000000000000006007B
S1131B6000600600006006000060060000600600D9
S1131B700060FEFFFF7FFEFFFF7FFEFFFF7F000090
S1131B800000000000000000000000000000000051
S1131B900000000000000000000000600000007071
S1131BA00000007C0000001F000080070000E0012E
S1131BB0000060000000E0010000C0070000001FFA
S1131BC00000007C000000700000006000000000C5
S1131BD000000000000000000000000000E0000021
S1131BE000E0000000E0000000E0000000E0000071
S1131BF000E0000000E0000000E0000000E0000061
S1131C0000E0000000E0000000E0000000E0000050
S1131C1000E0000000E0000000E0000000E0000040
S1131C2000E00000000000000000000000000000D0
S1131C3000000800000018000000380000007800D0
S1131C400000F0000000E0000000C0000000800080
S1131C500000000000000000000000000000000080
S1131C600000000000000000000000000000000070
S1131C7000000000F0000018F8010018FC01000C3E
S1131C808C03000C0603000C0603000C0603000C76
S1131C900603000C8601001C8601003CC60000F807
S1131CA0FF0300F0FF0300E0FF030000000000005A
S1131CB00000000000000000000000000000F8FF29
S1131CC0FF01F8FFFF01F8FFFF03007080030038F5
S1131CD0000300180003000C0003000C0003000CB8
S1131CE08003001C8001003CE00100F8FF0000F0CC
S1131CF07F0000C01F000000000000000000000082
S1131D0000000000000000801F0000E07F0000F0E1
S1131D10FF000078E00100388001001C8003000C03
S1131D200003000C0003000C0003000C0003000C73
S1131D300003000C000300188001000000000000F4
S1131D400000000000000000000000803F0000E0F0
S1131D50FF0000F0FF010078C00300188003001C9E
S1131D600003000C0003000C0003000C8001000CB5
S1131D70C001000CE000F8FFFF03F8FFFF03F8FFC9
S1131D80FF0300000000000000000000000000004D
S1131D90000000803F0000E0FF0000F0FF01007839
S1131DA0C601001C8603000C0603000C0603000C8D
S1131DB00603000C0603001C06030038060300F8A3
S1131DC0070100F0870100C00700000000000000C8
S1131DD0000000000000003000000030000000306F
S1131DE000000030000000300000C0FFFF03E0FFEF
S1131DF0FF03F0FFFF03703000003830000018309C
S1131E00000018300000180000000000000000006E
S1131E1000000000000000000000000000000000BE
S1131E2000000000001E00F83C3F00FCFF7F00FEA5
S1131E30FF71008EE3600007C7600003C660000303
S1131E40C6600003C6600007C760008FC37000FF50
S1131E50C37100FFC13F00FB801F0003000F00039C
S1131E600000000000000000000000000000F8FF77
S1131E70FF03F8FFFF03F8FFFF03007000000038C2
S1131E80000000180000000C0000000C0000000C12
S1131E900000001C000000F8FF0300F8FF0300E04E
S1131EA0FF0300000000000000000000000000002C
S1131EB000000000000000000003000C0003000C00
S1131EC00003000C0003600C0003F0FCFF03F0FCB3
S1131ED0FF03F0FCFF0360000003000000030000A8
S1131EE000030000000300000003000000000000E5
S1131EF000000000000000000000000000300003AB
S1131F000060000300600003006000030060000341
S1131F1000600003006000030070180300783CFFB9
S1131F20FF3F3CFFFF1F3CFFFF07180000000000BD
S1131F30000000000000000000000000000000009D
S1131F40000000000000F8FFFF03F8FFFF03F8FFA4
S1131F50FF03000002000000070000800F0000C023
S1131F603D0000E078000070F0000038E001001C43
S1131F70C003000C80030004000300000002000002
S1131F80000000000000000000000000000000004D
S1131F9000031800000318000003180000031800D1
S1131FA00003F8FFFF03F8FFFF03F8FFFF0300003F
S1131FB00003000000030000000300000003000011
S1131FC0000300000000000000000000000000000A
S1131FD0000000FCFF0300FCFF0300FCFF030038CB
S1131FE00000000C0000000C000000FCFF0300FCDB
S1131FF0FF0300F0FF0300380000000C0000000C99
S1132000000000FCFF0300FCFF0300F0FF030000DE
S1132010000000000000000000000000000000FCC0
S1132020FF0300FCFF0300FCFF0300700000003806
S1132030000000180000000C0000000C0000000C60
S11320400000001C000000FCFF0300F8FF0300E098
S1132050FF030000000000000000000000000080FA
S11320601F0000E07F0000F0FF000078E00100188E
S11320708003000C0003000C0003000C0003000CA0
S11320800003000C0003001C80010078E00100F054
S1132090FF0000E07F0000C01F00000000000000FF
S11320A0000000000000000000000000000000FC30
S11320B0FFFF00FCFFFF00FCFFFF007080030038FF
S11320C0000300180003000C0003000C0003000CC4
S11320D08003001C8001003CE00100F8FF0000F0D8
S11320E07F0000C01F00000000000000000000008E
S11320F0000000803F0000E0FF0000F0FF010078D6
S1132100C00300188003001C0003000C0003000C33
S11321100003000C8001000CC001000CE00000F87A
S1132120FFFF00FCFFFF00FCFFFF000000000000B9
S1132130000000000000000000000000000000FC9F
S1132140FF0300FCFF0300FCFF03007000000038E5
S1132150000000180000000C0000000C0000000C3F
S11321600000001C000000FC000000F8000000E07B
S1132170000000000000000000000000000000005B
S113218000000000000000E0800100F0810100F880
S11321900303009C0303000C0703000C0703000C5B
S11321A00603000C0E03000C0E03000C9C01001C23
S11321B0FC010018F800000070000000000000009E
S11321C0000000000000000C0000000C0000000CE7
S11321D00000000C0000000C0000C0FFFF00E0FF46
S11321E0FF01E0FFFF01000C8003000C0003000C62
S11321F00003000C0003000C0003000C0003000C9F
S11322008001000000000000000000000000000049
S113221000000000000000FC7F0000FCFF0100FC47
S1132220FF0300008003000000030000000300001F
S11322300003000080010000C0010000E00000FC79
S1132240FF0300FCFF0300FCFF030000000000008C
S113225000000000000000000000001C0000007CE2
S1132260000000FC030000F00F0000807F0000006D
S1132270FC010000E0030000C0030000E0030000D4
S1132280FC0100807F0000F00F0000FC0300007CD4
S11322900000001C0000000000000000000000FC22
S11322A00F0000FCFF010080FF030000800300001A
S11322B0E0030000F80100003E0000800F000080F1
S11322C00F0000003E000000F8010000E0030000E1
S11322D080030080FF0300FCFF0100FC0F000000EE
S11322E000000000000000040002000C0003001CB9
S11322F08003007CC00300F8F00100E0790000C016
S11323003F0000801F0000801F0000C03F0000E06D
S1132310790000F8F001007CE003001C8003000C4D
S113232000030004000200000000000000000000A0
S1132330006000070060001F006000FF006000FCF8
S1132340037000E01F3800007F1E0000F80F00003B
S1132350E0070000FC0100007F0000E00F0000FC2B
S11323600300007F0000001F0000000300000000C5
S11323700000000000000000000000000000000C4D
S11323800003000C8003000CC003000CF003000CDD
S11323907803000C1C03000C0F03008C070300CC13
S11323A0010300FC0003007C0003001C0003000C7C
S11323B00003000000030000000000000000000013
S11323C0000000C0000000C0000000C0000000C009
S11323D0000000E00100F0FFFF0FFC3FFF3FFC1F87
S11323E0FE3F0E000070060000600600006006005C
S11323F00060000000000000000000000000000079
S113240000000000000000000000000000000000C8
S113241000000000000000000000000000000000B8
S11324200000FFFFFFFFFFFFFFFFFFFFFFFF0000B4
S11324300000000000000000000000000000000098
S11324400000000000000000000000000000000088
S1132450000000000000000000000600006006000C
S11324600060060000600E000070FC1FFE3FFC3F91
S1132470FF3FF0FFFF0F00E0010000C0000000C0BC
S1132480000000C0000000C00000000000000000C8
S113249000000000000000000E0000800F0000C0DB
S11324A00F0000C0010000C0000000C00000008058
S11324B00100000003000000060000000C00000002
S11324C018000000180000001C0000801F0000809D
S11324D00F00008003000000000000000000FCFF6B
S11324E0FF07FCFFFF070C0000060C0000060C00B1
S11324F000060C000006FCFFFF07FCFFFF070000BE
S113250000000000000000000000000000000000C7
S113251000000000000000000000000000000000B7
S1132520000000000000C00300F803007F00E06723
S113253000F06000386000F06000E06700007F0099
S113254000F80300C00300000000000000000000C9
S11325500000F8FF03F8FF03180603180603180623
S113256003180603380703F08D01E0FC0100700036
S1132570000000000000000000803F00C0FF00E0F9
S1132580E0013080013880031800031800031800AC
S1132590031800031800033080010000000000004D
S11325A0000000F8FF03F8FF0318000318000318E5
S11325B0000318000318800330800170E001E0FF7D
S11325C000803F0000000000000000000000000048
S11325D0F8FF03F8FF031806031806031806031888
S11325E0060318060318060300000000000000009C
S11325F000000000000000000000F8FF03F8FF03E3
S11326001806001806001806001806001806001818
S113261006000000000000000000000000000000B0
S113262000003F00C0FF00E0E001308001380003FB
S113263018000318060318060318060318FE0330CF
S1132640FE01000000000000000000F8FF03F8FF96
S11326500300060000060000060000060000060055
S1132660000600F8FF03F8FF03000000000000006C
S11326700000000000000000180003180003180008
S113268003F8FF03F8FF03180003180003180003FE
S11326900000000000000000000000000000000036
S11326A00000188001180003180003180003180024
S11326B003188003F8FF01F8FF0000000000000089
S11326C0000000000000000000000000F8FF03F814
S11326D0FF03000400001F00803B00E0F00070C016
S11326E00138800308000200000000000000000020
S11326F0000000000000000000F8FF03F8FF0300E2
S113270000030000030000030000030000030000B6
S113271003000000000000000000000000F8FF03B8
S1132720F8FF03780000C00300000F000018000049
S11327300F00C00300700000F8FF03F8FF0300005F
S113274000000000000000000000F8FF03F8FF0391
S1132750380000E00100800700003C0000F00000A9
S11327608003F8FF03F8FF030000000000000000EE
S113277000803F00E0FF0070C001388003180003B0
S113278018000318000338800370C001E0FF0080C4
S11327903F00000000000000000000000000F8FFFF
S11327A003F8FF0318180018180018180018180068
S11327B0181800300C00F00700C0030000000000EF
S11327C00000000000803F00E0FF0070C00138807E
S11327D00318000F18001F18003B38803370C031F5
S11327E0E0FF30803F1800001800000000000000E7
S11327F00000F8FF03F8FF03180C00180C00180C75
S113280000181C00387600F0E701E08103000002A4
S1132810000000000000000000E08101F00303302C
S11328200303180603180603180C03180C03189C5A
S11328300130F80100F0000000000000000000007A
S1132840000000180000180000180000180000F82C
S1132850FF03F8FF03180000180000180000180018
S113286000000000000000000000000000F8FF006D
S1132870F8FF0100800300000300000300000300D0
S11328800003008001F8FF01F87F00000000000051
S113289000000000000000380000F80300C01F0022
S11328A000FE0000E00300800300E00300FE00C01F
S11328B00F00F801003800000000000000000000D4
S11328C000F83F00F8FF0300E00300F803007E0077
S11328D0000F00007E0000F80300C003F8FF03F8B7
S11328E03F0000000000000000000208000318C0C0
S11328F00378E000E07900C01F00000F00C01F0053
S1132900E0790078E00018C003080003000002002A
S11329100000000000080000380000F00000C003C0
S113292000000F0000FC0300FC03000F00C00300C4
S1132930F00000380000080000000000000000184B
S1132940000318800318E003183803181C03180741
S113295003980303F800037800031800030000033E
S113296000000000000011241FBECFE5D8E0DEBF48
S1132970CDBF12E0A0E6B0E0E6ECFAE602C00590B6
S11329800D92A035B107D9F723E0A0E5B2E001C06C
S11329901D92AD30B207E1F70E9492230C94613589
S11329A00C9400009FB7F89487B3826087BBE3E977
S11329B0F7E03197F1F700C0000087B38D7F87BB44
S11329C0E3E0F1E03197F1F700C00000B19902C0F3
S11329D081E001C080E09FBFEFE8F6E03197F1F7B6
S11329E000C0000008952FB7F89487B3826087BBB6
S11329F03AE03A95F1F700C087B38D7F87BB85E451
S1132A008A95F1F7000086B3827090E095958795DA
S1132A1030EF3A95F1F72FBF0895CF93DF93C0E0DD
S1132A20D0E00BC00E94F31490E00C2E02C0880F7B
S1132A30991F0A94E2F7D82BCF5FC83098F38D2FF3
S1132A40DF91CF9108952FB7F89497B3926097BB15
S1132A509AE09A95F1F700C0882319F087B38D7F27
S1132A6087BB83E091E00197F1F700C0000087B3D2
S1132A708D7F87BB2FBF0895CF93DF93D82FC0E0FE
S1132A8017C081E090E00C2E02C0880F991F0A94B1
S1132A90E2F72D2F30E0282339238217930721F4FE
S1132AA081E00E94231503C080E00E942315CF5FBC
S1132AB0C83038F3DF91CF910895CF930E94D21498
S1132AC0813009F58CEC0E943C1584E40E943C158D
S1132AD02FEF8EE994E2215080409040E1F700C04E
S1132AE000000E94D2148CEC0E943C158EEB0E94D4
S1132AF03C150E940D15C82F0E940D1590E0982FCB
S1132B0088278C2B02C080E090E0CF9108958BBB86
S1132B1085B38F7E85BB85B3806185BB0895CF93D4
S1132B20C82F892F0E9487158C2F0E948715CF915B
S1132B30089525B32F7D25BB0E948F1585B3806230
S1132B4085BB089525B3206225BB0E948F15089587
S1132B50CF93DF93EB0125B32F7B25BB0E949915FF
S1132B60CE010E94A21585B3806485BBDF91CF910D
S1132B7008958FEF8ABB85B3806485BB85B3886075
S1132B8085BB85B3806185BB85B3806885BB2FEF2A
S1132B9080E792E0215080409040E1F700C00000BF
S1132BA085B38F7785BB2FEF81EE94E02150804071
S1132BB09040E1F700C0000085B3806885BB2FEF2B
S1132BC081EE94E0215080409040E1F700C0000085
S1132BD060E070E080EB90E00E94A8150895CF9328
S1132BE0C82F85B38F7B85BB86E390E00E9499153F
S1132BF0C130B1F028F0C23019F1C33089F13FC0BF
S1132C0088E40E94871580E491E0909353028093B6
S1132C10520280EE91E090935102809350022FC0B3
S1132C2088E20E94871580EE91E09093530280938E
S1132C30520280E491E090935102809350021FC0AD
S1132C4088E90E94871580E491E090935302809371
S1132C50520280EE91E090935102809350020FC093
S1132C6088EF0E94871580EE91E090935302809341
S1132C70520280E491E0909351028093500285B314
S1132C80806485BBCF9108950E94B9152FEF85EA22
S1132C909EE0215080409040E1F700C00000A895DC
S1132CA085B38F7B85BB85B38F7D85BB81E00E9417
S1132CB0871585B3806485BB2FEF82E597E02150AB
S1132CC080409040E1F700C00000A89585B38F7B59
S1132CD085BB85B38F7D85BB88E20E94871585B34C
S1132CE0806485BB85B38F7B85BB85B38F7D85BBB6
S1132CF08AE30E94871585B3806285BB85E50E94BF
S1132D00871585B3806485BB85B38F7B85BB85B30D
S1132D108F7D85BB80EC0E94871585B3806285BB5F
S1132D208DE00E94871585B3806285BB8DE00E948B
S1132D30871585B3806485BB85B38F7B85BB85B3DD
S1132D408F7D85BB81EC0E94871585B3806285BB2E
S1132D5083E40E94871585B3806285BB80E00E946E
S1132D60871585B3806485BB85B38F7B85BB85B3AD
S1132D708F7D85BB82EC0E94871585B3806285BBFD
S1132D8080E00E94871585B3806485BB85B38F7B03
S1132D9085BB85B38F7D85BB85EC0E94871585B384
S1132DA0806285BB80E00E94871585B3806285BB05
S1132DB088E40E94871585B3806285BB80E00E9409
S1132DC0871585B3806285BB88E40E94871585B327
S1132DD0806485BB85B38F7B85BB85B38F7D85BBC5
S1132DE084EB0E94871585B3806285BB80E00E94D6
S1132DF0871585B3806485BB85B38F7B85BB85B31D
S1132E008F7D85BB86EB0E94871585B3806285BB69
S1132E1082E00E94871585B3806285BB82E00E94B0
S1132E20871585B3806285BB8BE30E94871585B3C4
S1132E30806485BB85B38F7B85BB85B38F7D85BB64
S1132E4080EE0E94871585B3806285BB8FE00E9467
S1132E50871585B3806285BB81E20E94871585B39F
S1132E60806285BB8CE10E94871585B3806285BB37
S1132E708BE00E94871585B3806285BB8EE00E943B
S1132E80871585B3806285BB88E00E94871585B36A
S1132E90806285BB89E40E94871585B3806285BB07
S1132EA088E90E94871585B3806285BB88E30E9408
S1132EB0871585B3806285BB89E00E94871585B339
S1132EC0806285BB81E10E94871585B3806285BBE2
S1132ED083E00E94871585B3806285BB84E10E94EC
S1132EE0871585B3806285BB80E10E94871585B311
S1132EF0806285BB80E00E94871585B3806485BBB2
S1132F0085B38F7B85BB85B38F7D85BB81EE0E94A6
S1132F10871585B3806285BB8FE00E94871585B3D2
S1132F20806285BB8FE20E94871585B3806285BB72
S1132F308BE20E94871585B3806285BB8CE00E947A
S1132F40871585B3806285BB8EE00E94871585B3A3
S1132F50806285BB86E00E94871585B3806285BB4D
S1132F6087E40E94871585B3806285BB86E70E944B
S1132F70871585B3806285BB87E30E94871585B377
S1132F80806285BB87E00E94871585B3806285BB1C
S1132F9081E10E94871585B3806285BB84E00E942D
S1132FA0871585B3806285BB83E20E94871585B34C
S1132FB0806285BB8EE10E94871585B3806285BBE4
S1132FC080E00E94871585B3806485BB85B38F7BC1
S1132FD085BB85B38F7D85BB81E10E94871585B351
S1132FE0806485BB2FEF82E597E0215080409040BC
S1132FF0E1F700C00000A89585B38F7B85BB85B33E
S11330008F7D85BB89E20E94871585B3806485BB6B
S113301080E00E94EF150895CF92DF92EF92FF9225
S11330200F931F93CF93DF93D82EC92E162F072FFC
S1133030F42EE52EC22FD32F85B38F7B85BB85B3AA
S11330408F7D85BB8AE20E94871585B3806285BB2C
S11330508C2D0E94871585B3806285BB8D2D0E94BF
S1133060871585B3806285BB8E2D0E94871585B335
S1133070806285BB8F2D0E94871585B3806485BBD4
S113308085B38F7B85BB85B38F7D85BB8BE20E9427
S1133090871585B3806285BB802F0E94871585B311
S11330A0806285BB812F0E94871585B3806285BBB2
S11330B08D2F0E94871585B3806285BB8C2F0E945B
S11330C0871585B3806485BBDF91CF911F910F91E4
S11330D0FF90EF90DF90CF900895CF93DF93EA01B4
S11330E09B01AC010E940C18BE018CE290E00E948E
S11330F0A815DF91CF910895EF92FF920F931F933C
S1133100CF93DF93E82EF92E209150023091510293
S113311021503109409152025091530241505109BA
S113312060E070E080E090E00E940C1885B38F7B33
S113313085BB85B38F7D85BB8CE20E94871585B3E3
S1133140806285BB00E010E019C085B3806285BB56
S11331508F2D0E94871585B3806285BB8E2D0E94BA
S11331608715219602C0C0E0D0E080915002909172
S11331705102C817D90748F30F5F1F4F80915202BD
S1133180909153020817190770F385B3806485BBC7
S1133190DF91CF911F910F91FF90EF900895CF92FF
S11331A0DF92EF92FF920F931F93CF93DF93FC0173
S11331B0E40FF51F40915202509153024E175F07DE
S11331C008F0AF016A01C81AD90AFB01E20FF31F24
S11331D020915002309151022E173F0708F09F01B1
S11331E0E901C61BD70B21503109415051090E94F6
S11331F00C1885B38F7B85BB85B38F7D85BB8CE233
S11332000E94871585B3806285BBCC16DD0690F0DD
S113321016C0E60185B3806285BB812F0E948715A5
S113322085B3806285BB802F0E948715219791F713
S1133230E70105C09C2D8D2D6E01C92FD82F7E016D
S113324081E0E81AF108CD2B21F785B3806485BBB2
S1133250DF91CF911F910F91FF90EF90DF90CF906E
S113326008950F931F93E0915202F09153028E1729
S11332709F07D0F4E0915002F09151026E177F073E
S113328098F44115510581F0DB01A40FB51F119786
S1133290AE17BF0718F0AF01461B570B89019A01FF
S11332A041E050E00E94CF181F910F9108950F93B1
S11332B01F93E0915202F09153028E179F07C8F4B6
S11332C0A0915002B09151026A177B0790F4411506
S11332D0510579F0DC01A40FB51F1197AE17BF0794
S11332E018F0AF01481B590B890121E030E00E941E
S11332F0CF181F910F9108952F923F924F925F9292
S11333006F927F928F929F92AF92BF92CF92DF92F1
S1133310EF92FF920F931F93CF93DF9300D000D0CF
S1133320CDB7DEB79C838B837B016A011A83098343
S1133330C901861B970B8C0122F400271127081B57
S1133340190BC6014B815C81841B950B5C0122F433
S1133350AA24BB24A81AB90AA016B1065CF49C2DB1
S11333608D2D6901292F382F9B818C81FC82EB8262
S1133370E92EF82E8B819C81C816D9065CF49E2D0B
S11333808F2D7901292F382F9B818C81DC82CB8270
S1133390C92ED82E16014B815C81241A350AC90125
S11333A08E199F093C0122F466247724681A790A4D
S11333B0410133201CF45FEF851A950A9594879494
S11333C0E216F30624F444244394512C22C04424EA
S11333D04A94542C1EC0A016B10644F449815A8163
S11333E06B817C81C7010E946D1807C049815A8195
S11333F0B7018B819C810E946D188618970822F46E
S1133400E40CF51C820C931C8B819C8101969C839B
S11334108B834B815C81C416D506ECF60F900F901C
S11334200F900F90DF91CF911F910F91FF90EF902C
S1133430DF90CF90BF90AF909F908F907F906F90D0
S11334405F904F903F902F9008950F931F93841790
S1133450950789F4261737072CF4562F472FB901FF
S1133460252F342FA901461B570B4F5F5F4F98013F
S11334700E94311915C06217730781F44817590760
S11334802CF4382F292FCA01432F522F481B590BD4
S11334904F5F5F4F98010E94571902C00E947C1928
S11334A01F910F9108952F923F924F925F926F92C6
S11334B07F928F929F92AF92BF92CF92DF92EF92C0
S11334C0FF920F931F93CF93DF9300D000D000D0CF
S11334D0CDB7DEB76C014B015E834D83022F132FF2
S11334E081E090E07C01E41AF50ACA019195819586
S11334F09109880F991F9C838B8329833A83BA018E
S1133500680D791D422F532FC6010E946D18B40116
S11335102D813E81621B730B402F512FC6010E94E7
S11335206D18402F512FB4018D819E818C0D9D1DEE
S11335300E946D18402F512FB401C6012D813E8188
S1133540821B930B0E946D1800E010E066246394C4
S1133550712C64C0FF206CF08D819E8101979E8345
S11335608D832B813C812E5F3F4F3C832B83E20E66
S1133570F31E0F5F1F4F32E0630E711CE60CF71C45
S11335805601A00EB11E49815A812D803E80280C1F
S1133590391CB101C5010E946D182601401A510A57
S11335A049815A81B101C2010E946D1849815A8131
S11335B014018D819E81281A390AB101C5010E9426
S11335C06D1849815A81B101C2010E946D185401DC
S11335D0A00EB11E49815A81B5014D805E804C0C0C
S11335E05D1CC2010E946D1849815A81B501160102
S11335F02D813E81221A330AC1010E946D185401A3
S1133600A01AB10A49815A81B501C2010E946D18FC
S113361049815A81B501C1010E946D188D819E8135
S1133620081719070CF496CF26960FB6F894DEBF48
S11336300FBECDBFDF91CF911F910F91FF90EF90FF
S1133640DF90CF90BF90AF909F908F907F906F90BE
S11336505F904F903F902F9008953F924F925F92CA
S11336606F927F928F929F92AF92BF92CF92DF928E
S1133670EF92FF920F931F93CF93DF9300D000D06C
S1133680CDB7DEB74C015B016A01322E3801FA82F4
S1133690E98201E010E0041B150B44245524441A6C
S11336A0550A440C551C1C821B82EE24E394F12C15
S11336B065C0112344F081E0C81AD10892E0490E94
S11336C0511C040D151DEB81FC813196FC83EB83A9
S11336D0F2E0EF0EF11C0E0D1F1D30FE26C0A601F8
S11336E0440F551F4F5F5F4F460D571D29813A8187
S11336F0B5016C197D098B819C81880D991D0E94EF
S113370031194B815C81440F551F4F5F5F4F460D4C
S1133710571D29813A81B5018B819C81681B790BE6
S1133720C601880D991D0E94311931FE27C0A601DA
S1133730440F551F4F5F5F4F460D571D29813A8136
S1133740B5016C197D09C401EB81FC818E1B9F0BB3
S11337500E9431194B815C81440F551F4F5F5F4FAD
S1133760460D571D29813A81B5018B819C81681BC7
S1133770790BC4018C199D090E943119EB81FC81DC
S1133780EC15FD050CF495CF0F900F900F900F9052
S1133790DF91CF911F910F91FF90EF90DF90CF9029
S11337A0BF90AF909F908F907F906F905F904F905D
S11337B03F900895AF92BF92CF92DF92EF92FF9223
S11337C00F931F93CF93DF936C015B01EA0179019F
S11337D0440F551F4F5F5F4F6C1B7D0B0E943119C7
S11337E000E010E023E0AE01B501C6010E942D1BEC
S11337F0DF91CF911F910F91FF90EF90DF90CF90C9
S1133800BF90AF900895AF92BF92CF92DF92EF92A4
S1133810FF920F931F93CF93DF93EC017B015A0127
S1133820690198010E945719B7016C0D7D1D615003
S113383071099801A501CE010E9457199801A601AA
S1133840B701CE010E943119C5018C0F9D1F98014B
S1133850A601B70101970E943119DF91CF911F9101
S11338600F91FF90EF90DF90CF90BF90AF900895AD
S11338702F923F924F925F926F927F928F929F927C
S1133880AF92BF92CF92DF92EF92FF920F931F936A
S1133890CF93DF93CDB7DEB768970FB6F894DEBF4A
S11338A00FBECDBF1C01788B6F875E834D833E872F
S11338B02D87FC86EB86D886CF82261737075CF4E3
S11338C09F858889388B2F879D878E87922D832D9E
S11338D01A019D838E832D853E854B855C85421719
S11338E0530764F49D858E855E874D879B878C87FF
S11338F09D818E811E830D83092F182F8F859889B2
S1133900AD85BE85A817B90764F49F858889B88BEF
S1133910AF879D878E87922D832D2D803E809D833A
S11339208E83EF85F8892B853C85E217F30759F5DB
S11339304D815E814215530564F0241635061CF052
S11339403E822D8206C09D818E813E822D82292E4B
S1133950382E8D819E810817190744F020163106F0
S113396014F08C0103C018010D811E81A101401BBC
S1133970510B4F5F5F4F2F8138856F857889C80160
S11339800E945719F4C0AD81BE81A219B309BA8B44
S1133990A98B4D845E84EF85F8894E1A5F0A9801DD
S11339A0221933093A8329834B855C854E1B5F0BAF
S11339B05A874987C801AD81BE818A1B9B0B9E8BA8
S11339C08D8BEB85FC852D853E85E21BF30BFC8BF3
S11339D0EB8B4B855C852417350729F0390151E0C1
S11339E0651A710802C06D847E840F851889812C44
S11339F0912C5401C12CD12C760146C0C701B601CB
S1133A009201052C000C440B550B0E942732C10176
S1133A10820F931F988F8F8BC501B401A985BA8536
S1133A209D01BB0F440B550B0E942732C101820F2D
S1133A30931FE989FA89AF01FF0F660B770BC40E58
S1133A40D51EE61EF71E29813A81A901330F660BA4
S1133A50770B840E951EA61EB71E4F89588D8417AA
S1133A6095072CF0382F292FCA013F8B288F4F89B7
S1133A70588D481B590B4F5F5F4F2F813885B80114
S1133A800E9457190F5F1F4F601671060CF0B6CFD6
S1133A908D899E892C01990F66087708D801ED85D8
S1133AA0FE85AE1BBF0BA30192010E9457324B014E
S1133AB05C0129813A81032E000C440B550B2983A8
S1133AC03A834B835C83D8014F855889A41BB50B7B
S1133AD029813A814B815C810E9457326B017C01C0
S1133AE040C0C501B401AB89BC899D01BB0F440B27
S1133AF0550B0E942732ED81FE81E20FF31FFE87F2
S1133B00ED87C701B601A985BA859D01BB0F440B9A
S1133B10550B0E942732C101820F931F840C951C00
S1133B20A61CB71C29813A814B815C81C20ED31E2D
S1133B30E41EF51E4D855E85841795072CF0382FFD
S1133B40292FCA013D872E874D855E85481B590B59
S1133B504F5F5F4F2F813885B8010E9457190F5F5F
S1133B601F4F8B859C85801791070CF0BACF689600
S1133B700FB6F894DEBF0FBECDBFDF91CF911F917A
S1133B800F91FF90EF90DF90CF90BF90AF909F90F8
S1133B908F907F906F905F904F903F902F900895FB
S1133BA09093C6028093C5027093C4026093C302CB
S1133BB008958F929F92BF92CF92DF92EF920F93CC
S1133BC01F93CF93E0915202F09153023E97E8176E
S1133BD0F90708F48FC0E0915002F09151027897F0
S1133BE0E617F70708F486C0B22EC42E8B014C01E9
S1133BF09B01295E3F4FAC01415F5F4F0E940C184F
S1133C00D12C75C02C2D30E0215431098AE2829FD9
S1133C10F001839FF00D11248C2F90E09C01220F62
S1133C20331F820F931FE80FF91F2D2D30E0E20F91
S1133C30F31FEE5DFA4D8491B1102DC090E00E2C6F
S1133C4002C0959587950A94E2F780FF12C085B368
S1133C508F7B85BB85B3806285BB8091C6020E9441
S1133C6087158091C5020E94871585B3806485BB42
S1133C7031C085B38F7B85BB85B3806285BB809162
S1133C80C4020E9487158091C3020E94871585B3E0
S1133C90806485BB1FC04E2D50E090E00E2C02C006
S1133CA0959587950A94E2F780FF14C0B901660FD1
S1133CB0771F660F771F660F771F640F751F40917C
S1133CC0C5025091C602600F711FC4018C0F911D73
S1133CD00E946D18CF5F01C0C0E0CE3008F492CFCF
S1133CE0E39401C0E12C87E08E15B0F7D39482E011
S1133CF08D15C0F7CF911F910F91EF90DF90CF906A
S1133D00BF909F908F9008958F929F92BF92CF9271
S1133D10DF92EF920F931F93CF93E0915202F091B1
S1133D2053027297E817F90708F490C0E091500223
S1133D30F0915102B097E617F70708F487C0B22E46
S1133D40C42E8B014C019B01215E3F4FAC014F5EA1
S1133D505F4F0E940C18D12C76C0EC2DF0E0B09788
S1133D60EE0FFF1FCF01880F991F880F991F880F2F
S1133D70991FE80FF91FEC0FF11DEE0FFF1FEE0F57
S1133D80FF1F2D2D30E0E20FF31FEE5DF54F849100
S1133D90B1102DC090E00E2C02C0959587950A9421
S1133DA0E2F780FF12C085B38F7B85BB85B3806249
S1133DB085BB8091C6020E9487158091C5020E942E
S1133DC0871585B3806485BB31C085B38F7B85BB84
S1133DD085B3806285BB8091C4020E94871580915F
S1133DE0C3020E94871585B3806485BB1FC04E2D16
S1133DF050E090E00E2C02C0959587950A94E2F766
S1133E0080FF14C0B901660F771F660F771F660F16
S1133E10771F640F751F4091C5025091C602600F51
S1133E20711FC4018C0F911D0E946D18CF5F01C0DA
S1133E30C0E0C23108F491CFE39401C0E12C87E0E3
S1133E408E15B0F7D39483E08D15C0F7CF911F91F1
S1133E500F91EF90DF90CF90BF909F908F90089537
S1133E608F929F92BF92CF92DF92EF920F931F9304
S1133E70CF93E0915202F0915302B097E817F907FB
S1133E8008F491C0E0915002F0915102F097E617C6
S1133E90F70708F488C0B22EC42E8B014C019B0195
S1133EA021503109AC01415051090E940C18D12C08
S1133EB077C02C2D30E02D52310980EC829FF00127
S1133EC0839FF00D11248C2F90E09C01220F331F4F
S1133ED0820F931F880F991FE80FF91F2D2D30E0D3
S1133EE0E20FF31FEE59FF4F8491B1102DC090E003
S1133EF00E2C02C0959587950A94E2F780FF12C0B4
S1133F0085B38F7B85BB85B3806285BB8091C602F8
S1133F100E9487158091C5020E94871585B380642D
S1133F2085BB31C085B38F7B85BB85B3806285BB80
S1133F308091C4020E9487158091C3020E94871554
S1133F4085B3806485BB1FC04E2D50E090E00E2CDD
S1133F5002C0959587950A94E2F780FF14C0B901D1
S1133F60660F771F660F771F660F771F640F751F25
S1133F704091C5025091C602600F711FC4018C0F9D
S1133F80911D0E946D18CF5F01C0C0E0C03208F4DB
S1133F9090CFE39401C0E12C87E08E15B0F7D39461
S1133FA085E08D15C0F7CF911F910F91EF90DF90B1
S1133FB0CF90BF909F908F9008957093CA026093A2
S1133FC0C9029093C8028093C70208950F931F9368
S1133FD0CF93DF93EC01062F10E05DC0222309F498
S1133FE062C02A3079F42091C9023091CA02205E5D
S1133FF03F4F3093CA022093C9021092C802109214
S1134000C702219620915202309153022251310964
S11340104091C7025091C8022417350770F41092DA
S1134020C8021092C7022091C9023091CA02205ED0
S11340303F4F3093CA022093C9022091500230911D
S11340405102205231094091C9025091CA022417E9
S1134050350740F41092C8021092C7021092CA02A7
S11340601092C902FE01E80FF91F6091C902709114
S1134070CA02202F40818091C7029091C8020E94F9
S1134080841E8091C7029091C80242969093C80200
S11340908093C7021F5F812F90E0FE01E80FF91F94
S11340A0208121119BCFDF91CF911F910F91089512
S11340B00F931F93CF93DF93EC01062F10E05DC0A5
S11340C0222309F462C02A3079F42091C902309184
S11340D0CA02285D3F4F3093CA022093C90210924E
S11340E0C8021092C70221962091520230915302C5
S11340F02E5131094091C7025091C8022417350747
S113410070F41092C8021092C7022091C902309133
S1134110CA02285D3F4F3093CA022093C9022091FE
S1134120500230915102285231094091C9025091F4
S1134130CA022417350740F41092C8021092C7022D
S11341401092CA021092C902FE01E80FF91F609191
S1134150C9027091CA02202F40818091C7029091B8
S1134160C8020E94301F8091C7029091C8024E96E7
S11341709093C8028093C7021F5F812F90E0FE01D5
S1134180E80FF91F208121119BCFDF91CF911F915F
S11341900F9108950F931F93CF93DF93EC01062F94
S11341A010E05DC0222309F462C02A3079F4209122
S11341B0C9023091CA02285E3F4F3093CA0220934D
S11341C0C9021092C8021092C7022196209152028D
S11341D0309153022E5031094091C7025091C802C8
S11341E02417350770F41092C8021092C702209168
S11341F0C9023091CA02285E3F4F3093CA0220930D
S1134200C902209150023091510228513109409144
S1134210C9025091CA022417350740F41092C8020B
S11342201092C7021092CA021092C902FE01E80F4E
S1134230F91F6091C9027091CA02202F40818091B8
S1134240C7029091C8020E94D91D8091C702909123
S1134250C8020E969093C8028093C7021F5F812FF5
S113426090E0FE01E80FF91F208121119BCFDF911F
S1134270CF911F910F9108958EB588608EBD89B737
S1134280806189BF87E08BBD80ED8ABD8EB5826079
S11342908EBD089583B7886083BF88EC8CBF83B7D5
S11342A0826083BF89B7826089BF08951F920F928D
S11342B00FB60F9211248F939F93AF93BF93809166
S11342C0560290915702A0915802B091590201965A
S11342D0A11DB11D8093560290935702A0935802DA
S11342E0B0935902BF91AF919F918F910F900FBEE0
S11342F00F901F9018951F920F920FB60F921124D2
S11343002F938F939F9380B3109255028091540200
S11343108430D9F018F4813029F029C08B30A9F009
S11343208E3029F580915A02882331F08091CC0295
S11343308F5F8093CC021BC08091CD028F5F8093EE
S1134340CD0282B3806482BB12C080915A0288235A
S113435031F08091CC0281508093CC0208C08091CE
S1134360CD0281508093CD0282B3806482BB809160
S11343705502880F880F809354028091CD028837AC
S11343801CF01092CD0205C088231CF487E78093AB
S1134390CD029091CD0283E99802812D1124890FD9
S11343A08595859597FD8395282F220F220F220F3F
S11343B0281B921B923041F12CF4992351F0913037
S11343C0B1F055C09430D1F164F1953009F443C093
S11343D04EC08091CC0288311CF01092CC0247C0B0
S11343E088230CF044C087E18093CC0240C08091C4
S11343F0CC028C331CF01092CC0239C08823BCF55B
S11344008BE38093CC0233C08091CC0288301CF0C3
S11344101092CC022CC0882354F587E08093CC0200
S113442026C08091CC0280321CF01092CC021FC0B6
S11344308823ECF48FE18093CC0219C08091CC02E4
S11344408D301CF01092CC0212C0882384F48CE0CE
S11344508093CC020CC08091CC0284361CF0109264
S1134460CC0205C088231CF483E68093CC0282B37B
S11344708F7B82BB9F918F912F910F900FBE0F90D6
S11344801F90189585B7886085BF8BB780688BBFF0
S113449008951F920F920FB60F9211242F933F93FA
S11344A04F935F936F937F938F939F93AF93BF9338
S11344B0EF93FF9380915B02823091F128F488237B
S11344C051F0813061F0EAC0833009F4E0C08430F7
S11344D009F4E1C0E3C081E080935B02DFC0809116
S11344E0CD0283781CF481508C6F8F5F813061F032
S11344F01CF4882331F0D2C0823051F0833061F053
S1134500CDC010925B02CAC082E080935B02C6C039
S113451083E080935B02C2C084E080935B02BEC0F0
S11345209091CD0283E99802812D1124890F8595FC
S11345308595E82F97FDE3958E2F880F880F880FB8
S11345408E1BE92FE81B8E2FEE0F990BAA0BBB0BCA
S11345508730910508F0A2C0FC01E65DFF4F0C9482
S1134560463280915A02811108C08091CF02809313
S1134570CC0281E080935A0291C08091CC02809356
S1134580CF0281E08093D0020E94D52510925A0276
S113459085C080915A02811108C08091D102809314
S11345A0CC0281E080935A0279C08091CC0280933E
S11345B0D10282E08093D0020E94D52510925A0243
S11345C06DC080915A02811108C08091D4028093F9
S11345D0CC0281E080935A0261C08091CC02809326
S11345E0D40286E08093D0020E94D52510925A020C
S11345F055C080915A02811108C08091D6028093DF
S1134600CC0281E080935A0249C08091CC0280930D
S1134610D60283E08093D0020E94D52510925A02DC
S11346203DC080915A02811108C08091CE028093CE
S1134630CC0281E080935A0231C08091CC028093F5
S1134640CE0284E08093D0020E94D52510925A02B3
S113465025C080915A02811108C08091D2028093B2
S1134660CC0281E080935A0219C08091CC028093DD
S1134670D20285E08093D0020E94D52510925A027E
S11346800DC01092D00281E080935B0207C081E0EC
S113469080935B0203C081E080935B02FF91EF9102
S11346A0BF91AF919F918F917F916F915F914F9146
S11346B03F912F910F900FBE0F901F90189587B3C5
S11346C0886B87BB88B38F7488BB88B3806188BBD1
S11346D080E58DB9089581B38B7F81BB82B38460FB
S11346E082BB81B3806481BB82B38F7B82BB1BBAE4
S11346F08FEF8ABB84B3886F84BB85B3877085BB17
S113470081B3877F81BB81B38E7F81BB82B3886095
S113471082BB82B38F7C82BB08958FB9779BFECF17
S11347208FB1089581B5877F81BD9FE088E10FB681
S1134730F894A89581BD0FBE91BD0E946B2382B3EE
S1134740806482BB0E945F230E94A52688E090E0DB
S11347500E94B8260E9444160E94C426A8950E946E
S11347607625A8952FEF8DE399E421508040904061
S1134770E1F700C00000A8950E94F626A89582B330
S11347808F7B82BB0E943C210E944A2185B78260B4
S113479085BF8BB780648BBF0E944222789485E0EA
S11347A0E3E6F0E0A1E9B2E001900D928A95E1F729
S11347B085E0E3E6F0E0ACE8B2E001900D928A9582
S11347C0E1F785E0E3E6F0E0A7E8B2E001900D92BE
S11347D08A95E1F785E0E3E6F0E0A1E8B2E0019034
S11347E00D928A95E1F785E0E3E6F0E0ACE7B2E00C
S11347F001900D928A95E1F785E0E3E6F0E0A6E703
S1134800B2E001900D928A95E1F7EDEBF2E080E3DE
S1134810808381839EE292838383E8EBF2E080834A
S11348208183E3EAF2E08083918382838383E2EBF2
S1134830F2E08083818392838383EDEAF2E08083D4
S1134840818395E0EAE7F0E0A8EAB2E001900D92F6
S11348509A95E1F7809397028DE28093E902809321
S11348609D0288E093E09F938F9384E093E09F936D
S11348708F9380E093E09F938F9388EF92E09F93D0
S11348808F9384EF92E09F938F9380EF92E09F93B6
S11348908F9388E690E09F938F938CE592E09F93AB
S11348A08F930E9477320E94C6310E94332C8DB7B9
S11348B09EB740960FB6F8949EBF0FBE8DBF8091F1
S11348C07002813009F4FFCF609156027091570253
S11348D08091580290915902603E23E9720724E0C6
S11348E08207910584F420E737E140E050E00E941C
S11348F02732672B682B692B31F40E94C6310E9442
S113490046270E94E32FA895DACF88B38F7E88BB11
S113491082EE0E948D2385E08A95F1F7000088B32A
S1134920806188BB089588B38F7E88BB81EE0E9426
S11349308D2385E08A95F1F7000088B3806188BBF8
S1134940089588B38F7E88BB80E50E948D2385E01F
S11349508A95F1F7000083E70E948D2388B3806174
S113496088BB0895EF92FF920F931F93CF93DF9329
S11349708B01C42F98B39F7E98BB0E948D230BC0DC
S113498078018FEFE81AF80A8FEF0E948D23F8015F
S11349908083CD2F8701DFEFDC0FC111F1CF88B306
S11349A0806188BBDF91CF911F910F91FF90EF90B1
S11349B00895EF92FF920F931F93CF93DF938B0190
S11349C0C42F98B39F7E98BB80620E948D2385E09C
S11349D08A95F1F700000AC07801EFEFEE1AFE0A9B
S11349E0F80180810E948D23CD2F8701DFEFDC0F3A
S11349F0C111F2CF88B3806188BBDF91CF911F9141
S1134A000F91FF90EF900895CF93C62F98B39F7E98
S1134A1098BB80620E948D238C2F0E948D2388B3C3
S1134A20806188BBCF910895CF93C82F88B38F7EC0
S1134A3088BB8C2F0E948D23C73019F08FEF0E9402
S1134A408D2398B3906198BBCF9108951F920F92D4
S1134A500FB60F9211242F933F934F935F936F934D
S1134A607F938F939F93AF93BF93EF93FF9387E0CD
S1134A700E94142586FF0AC045E061E772E081E6E2
S1134A800E94B22460E487E00E9404258091D80249
S1134A90863011F41092D80281E080937002FF9165
S1134AA0EF91BF91AF919F918F917F916F915F91A2
S1134AB04F913F912F910F900FBE0F901F9018951B
S1134AC080E00E941425682F636080E00E94042522
S1134AD088B3886088BB87E592E00197F1F700C04E
S1134AE000000E9485240E949324089588B3877F40
S1134AF088BB8FE19EE40197F1F700C000006AE0F3
S1134B0080E00E9404258FE19EE40197F1F700C044
S1134B10000062E081E00E94042562E082E00E94DD
S1134B20042561E083E00E9404256FE584E00E948F
S1134B3004250E94A12460E08DE10E94042560E028
S1134B408CE10E94042560E787E00E9404256CE460
S1134B5085E00E94042566E086E00E94042543E087
S1134B6060E670E080E10E94D92443E060E670E0F2
S1134B708BE00E94D92465E082E10E9404250E9412
S1134B80602508959DEC899F912D11249695969505
S1134B90969520E1929FA0011124990F292F220FAD
S1134BA0220F920F891B842B08950E94A82680ED62
S1134BB00E94B1268091D002833099F128F481308B
S1134BC061F08230E1F0BEC0853009F498C008F489
S1134BD084C0863009F4A5C0B5C082E00E94B12625
S1134BE08091CF02883128F40E94C2250E94B12608
S1134BF0A9C080E00E94C2250E94B126A3C081E022
S1134C000E94B1268091D1028B3328F40E94C225E0
S1134C100E94B12697C080E00E94C2250E94B1265E
S1134C2091C084E00E94B1268091CE02823011F5B9
S1134C308091D202837079F48091D6028D3128F468
S1134C400E94C2250E94B1267DC081E00E94C22537
S1134C500E94B12677C08091D6028C3128F40E943C
S1134C60C2250E94B1266EC081E00E94C2250E9426
S1134C70B12668C021E0843009F020E091E086305C
S1134C8009F090E0292B91E0893009F090E031E0BF
S1134C908B3009F030E0922B11F4332379F08091BA
S1134CA0D6028E3128F40E94C2250E94B1264AC041
S1134CB081E00E94C2250E94B12644C08091D602A0
S1134CC08F3128F40E94C2250E94B1263BC081E0A6
S1134CD00E94C2250E94B12635C085E00E94B126FB
S1134CE08091CE028C3028F40E94C2250E94B12605
S1134CF029C081E00E94C2250E94B12623C086E01B
S1134D000E94B1268091D202833628F40E94C225E3
S1134D100E94B12617C081E00E94C2250E94B126DC
S1134D2011C083E00E94B1268091D402873028F418
S1134D300E94C2250E94B12605C081E00E94C225BE
S1134D400E94B1260E94AE26089580E280B908959B
S1134D5084EA86BF06B607FEFDCF089584E986BFC0
S1134D60089583B984E886BF06B607FEFDCF08958B
S1134D7090BD89B98AB188618AB98BB182608BB9D7
S1134D8080B58E6880BD089580E090E00E947C1814
S1134D9081E00E94EF1560E070E08FEF9FEF0E94CA
S1134DA0D01D60E570E08EE690E00E94DD1F61E0BA
S1134DB08FE790E00E94E61FA89566E970E082E321
S1134DC090E00E94DD1F61E080E990E00E94E61F10
S1134DD0A8956CED70E084E690E00E94DD1F61E030
S1134DE086EA90E00E94E61FA89508950F931F930A
S1134DF0CF93DF9380E090E00E947C1881E00E94D2
S1134E00EF1560E570E08EE690E00E94DD1F61E042
S1134E1087EB90E00E94E61FA89568E770E08AE0BF
S1134E2090E00E94DD1F61E088EC90E00E94E61FA4
S1134E30A8950FEF1FEF22E330E04FE751E068EC55
S1134E4070E082E390E00E94031CC6E3D0E015C04A
S1134E500FEF1FEF25EF30E0AE016CEC70E0CE01F8
S1134E600E94251A2FEF89EF90E021508040904056
S1134E70E1F700C00000A8952196CD3A21E0D207C1
S1134E8038F3DF91CF911F910F9108950F931F93E2
S1134E9000E010E02CE330E04AE850E06AEF70E014
S1134EA083E090E00E94CF182CE330E04AE850E021
S1134EB06AEF70E08DE391E00E94CF181F910F918B
S1134EC008952F923F924F925F926F927F928F92AA
S1134ED09F92AF92BF92CF92DF92EF92FF920F9385
S1134EE01F93CF93DF930FEF1FEF21E030E040EDEE
S1134EF051E061E070E08FE090E00E94251A0F2EEF
S1134F00FEE0CF2ED12CF02DE12CF12C0F2EF4EE5F
S1134F108F2E99249A94F02DAA24A394B12C03EFF4
S1134F201FEF25C0112344F021E0C21AD10882E00A
S1134F30880E911C080D191D2FEFE21AF20A82E067
S1134F40A80EB11C0A0D1B1DCFE0D0E03E016C1869
S1134F507D08CE19DF094FEF5FEFB301CE010E9448
S1134F606D184FEF5FEFBE01C3010E946D18EC1482
S1134F70FD04C4F20FEF1FEF20E331E04EED51E0EA
S1134F806FE070E08EED91E00E94251A0EE010E0D3
S1134F9080E090E00F2EF4EE8F2E99249A94F02D59
S1134FA0CC24C394D12C0F2EF3EFEF2EFF24FA94CC
S1134FB0F02D28C0FF203CF00150110922E0820EA0
S1134FC0911CE80CF91C5C012FEFA21AB20A22E032
S1134FD0C20ED11CEC0CFD1CCFE0D0E0BE01601B66
S1134FE0710B4FEF5FEF8F529E4F0E946D18BE0101
S1134FF06A197B094FEF5FEFC80180539E4F0E94EF
S11350006D18C50180179107ACF20FEF1FEF20E375
S113501031E041E050E06FE070E081E090E00E9418
S1135020251A0EE010E0C0E0D0E00F2EF4EE8F2E33
S113503099249A94F02DCC24C394D12C0F2EF3EF01
S1135040EF2EFF24FA94F02D2CC0FF203CF00150E9
S1135050110982E0880E911CE80CF91C3E012FEF27
S1135060621A720A82E0C80ED11CEC0CFD1C0F2ED1
S1135070FFE0AF2EB12CF02D4FEF5FEFB801605D74
S11350807E4FC501861997090E946D18BE016F5C99
S11350907E4F4FEF5FEFC501801B910B0E946D188F
S11350A0E301C017D1078CF20FEF1FEF2EE331E0BD
S11350B040ED51E06EE371E08FE090E00E94251A2C
S11350C00EE010E0C0E0D0E00F2EF4EE8F2E992415
S11350D09A94F02DCC24C394D12C0F2EF3EFEF2E01
S11350E0FF24FA94F02D27C0FF203CF00150110951
S11350F022E0820E911CE80CF91C5E018FEFA81AC5
S1135100B80A22E0C20ED11CEC0CFD1C4FEF5FEF7D
S1135110B801605D7E4FCE018F529E4F0E946D1884
S1135120BE016F5C7E4F4FEF5FEFC80180539E4F0F
S11351300E946D18E501C017D107B4F20FEF1FEFFD
S11351402CED30E044EA50E06EE371E084EA90E054
S11351500E94251A21EE30E048EA50E06EE371E047
S113516088EA90E00E94251A2CED30E045E551E0F4
S11351706CED70E08BE391E00E94251A2CED30E099
S11351804AE351E06EE371E08AE391E00E94251A5C
S113519021EE30E046E351E06EE371E086E391E016
S11351A00E94251A2CED30E04EED51E06CED70E0DC
S11351B085EC91E00E94251A26EE30E04BEB51E09D
S11351C066EE70E080E691E00E94251A2EEC30E055
S11351D04BEB51E06EEC70E080E691E00E94251A02
S11351E04FEF5FEF6AED70E086E591E00E946D1885
S11351F00CE010E0C0E0D0E00F2EF8EE8F2E9924E2
S11352009A94F02DAA24A394B12C0F2EF5EFEF2E2F
S1135210FF24FA94F02D43C0FF203CF00150110903
S113522082E0880E911CE80CF91C6E012FEFC21A63
S1135230D20A82E0A80EB11CEA0CFB1C0F2EF2E687
S11352404F2E55245394F02D32016C187D084FEFE6
S11352505FEFB80166527F4FC3010E946D180F2E95
S1135260FAED2F2E312CF02DB101601B710B4FEF95
S11352705FEFC3010E946D18BE0165527F4F401A53
S1135280510A4FEF5FEFC2010E946D18B1016C1912
S11352907D094FEF5FEFC2010E946D18E601C01750
S11352A0D1070CF4B9CF4FEF5FEF6AED70E085ECF6
S11352B091E00E946D180CE010E0C0E0D0E00F2EE9
S11352C0F8EE8F2E99249A94F02DCC24C394D12CEB
S11352D00F2EF5EFEF2EFF24FA94F02D40C0FF209F
S11352E03CF00150110922E0820E911CE80CF91CDB
S11352F02E018FEF481A580A22E0C20ED11CEC0C82
S1135300FD1C5E0186E4A81A8EEFB80A4FEF5FEF2A
S1135310B80166527F4FC5010E946D180F2EFAED39
S11353206F2E712CF02DB301601B710B4FEF5FEFEB
S1135330C5010E946D18BE0165527F4F4FEF5FEFAC
S1135340E801C754DE4FCE010E946D18B301641901
S113535075094FEF5FEFCE010E946D18E201C0178F
S1135360D1070CF4BCCF60E070E080EE9FEF0E94A8
S1135370D01D60ED70E08DE591E00E94DD1F61E0DD
S113538083EE90E00E94CA2060E070E082EA9BEF26
S11353900E94D01D60ED70E088E290E00E94DD1F65
S11353A061E08BEE90E00E94CA200FEF1FEF26EE23
S11353B030E04FE750E066EE70E084E290E00E9457
S11353C0251A2EEC30E04FE750E06EEC70E084E2FA
S11353D090E00E94251A4FEF5FEF6AED70E08AE1DA
S11353E090E00E946D180CE010E0C0E0D0E00F2EB9
S11353F0F8EE8F2E99249A94F02DAA24A394B12C1C
S11354000F2EF5EFEF2EFF24FA94F02D42C0FF206B
S11354103CF00150110922E0820E911CE80CF91CA9
S11354206E018FEFC81AD80A22E0A20EB11CEA0C52
S1135430FB1C0F2EF6E24F2E512CF02D32016C186E
S11354407D084FEF5FEFB80166527F4FC3010E94A2
S11354506D180F2EFAED2F2E312CF02DB101601B9B
S1135460710B4FEF5FEFC3010E946D18BE016552CF
S11354707F4F401A510A4FEF5FEFC2010E946D182F
S1135480B1016C197D094FEF5FEFC2010E946D18E5
S1135490E601C017D1070CF4BACF4FEF5FEF6AED06
S11354A070E089E890E00E946D180CE010E0C0E024
S11354B0D0E00F2EF8EE8F2E99249A94F02DCC2460
S11354C0C394D12C0F2EF5EFEF2EFF24FA94F02D78
S11354D03FC0FF203CF00150110982E0880E911C6E
S11354E0E80CF91C2E012FEF421A520A82E0C80E72
S11354F0D11CEC0CFD1C5E012EE7A20EB11C4FEF7B
S11355005FEFB80166527F4FC5010E946D180F2EE0
S1135510FAED6F2E712CF02DB301601B710B4FEF60
S11355205FEFC5010E946D18BE0165527F4F4FEFBA
S11355305FEFE801C358DF4FCE010E946D18B3013D
S1135540641975094FEF5FEFCE010E946D18E201F7
S1135550C017D1070CF4BDCF0FEF1FEF2CED30E0D7
S113556049E150E06CED70E081E090E00E94251A82
S11355702CED30E043EA50E06CED70E089E890E017
S11355800E94251A28ED30E045E551E068ED70E011
S113559089E890E00E94251A28ED30E04AE150E0C5
S11355A068ED70E081E090E00E94251A28ED30E07B
S11355B04EED51E068ED70E085EC91E00E94251A13
S11355C028E730E04EED51E068E770E081E090E0DC
S11355D00E94251A2CE730E045E950E06CE770E0C2
S11355E081E090E00E94251A2CE730E04EED51E076
S11355F06CE770E08AE491E00E94251A24E630E02A
S113560041EA50E061E070E081E990E00E94251AEF
S113561024E630E04CE351E061E070E08CE491E09A
S11356200E94251A20E630E045EA50E061E070E08F
S113563085E990E00E94251A20E630E048E351E035
S113564061E070E088E491E00E94251A2FEF3FEFBB
S113565041E650E06FE970E08FEE90E00E94531A4B
S113566000E010E028E730E047E451E068E770E04C
S113567088E990E00E94251A28ED30E04DE351E0DE
S113568068ED70E081EA90E00E94251A29ED30E08F
S113569041E050E06BED70E081E090E00E94251A5B
S11356A029ED30E04EED51E06BED70E08EED91E0D0
S11356B00E94251A2BE730E041E050E069E770E0F2
S11356C081E090E00E94251A2BE730E04EED51E096
S11356D069E770E08EED91E00E94251A21E030E048
S11356E044E950E061E070E082E990E00E94251A0C
S11356F021E030E04BE451E061E070E089E491E0C6
S11357000E94251A2EE331E047EA50E06EE371E08F
S113571085EA90E00E94251A2EE331E049E351E046
S11357206EE371E087E391E00E94251AC5EAD0E0B8
S11357300BC000E010E026EE30E0AE016CED70E04E
S1135740CE010E94251A2196C83AD10590F3C7E3E9
S1135750D1E00BC000E010E026EE30E0AE016CEDCD
S113576070E0CE010E94251A2196CA3381E0D80741
S113577088F3C9EDD0E00BC000E010E09E014AEAD6
S113578050E0BE0180EA90E00E94251A2196CC3DAB
S1135790D10590F3C9EDD0E00BC000E010E09E010C
S11357A040E451E0BE0186E391E00E94251A21966F
S11357B0CC3DD10590F3C9E7D0E00BC000E010E088
S11357C09E0140EA50E0BE018CE890E00E94251A58
S11357D02196CC37D10590F3C9E7D0E00BC000E0A7
S11357E010E09E0144E551E0BE0180E491E00E9496
S11357F0251A2196CC37D10590F3C2EAD0E00BC02C
S113580000E010E024E630E0AE0160E670E0CE0196
S11358100E94251A2196C53AD10590F3C9E3D1E037
S11358200BC000E010E024E630E0AE0160E670E07A
S1135830CE010E94251A2196CC3321E0D20788F3A9
S1135840DF91CF911F910F91FF90EF90DF90CF9058
S1135850BF90AF909F908F907F906F905F904F908C
S11358603F902F90089580E090E00E947C1881E0A2
S11358700E94EF150E9461270895CF92DF92EF9264
S1135880FF920F931F932FEF3FEF4BE450E06FE92C
S113589070E08FEE90E00E94531A2FEF3FEF4CE43C
S11358A050E06FE970E08FEE90E00E94531A2FEF02
S11358B03FEF40E550E06FE970E08FEE90E00E942A
S11358C0531A2FEF3FEF41E550E06FE970E08FEEA0
S11358D090E00E94531A0FEF1FEF26E130E046E1FB
S11358E050E069E470E086EE90E00E94031C24E13D
S11358F030E044E150E06AE470E087EE90E00E941A
S1135900031C00E010E022E130E042E150E06BE4EF
S113591070E088EE90E00E94CF1860E070E080EEC6
S11359209FE10E94D01D69E470E089EE90E00E943E
S1135930DD1F61E089E192E00E94CA200FEF1FEFB2
S113594026E130E046E150E061EE70E086EE90E062
S11359500E94031C24E130E044E150E062EE70E078
S113596087EE90E00E94031C00E010E022E130E0AA
S113597042E150E063EE70E088EE90E00E94CF18C0
S113598060E070E080EE9FE10E94D01D61EE70E067
S11359908AEE90E00E94DD1F61E08BE192E00E94BC
S11359A0CA200FEF1FEF26E130E046E150E065E941
S11359B070E089E990E00E94031C24E130E044E1B6
S11359C050E066E970E08AE990E00E94031C00E080
S11359D010E022E130E042E150E067E970E08BE959
S11359E090E00E94CF1860E070E080EE9FE10E949A
S11359F0D01D65E970E08EE990E00E94DD1F61E052
S1135A0083E292E00E94CA200FEF1FEF26E130E00C
S1135A1046E150E065E970E080E391E00E94031CF8
S1135A2024E130E044E150E066E970E081E391E094
S1135A300E94031C00E010E022E130E042E150E06B
S1135A4067E970E082E391E00E94CF1860E070E0C3
S1135A5080EE9FE10E94D01D65E970E085E391E04E
S1135A600E94DD1F61E08FE192E00E94CA200FEFE7
S1135A701FEF2AE630E04AEB50E062E770E082EC88
S1135A8090E00E94251A29E630E04BEB50E061E7F4
S1135A9070E083EC90E00E94251A2BE630E049EB9D
S1135AA050E063E770E081EC90E00E94251A22E761
S1135AB030E04CE151E06AE670E084E291E00E945B
S1135AC0251A21E730E04BE151E069E670E083E21A
S1135AD091E00E94251A23E730E04DE151E06BE6A6
S1135AE070E085E291E00E94251A2CEC30E04CE154
S1135AF051E064ED70E084E291E00E94251A2BEC01
S1135B0030E04DE151E063ED70E085E291E00E9408
S1135B10251A2DEC30E04BE151E065ED70E083E2B5
S1135B2091E00E94251A2CEC30E042EC50E064ED48
S1135B3070E08AEB90E00E94251A2BEC30E041ECF7
S1135B4050E063ED70E089EB90E00E94251A2DECA3
S1135B5030E043EC50E065ED70E08BEB90E00E94A8
S1135B60251A20EE3FE14EE150E06FE970E08FEE40
S1135B7090E00E94531A20EE3FE14DE150E06FE9BE
S1135B8070E08FEE90E00E94531A2FEF3FEF4CE14C
S1135B9050E06FE970E08FEE90E00E94531A2FEF0F
S1135BA03FEF4BE150E06FE970E08FEE90E00E9430
S1135BB0531A2FEF3FEF4AE050E06FE970E08FEEA9
S1135BC090E00E94531A2FEF3FEF49E050E06FE955
S1135BD070E08FEE90E00E94531A20EE3FE148E01F
S1135BE050E06FE970E08FEE90E00E94DA1B25E947
S1135BF030E04DEE50E061E870E08FEE90E00E94FE
S1135C00251A25E930E041EF50E061E870E08FEEBD
S1135C1090E00E94251A2DE930E045EE50E06FE94E
S1135C2070E081ED90E00E94251A21EA30E045EE13
S1135C3050E06FE970E081ED90E00E94251A2DE9B3
S1135C4030E049EF50E06FE970E08DE091E00E94B0
S1135C50251A21EA30E049EF50E06FE970E08DE069
S1135C6091E00E94251A29EA30E04DEE50E06DEBF8
S1135C7070E08FEE90E00E94251A29EA30E041EFAF
S1135C8050E06DEB70E08FEE90E00E94251A0F2E2D
S1135C90F0EECF2EFFE1DF2EF02D0F2EF3E7EF2EE7
S1135CA0F12CF02D0FEE10E02CE730E049EE50E03F
S1135CB063E670E08FEE90E00E94381C0F2EFCE744
S1135CC0EF2EF12CF02D05EF10E023E730E04FEE3E
S1135CD050E063E670E08FEE90E00E94381C69E1CA
S1135CE072E089EE92E00E946E32892B19F50F2E34
