:100000000C9443000C9467150C9460000C946000F1
:100010000C9460000C9460000C9460000C94A5108B
:100020000C9460000C9460000C94CA100C94600056
:100030000C9460000C9460000C9460000C946000C0
:100040000C9460000C9460000C9460000C946000B0
:100050000C9460005D2B672B712B7B2B852B8F2BDA
:10006000992BB02BB82BC02BC82BD02BD82BE02B27
:10007000E82BF02BF82B002C082C6364696E6F7052
:10008000737578585B0011241FBECFE5D8E0DEBF42
:10009000CDBF12E0A0E6B0E0E4E8F9E602C00590CA
:1000A0000D92A83DB107D9F723E0A8EDB2E001C059
:1000B0001D92A13AB207E1F70E94D2110C94C0340C
:1000C0000C9400009FB7F89487B3826087BBE3E984
:1000D000F7E03197F1F700C0000087B38D7F87BB51
:1000E000E3E0F1E03197F1F700C00000B19902C000
:1000F00081E001C080E09FBFEFE8F6E03197F1F7C3
:1001000000C0000008952FB7F89487B3826087BBC2
:100110003AE03A95F1F700C087B38D7F87BB85E45D
:100120008A95F1F7000086B3827090E095958795E7
:1001300030EF3A95F1F72FBF0895CF93DF93C0E0EA
:10014000D0E00BC00E94830090E00C2E02C0880F0C
:10015000991F0A94E2F7D82BCF5FC83098F38D2F00
:10016000DF91CF9108952FB7F89497B3926097BB22
:100170009AE09A95F1F700C0882319F087B38D7F34
:1001800087BB83E091E00197F1F700C0000087B3DF
:100190008D7F87BB2FBF0895CF93DF93D82FC0E00B
:1001A00017C081E090E00C2E02C0880F991F0A94BE
:1001B000E2F72D2F30E0282339238217930721F40B
:1001C00081E00E94B30003C080E00E94B300CF5FD3
:1001D000C83038F3DF91CF910895CF930E94620029
:1001E000813009F58CEC0E94CC0084E40E94CC00A4
:1001F0002FEF8EE994E2215080409040E1F700C05B
:1002000000000E9462008CEC0E94CC008EEB0E94E9
:10021000CC000E949D00C82F0E949D0090E0982F66
:1002200088278C2B02C080E090E0CF9108958BBB93
:1002300085B38F7E85BB85B3806185BB0895CF93E1
:10024000C82F892F0E9417018C2F0E941701CF9170
:10025000089525B32F7D25BB0E941F0185B38062C1
:1002600085BB089525B3206225BB0E941F01089518
:10027000CF93DF93EB0125B32F7B25BB0E94290190
:10028000CE010E94320185B3806485BBDF91CF919E
:1002900008958FEF8ABB85B3806485BB85B3886082
:1002A00085BB85B3806185BB85B3806885BB2FEF37
:1002B00080E792E0215080409040E1F700C00000CC
:1002C00085B38F7785BB2FEF81EE94E0215080407E
:1002D0009040E1F700C0000085B3806885BB2FEF38
:1002E00081EE94E0215080409040E1F700C0000092
:1002F00060E070E080EB90E00E9438010895CF93B9
:10030000C82F85B38F7B85BB86E390E00E942901CF
:10031000C130B1F028F0C23019F1C33089F13FC0CB
:1003200088E40E94170180E491E09093DB028093BF
:10033000DA0280EE91E09093D9028093D8022FC028
:1003400088E20E94170180EE91E09093DB02809397
:10035000DA0280E491E09093D9028093D8021FC022
:1003600088E90E94170180E491E09093DB0280937A
:10037000DA0280EE91E09093D9028093D8020FC008
:1003800088EF0E94170180EE91E09093DB0280934A
:10039000DA0280E491E09093D9028093D80285B389
:1003A000806485BBCF9108950E9449012FEF85EAB3
:1003B0009EE0215080409040E1F700C00000A895E9
:1003C00085B38F7B85BB85B38F7D85BB81E00E9424
:1003D000170185B3806485BB2FEF82E597E021503C
:1003E00080409040E1F700C00000A89585B38F7B66
:1003F00085BB85B38F7D85BB88E20E94170185B3DD
:10040000806485BB85B38F7B85BB85B38F7D85BBC2
:100410008AE30E94170185B3806285BB85E50E944F
:10042000170185B3806485BB85B38F7B85BB85B39E
:100430008F7D85BB80EC0E94170185B3806285BBF0
:100440008DE00E94170185B3806285BB8DE00E941C
:10045000170185B3806485BB85B38F7B85BB85B36E
:100460008F7D85BB81EC0E94170185B3806285BBBF
:1004700083E40E94170185B3806285BB80E00E94FF
:10048000170185B3806485BB85B38F7B85BB85B33E
:100490008F7D85BB82EC0E94170185B3806285BB8E
:1004A00080E00E94170185B3806485BB85B38F7B94
:1004B00085BB85B38F7D85BB85EC0E94170185B315
:1004C000806285BB80E00E94170185B3806285BB96
:1004D00088E40E94170185B3806285BB80E00E949A
:1004E000170185B3806285BB88E40E94170185B33C
:1004F000806485BB85B38F7B85BB85B38F7D85BBD2
:1005000084EB0E94170185B3806285BB80E00E9466
:10051000170185B3806485BB85B38F7B85BB85B3AD
:100520008F7D85BB86EB0E94170185B3806285BBFA
:1005300082E00E94170185B3806285BB82E00E9441
:10054000170185B3806285BB8BE30E94170185B3D9
:10055000806485BB85B38F7B85BB85B38F7D85BB71
:1005600080EE0E94170185B3806285BB8FE00E94F8
:10057000170185B3806285BB81E20E94170185B3B4
:10058000806285BB8CE10E94170185B3806285BBC8
:100590008BE00E94170185B3806285BB8EE00E94CC
:1005A000170185B3806285BB88E00E94170185B37F
:1005B000806285BB89E40E94170185B3806285BB98
:1005C00088E90E94170185B3806285BB88E30E9499
:1005D000170185B3806285BB89E00E94170185B34E
:1005E000806285BB81E10E94170185B3806285BB73
:1005F00083E00E94170185B3806285BB84E10E947D
:10060000170185B3806285BB80E10E94170185B325
:10061000806285BB80E00E94170185B3806485BB42
:1006200085B38F7B85BB85B38F7D85BB81EE0E94B3
:10063000170185B3806285BB8FE00E94170185B3E7
:10064000806285BB8FE20E94170185B3806285BB03
:100650008BE20E94170185B3806285BB8CE00E940B
:10066000170185B3806285BB8EE00E94170185B3B8
:10067000806285BB86E00E94170185B3806285BBDE
:1006800087E40E94170185B3806285BB86E70E94DC
:10069000170185B3806285BB87E30E94170185B38C
:1006A000806285BB87E00E94170185B3806285BBAD
:1006B00081E10E94170185B3806285BB84E00E94BE
:1006C000170185B3806285BB83E20E94170185B361
:1006D000806285BB8EE10E94170185B3806285BB75
:1006E00080E00E94170185B3806485BB85B38F7B52
:1006F00085BB85B38F7D85BB81E10E94170185B3E2
:10070000806485BB2FEF82E597E0215080409040C8
:10071000E1F700C00000A89585B38F7B85BB85B34A
:100720008F7D85BB89E20E94170185B3806485BBFC
:1007300080E00E947F010895CF92DF92EF92FF92B6
:100740000F931F93CF93DF93D82EC92E162F072F09
:10075000F42EE52EC22FD32F85B38F7B85BB85B3B7
:100760008F7D85BB8AE20E94170185B3806285BBBD
:100770008C2D0E94170185B3806285BB8D2D0E9450
:10078000170185B3806285BB8E2D0E94170185B34A
:10079000806285BB8F2D0E94170185B3806485BB65
:1007A00085B38F7B85BB85B38F7D85BB8BE20E9434
:1007B000170185B3806285BB802F0E94170185B326
:1007C000806285BB812F0E94170185B3806285BB43
:1007D0008D2F0E94170185B3806285BB8C2F0E94EC
:1007E000170185B3806485BBDF91CF911F910F9175
:1007F000FF90EF90DF90CF900895CF93DF93EA01C1
:100800009B01AC010E949C03BE018CE290E00E941F
:100810003801DF91CF910895EF92FF920F931F93CC
:10082000CF93DF93E82EF92E2091D8023091D90290
:10083000215031094091DA025091DB0241505109B7
:1008400060E070E080E090E00E949C0385B38F7BC5
:1008500085BB85B38F7D85BB8CE20E94170185B374
:10086000806285BB00E010E019C085B3806285BB63
:100870008F2D0E94170185B3806285BB8E2D0E944B
:100880001701219602C0C0E0D0E08091D80290917B
:10089000D902C817D90748F30F5F1F4F8091DA02BA
:1008A0009091DB020817190770F385B3806485BB4C
:1008B000DF91CF911F910F91FF90EF900895CF920C
:1008C000DF92EF92FF920F931F93CF93DF93FC0180
:1008D000E40FF51F4091DA025091DB024E175F07DB
:1008E00008F0AF016A01C81AD90AFB01E20FF31F31
:1008F0002091D8023091D9022E173F0708F09F01AE
:10090000E901C61BD70B21503109415051090E9402
:100910009C0385B38F7B85BB85B38F7D85BB8CE2C4
:100920000E94170185B3806285BBCC16DD0690F06E
:1009300016C0E60185B3806285BB812F0E94170136
:1009400085B3806285BB802F0E941701219791F7A4
:10095000E70105C09C2D8D2D6E01C92FD82F7E017A
:1009600081E0E81AF108CD2B21F785B3806485BBBF
:10097000DF91CF911F910F91FF90EF90DF90CF907B
:1009800008950F931F93E091DA02F091DB028E1726
:100990009F07D0F4E091D802F091D9026E177F073B
:1009A00098F44115510581F0DB01A40FB51F119793
:1009B000AE17BF0718F0AF01461B570B89019A010C
:1009C00041E050E00E945F041F910F9108950F9342
:1009D0001F93E091DA02F091DB028E179F07C8F4B3
:1009E000A091D802B091D9026A177B0790F4411503
:1009F000510579F0DC01A40FB51F1197AE17BF07A1
:100A000018F0AF01481B590B890121E030E00E942A
:100A10005F041F910F9108952F923F924F925F9222
:100A20006F927F928F929F92AF92BF92CF92DF92FE
:100A3000EF92FF920F931F93CF93DF9300D000D0DC
:100A4000CDB7DEB79C838B837B016A011A83098350
:100A5000C901861B970B8C0122F400271127081B64
:100A6000190BC6014B815C81841B950B5C0122F440
:100A7000AA24BB24A81AB90AA016B1065CF49C2DBE
:100A80008D2D6901292F382F9B818C81FC82EB826F
:100A9000E92EF82E8B819C81C816D9065CF49E2D18
:100AA0008F2D7901292F382F9B818C81DC82CB827D
:100AB000C92ED82E16014B815C81241A350AC90132
:100AC0008E199F093C0122F466247724681A790A5A
:100AD000410133201CF45FEF851A950A95948794A1
:100AE000E216F30624F444244394512C22C04424F7
:100AF0004A94542C1EC0A016B10644F449815A8170
:100B00006B817C81C7010E94FD0307C049815A8126
:100B1000B7018B819C810E94FD038618970822F4FF
:100B2000E40CF51C820C931C8B819C8101969C83A8
:100B30008B834B815C81C416D506ECF60F900F9029
:100B40000F900F90DF91CF911F910F91FF90EF9039
:100B5000DF90CF90BF90AF909F908F907F906F90DD
:100B60005F904F903F902F9008950F931F9384179D
:100B7000950789F4261737072CF4562F472FB9010C
:100B8000252F342FA901461B570B4F5F5F4F98014C
:100B90000E94C10415C06217730781F448175907F2
:100BA0002CF4382F292FCA01432F522F481B590BE1
:100BB0004F5F5F4F98010E94E70402C00E940C053E
:100BC0001F910F9108952F923F924F925F926F92D3
:100BD0007F928F929F92AF92BF92CF92DF92EF92CD
:100BE000FF920F931F93CF93DF9300D000D000D0DC
:100BF000CDB7DEB76C014B015E834D83022F132FFF
:100C000081E090E07C01E41AF50ACA019195819592
:100C10009109880F991F9C838B8329833A83BA019A
:100C2000680D791D422F532FC6010E94FD03B401A8
:100C30002D813E81621B730B402F512FC6010E94F4
:100C4000FD03402F512FB4018D819E818C0D9D1D80
:100C50000E94FD03402F512FB401C6012D813E811A
:100C6000821B930B0E94FD0300E010E06624639456
:100C7000712C64C0FF206CF08D819E8101979E8352
:100C80008D832B813C812E5F3F4F3C832B83E20E73
:100C9000F31E0F5F1F4F32E0630E711CE60CF71C52
:100CA0005601A00EB11E49815A812D803E80280C2C
:100CB000391CB101C5010E94FD032601401A510AE9
:100CC00049815A81B101C2010E94FD0349815A81C3
:100CD00014018D819E81281A390AB101C5010E9433
:100CE000FD0349815A81B101C2010E94FD035401F3
:100CF000A00EB11E49815A81B5014D805E804C0C19
:100D00005D1CC2010E94FD0349815A81B501160193
:100D10002D813E81221A330AC1010E94FD03540134
:100D2000A01AB10A49815A81B501C2010E94FD038E
:100D300049815A81B501C1010E94FD038D819E81C7
:100D4000081719070CF496CF26960FB6F894DEBF55
:100D50000FBECDBFDF91CF911F910F91FF90EF900C
:100D6000DF90CF90BF90AF909F908F907F906F90CB
:100D70005F904F903F902F9008953F924F925F92D7
:100D80006F927F928F929F92AF92BF92CF92DF929B
:100D9000EF92FF920F931F93CF93DF9300D000D079
:100DA000CDB7DEB74C015B016A01322E3801FA8201
:100DB000E98201E010E0041B150B44245524441A79
:100DC000550A440C551C1C821B82EE24E394F12C22
:100DD00065C0112344F081E0C81AD10892E0490EA1
:100DE000511C040D151DEB81FC813196FC83EB83B6
:100DF000F2E0EF0EF11C0E0D1F1D30FE26C0A60105
:100E0000440F551F4F5F5F4F460D571D29813A8193
:100E1000B5016C197D098B819C81880D991D0E94FB
:100E2000C1044B815C81440F551F4F5F5F4F460DDE
:100E3000571D29813A81B5018B819C81681B790BF3
:100E4000C601880D991D0E94C10431FE27C0A6016C
:100E5000440F551F4F5F5F4F460D571D29813A8143
:100E6000B5016C197D09C401EB81FC818E1B9F0BC0
:100E70000E94C1044B815C81440F551F4F5F5F4F3F
:100E8000460D571D29813A81B5018B819C81681BD4
:100E9000790BC4018C199D090E94C104EB81FC816E
:100EA000EC15FD050CF495CF0F900F900F900F905F
:100EB000DF91CF911F910F91FF90EF90DF90CF9036
:100EC000BF90AF909F908F907F906F905F904F906A
:100ED0003F900895AF92BF92CF92DF92EF92FF9230
:100EE0000F931F93CF93DF936C015B01EA017901AC
:100EF000440F551F4F5F5F4F6C1B7D0B0E94C10459
:100F000000E010E023E0AE01B501C6010E94BD067D
:100F1000DF91CF911F910F91FF90EF90DF90CF90D5
:100F2000BF90AF900895AF92BF92CF92DF92EF92B1
:100F3000FF920F931F93CF93DF93EC017B015A0134
:100F4000690198010E94E704B7016C0D7D1D615095
:100F500071099801A501CE010E94E7049801A6013C
:100F6000B701CE010E94C104C5018C0F9D1F9801DD
:100F7000A601B70101970E94C104DF91CF911F9193
:100F80000F91FF90EF90DF90CF90BF90AF900895BA
:100F90002F923F924F925F926F927F928F929F9289
:100FA000AF92BF92CF92DF92EF92FF920F931F9377
:100FB000CF93DF93CDB7DEB768970FB6F894DEBF57
:100FC0000FBECDBF1C01788B6F875E834D833E873C
:100FD0002D87FC86EB86D886CF82261737075CF4F0
:100FE0009F858889388B2F879D878E87922D832DAB
:100FF0001A019D838E832D853E854B855C85421726
:10100000530764F49D858E855E874D879B878C870B
:101010009D818E811E830D83092F182F8F859889BE
:10102000AD85BE85A817B90764F49F858889B88BFC
:10103000AF879D878E87922D832D2D803E809D8347
:101040008E83EF85F8892B853C85E217F30759F5E8
:101050004D815E814215530564F0241635061CF05F
:101060003E822D8206C09D818E813E822D82292E58
:10107000382E8D819E810817190744F020163106FD
:1010800014F08C0103C018010D811E81A101401BC9
:10109000510B4F5F5F4F2F8138856F857889C8016D
:1010A0000E94E704F4C0AD81BE81A219B309BA8BD6
:1010B000A98B4D845E84EF85F8894E1A5F0A9801EA
:1010C000221933093A8329834B855C854E1B5F0BBC
:1010D0005A874987C801AD81BE818A1B9B0B9E8BB5
:1010E0008D8BEB85FC852D853E85E21BF30BFC8B00
:1010F000EB8B4B855C852417350729F0390151E0CE
:10110000651A710802C06D847E840F851889812C50
:10111000912C5401C12CD12C760146C0C701B601D7
:101120009201052C000C440B550B0E944B2EC10163
:10113000820F931F988F8F8BC501B401A985BA8543
:101140009D01BB0F440B550B0E944B2EC101820F1A
:10115000931FE989FA89AF01FF0F660B770BC40E65
:10116000D51EE61EF71E29813A81A901330F660BB1
:10117000770B840E951EA61EB71E4F89588D8417B7
:1011800095072CF0382F292FCA013F8B288F4F89C4
:10119000588D481B590B4F5F5F4F2F813885B80121
:1011A0000E94E7040F5F1F4F601671060CF0B6CF68
:1011B0008D899E892C01990F66087708D801ED85E5
:1011C000FE85AE1BBF0BA30192010E948A2E4B012C
:1011D0005C0129813A81032E000C440B550B2983B5
:1011E0003A834B835C83D8014F855889A41BB50B88
:1011F00029813A814B815C810E948A2E6B017C019E
:1012000040C0C501B401AB89BC899D01BB0F440B33
:10121000550B0E944B2EED81FE81E20FF31FFE87DE
:10122000ED87C701B601A985BA859D01BB0F440BA7
:10123000550B0E944B2EC101820F931F840C951CED
:10124000A61CB71C29813A814B815C81C20ED31E3A
:10125000E41EF51E4D855E85841795072CF0382F0A
:10126000292FCA013D872E874D855E85481B590B66
:101270004F5F5F4F2F813885B8010E94E7040F5FF1
:101280001F4F8B859C85801791070CF0BACF68960D
:101290000FB6F894DEBF0FBECDBFDF91CF911F9187
:1012A0000F91FF90EF90DF90CF90BF90AF909F9005
:1012B0008F907F906F905F904F903F902F90089508
:1012C0009093500380934F0370934E0360934D03AC
:1012D00008958F929F92AF92BF92CF92DF92EF923A
:1012E000FF920F931F93CF93DF93CDB7DEB7C55116
:1012F000D1400FB6F894DEBF0FBECDBF8C017B018D
:10130000B42EA22E0000CE0101960E94351980E66F
:1013100090E00E946D1A8091DA029091DB020E97A4
:101320008017910708F417C18091D8029091D902D3
:1013300048978E159F0508F40EC16E012DE2C20E6E
:10134000D11C82EBD6011D928A95E9F7FE01E1528C
:10135000FF4F8BE2DF011D928A95E9F7BB968AE089
:10136000DF011D928A95E9F72B2D30E0A0E4B5E06E
:101370000E94702EDC01CB0180549545A140B1093B
:10138000BC01CD01689412F896958795779567957D
:101390001694D1F70E94BA1BAE014C5E5E4F67EA0D
:1013A00070E0C6010E94C91A812C912CC12CD12C4D
:1013B00043C0B0E2BB120EC035C0EAE0F1E0EC0F72
:1013C000FD1FE20FF31F8083EFEFCE1ADE0A2F5FBF
:1013D0003F4F02C020E030E0EDE2F0E0EC0FFD1FF7
:1013E000EC0DFD1D80818C3241F7F2E0CF0ED11C57
:1013F0008FED90E08C0F9D1F880D991D9F938F930B
:101400008AE690E09F938F93CE01865F9E4F9F93D5
:101410008F930E94C42E0F900F900F900F900F90FB
:101420000F9007C0EFEDF0E0EC0FFD1FE80DF91D88
:1014300010822FEF821A920A3AE2831691040CF47A
:10144000B8CF9701295E3F4FA801415F5F4FB701B9
:10145000C8010E949C03B12C77C08D2D90E0FC0147
:10146000EE0FFF1FE80FF91F8B2D90E0E80FF91F1B
:10147000AFEDB0E0AC0FBD1FEA0FFB1F2081A895B8
:10148000A11035C04C2D50E030E00C2C02C0359539
:1014900027950A94E2F720FF15C0BC01660F771F5D
:1014A000660F771F660F771F640F751F40914F03FC
:1014B000509150036E0D7F1DC8018D0D911D0E942E
:1014C000FD0334C0BC01660F771F660F771F660FE0
:1014D000771F640F751F40914D0350914E036E0DA1
:1014E0007F1DC8018D0D911D0E94FD031FC04C2D55
:1014F00050E030E00C2C02C0359527950A94E2F7B5
:1015000020FF14C0BC01660F771F660F771F660FA0
:10151000771F640F751F40914F03509150036E0D5C
:101520007F1DC8018D0D911D0E94FD03D39401C044
:10153000D12CBDE0BD1508F090CFC39401C0C12CE3
:10154000E7E0EC15A8F7B394F2E0FB15C0F780E0F4
:1015500090E00E943519CB5EDE4F0FB6F894DEBFE7
:101560000FBECDBFDF91CF911F910F91FF90EF90F4
:10157000DF90CF90BF90AF909F908F9008958F9203
:101580009F92AF92BF92CF92DF92EF92FF920F9312
:101590001F93CF93DF93CDB7DEB7CB5AD1400FB6B1
:1015A000F894DEBF0FBECDBF8C017B01B42EA22EFE
:1015B0000000CE0101960E9435198DE690E00E9450
:1015C0006D1A8091DA029091DB02429780179107A1
:1015D00008F418C18091D8029091D90280978E1595
:1015E0009F0508F40FC16E012DE2C20ED11C8AE2E4
:1015F00091E0D601FC011D923197E9F7FE01E95A0D
:10160000FE4F89E4DF011D928A95E9F7E75BFF4F02
:101610008AE0DF011D928A95E9F72B2D30E0A0E0EA
:10162000B9E00E94702EDC01CB019052A140B109BB
:10163000BC01CD01689412F89695879577956795CA
:101640001694D1F70E94BA1BAE0146555E4F6FE16A
:1016500071E0C6010E94C91A812C912CC12CD12C99
:1016600043C0B0E2BB120EC035C0E0EAF1E0EC0FBF
:10167000FD1FE20FF31F8083EFEFCE1ADE0A2F5F0C
:101680003F4F02C020E030E0EDE2F0E0EC0FFD1F44
:10169000EC0DFD1D80818C3241F7F2E0CF0ED11CA4
:1016A00087E591E08C0F9D1F880D991D9F938F9367
:1016B0008AE690E09F938F93CE0180569E4F9F9332
:1016C0008F930E94C42E0F900F900F900F900F9049
:1016D0000F9007C0E7E5F1E0EC0FFD1FE80DF91DE5
:1016E00010822FEF821A920A38E4831691040CF4C8
:1016F000B8CF9701215E3F4FA8014F5E5F4FB70102
:10170000C8010E949C03B12C76C0ED2DF0E0EE0FD5
:10171000FF1FEE0FFF1F8B2D90E0E80FF91FA7E5CD
:10172000B1E0AC0FBD1FEA0FFB1F2081A895A110EF
:1017300035C04C2D50E030E00C2C02C0359527957B
:101740000A94E2F720FF15C0BC01660F771F660FF1
:10175000771F660F771F640F751F40914F035091DD
:1017600050036E0D7F1DC8018D0D911D0E94FD035C
:1017700034C0BC01660F771F660F771F660F771F97
:10178000640F751F40914D0350914E036E0D7F1DE8
:10179000C8018D0D911D0E94FD031FC04C2D50E00E
:1017A00030E00C2C02C0359527950A94E2F720FF13
:1017B00014C0BC01660F771F660F771F660F771F77
:1017C000640F751F40914F03509150036E0D7F1DA4
:1017D000C8018D0D911D0E94FD03D39401C0D12C31
:1017E000B1E1BD1508F091CFC39401C0C12CE7E071
:1017F000EC15A8F7B394F3E0FB15C0F780E090E098
:101800000E943519C555DE4F0FB6F894DEBF0FBEE6
:10181000CDBFDF91CF911F910F91FF90EF90DF909F
:10182000CF90BF90AF909F908F9008958F929F928E
:10183000AF92BF92CF92DF92EF92FF920F931F93DE
:10184000CF93DF93CDB7DEB7C352D2400FB6F89433
:10185000DEBF0FBECDBF8C017B01D42EA22E0000B7
:10186000CE0101960E94351987E790E00E946D1A1B
:101870008091DA029091DB0248978017910708F473
:101880000BC18091D8029091D90280978E159F0547
:1018900008F402C14E012DE2820E911C8AE891E00B
:1018A000D401FC011D923197E9F7FE01E954FE4F86
:1018B00081E6DF011D928A95E9F7EF59FF4F8AE033
:1018C000DF011D928A95E9F72D2D30E0A0E0BCE004
:1018D0000E94702EDC01CB019054A240B109BC01E2
:1018E000CD01689412F8969587957795679516942B
:1018F000D1F70E94BA1BAE014E5D5D4F6FE771E0FC
:10190000C4010E94C91A812C912CC12CD12C37C042
:10191000E8E1F2E0EC0FFD1FE20FF31F8083BFEF61
:10192000CB1ADB0A2F5F3F4F02C020E030E0EDE230
:10193000F0E0EC0FFD1FEC0DFD1D80818C3241F7B6
:10194000E2E0CE0ED11C87EB91E08C0F9D1F880D3D
:10195000991D9F938F938AE690E09F938F93CE017A
:10196000885E9D4F9F938F930E94C42EFFEF8F1A26
:101970009F0A0F900F900F900F900F900F9020E6FE
:101980008216910494F2970121503109A801415027
:101990005109B701C8010E949C03B12C76C0ED2DFE
:1019A000F0E0EE0FFF1FEE0FFF1F8B2D90E0E80F12
:1019B000F91FA7EBB1E0AC0FBD1FEA0FFB1F2081A1
:1019C000A895A11035C04C2D50E030E00C2C02C081
:1019D000359527950A94E2F720FF15C0BC01660FE4
:1019E000771F660F771F660F771F640F751F409173
:1019F0004F03509150036E0D7F1DC8018D0D911D39
:101A00000E94FD0334C0BC01660F771F660F771F6D
:101A1000660F771F640F751F40914D0350914E0361
:101A20006E0D7F1DC8018D0D911D0E94FD031FC00D
:101A30004C2D50E030E00C2C02C0359527950A94CF
:101A4000E2F720FF14C0BC01660F771F660F771FF7
:101A5000660F771F640F751F40914F03509150031D
:101A60006E0D7F1DC8018D0D911D0E94FD03D39445
:101A700001C0D12CB7E1BD1508F091CFC39401C0CE
:101A8000C12CE7E0EC15A8F7B394F3E0FB15C0F721
:101A900080E090E00E943519CD5DDD4F0FB6F894DF
:101AA000DEBF0FBECDBFDF91CF911F910F91FF9091
:101AB000EF90DF90CF90BF90AF909F908F90089560
:101AC0008F929F92AF92BF92CF92DF92EF92FF924E
:101AD0000F931F93CF93DF93CDB7DEB7C350D4409E
:101AE0000FB6F894DEBF0FBECDBF8C017B01B42EC4
:101AF000A22E0000CE0101960E94351981E890E0E7
:101B00000E946D1A8091DA029091DB028097801713
:101B1000910708F41BC18091D8029091D902C09717
:101B20008E159F0508F412C16E012DE2C20ED11C64
:101B30008AE093E0D601FC011D923197E9F7FE019E
:101B4000E95CFC4F81ECDF011D928A95E9F7EF53C8
:101B5000FF4F8AE0DF011D928A95E9F72B2D30E0D7
:101B6000A0E0B8E10E94702EDC01CB019853A440A4
:101B7000B109BC01CD01689412F8969587957795C7
:101B800067951694D1F70E94BA1BAE014E5F5B4F6A
:101B90006FEF72E0C6010E94C91A812C912CC12CF2
:101BA000D12C43C0B0E2BB120EC035C0E8EFF3E069
:101BB000EC0FFD1FE20FF31F8083EFEFCE1ADE0A5A
:101BC0002F5F3F4F02C020E030E0EDE2F0E0EC0F8D
:101BD000FD1FEC0DFD1D80818C3241F7F2E0CF0E30
:101BE000D11C87E393E08C0F9D1F880D991D9F9357
:101BF0008F938AE690E09F938F93CE0188509C4FFD
:101C00009F938F930E94C42E0F900F900F900F9070
:101C10000F900F9007C0E7E3F3E0EC0FFD1FE80D16
:101C2000F91D10822FEF821A920A30EC831691046C
:101C30000CF4B8CF970121503109A8014150510946
:101C4000B701C8010E949C03B12C79C08D2D90E092
:101C5000FC01EE0FFF1FE80FF91FEE0FFF1F8B2D8A
:101C600090E0E80FF91FA7E3B3E0AC0FBD1FEA0F48
:101C7000FB1F2081A895A11035C04C2D50E030E00D
:101C80000C2C02C0359527950A94E2F720FF15C069
:101C9000BC01660F771F660F771F660F771F640FF3
:101CA000751F40914F03509150036E0D7F1DC80169
:101CB0008D0D911D0E94FD0334C0BC01660F771F7E
:101CC000660F771F660F771F640F751F40914D03D6
:101CD00050914E036E0D7F1DC8018D0D911D0E9408
:101CE000FD031FC04C2D50E030E00C2C02C0359598
:101CF00027950A94E2F720FF14C0BC01660F771FF6
:101D0000660F771F660F771F640F751F40914F0393
:101D1000509150036E0D7F1DC8018D0D911D0E94C5
:101D2000FD03D39401C0D12CBFE1BD1508F08ECFC7
:101D3000C39401C0C12CE7E0EC15A8F7B394F5E01B
:101D4000FB15C0F780E090E00E943519CD5FDB4FB6
:101D50000FB6F894DEBF0FBECDBFDF91CF911F91BC
:101D60000F91FF90EF90DF90CF90BF90AF909F903A
:101D70008F9008957093540360935303909352038C
:101D80008093510308950F931F93CF93DF93EC013A
:101D9000062F10E05DC0222309F462C02A3079F4D6
:101DA0002091530330915403205E3F4F30935403EE
:101DB00020935303109252031092510321962091C5
:101DC000DA023091DB0222513109409151035091E6
:101DD00052032417350770F41092520310925103E6
:101DE0002091530330915403205E3F4F30935403AE
:101DF000209353032091D8023091D9022052310907
:101E000040915303509154032417350740F4109226
:101E10005203109251031092540310925303FE0187
:101E2000E80FF91F6091530370915403202F4081F4
:101E300080915103909152030E94BF0A80915103F7
:101E400090915203429690935203809351031F5FE7
:101E5000812F90E0FE01E80FF91F208121119BCF17
:101E6000DF91CF911F910F9108950F931F93CF93FF
:101E7000DF93EC01062F10E05DC0222309F462C05D
:101E80002A3079F42091530330915403275E3F4F59
:101E90003093540320935303109252031092510332
:101EA00021962091DA023091DB02295131094091CB
:101EB0005103509152032417350770F410925203C6
:101EC000109251032091530330915403275E3F4FEA
:101ED00030935403209353032091D8023091D902B8
:101EE0002951310940915303509154032417350768
:101EF00040F4109252031092510310925403109226
:101F00005303FE01E80FF91F6091530370915403CE
:101F1000202F408180915103909152030E94160C12
:101F2000809151039091520349969093520380936C
:101F300051031F5F812F90E0FE01E80FF91F208100
:101F400021119BCFDF91CF911F910F9108950F9396
:101F50001F93CF93DF93EC01062F10E05DC0222387
:101F600009F462C02A3079F420915303309154036C
:101F7000285D3F4F30935403209353031092520334
:101F80001092510321962091DA023091DB022E51FA
:101F9000310940915103509152032417350770F4D1
:101FA0001092520310925103209153033091540325
:101FB000285D3F4F30935403209353032091D80260
:101FC0003091D90228523109409153035091540362
:101FD0002417350740F410925203109251031092C7
:101FE000540310925303FE01E80FF91F609153034D
:101FF00070915403202F408180915103909152039E
:102000000E94600D80915103909152034E969093DF
:102010005203809351031F5F812F90E0FE01E80F70
:10202000F91F208121119BCFDF91CF911F910F913B
:1020300008950F931F93CF93DF93EC01062F10E0C9
:102040005DC0222309F462C02A3079F42091530341
:1020500030915403285E3F4F309354032093530331
:10206000109252031092510321962091DA0230917E
:10207000DB022E5031094091510350915203241735
:10208000350770F4109252031092510320915303BC
:1020900030915403285E3F4F3093540320935303F1
:1020A0002091D8023091D90228513109409153032F
:1020B000509154032417350740F4109252031092A4
:1020C00051031092540310925303FE01E80FF91FBD
:1020D0006091530370915403202F408180915103EC
:1020E000909152030E94690980915103909152038B
:1020F0000E9690935203809351031F5F812F90E0BF
:10210000FE01E80FF91F208121119BCFDF91CF91B4
:102110001F910F9108958EB588608EBD89B780613B
:1021200089BF87E08BBD80ED8ABD8EB582608EBD94
:10213000089583B7886083BF88EC8CBF83B78260C3
:1021400083BF89B7826089BF08951F920F920FB62F
:102150000F9211248F939F93AF93BF938091DC02D2
:102160009091DD02A091DE02B091DF020196A11DE7
:10217000B11D8093DC029093DD02A093DE02B09348
:10218000DF02BF91AF919F918F910F900FBE0F9083
:102190001F9018951F920F920FB60F921124CF9295
:1021A000DF92EF92FF922F933F934F935F936F9342
:1021B0007F938F939F93AF93BF938399ADC013BECB
:1021C000839BFECF8399FECF40E050E04AC0C09091
:1021D000DC02D090DD02E090DE02F090DF02839B13
:1021E000FECF20E030E019C02F5F3F4F8FE891E035
:1021F0000197F1F700C000008091DC029091DD02B0
:10220000A091DE02B091DF028C199D09AE09BF09D1
:1022100085369105A105B10514F48399E5CF2D30DC
:10222000310574F02FE130E0241B350B81E090E0A4
:1022300002C0880F991F2A95E2F7682B792B0FC0EF
:102240002FE130E0241B350B81E090E002C0880FC5
:10225000991F2A95E2F780959095682379234F5F1F
:102260005F4F403251050CF4B2CF673C98E37907D9
:1022700041F0653B2AE4720729F1673E784159F540
:1022800016C080915903811104C081E080935903E5
:1022900022C0813001F58091E00283781CF48150E6
:1022A0008C6F8F5F811117C01092590314C08091F9
:1022B000E00281508093E00288236CF48FE08093E9
:1022C000E00209C08091E0028F5F8093E0028031DC
:1022D00014F01092E00282B38F7782BB8FE99FE007
:1022E0000197F1F700C0000082B3806882BB88B319
:1022F000846088BB9FEF21EE84E0915020408040B5
:10230000E1F700C0000088B38B7F88BB83B788608B
:1023100083BF83B7826083BFBF91AF919F918F913D
:102320007F916F915F914F913F912F91FF90EF902F
:10233000DF90CF900F900FBE0F901F90189587B32E
:10234000886B87BB88B38F7488BB88B3806188BB78
:1023500080E58DB9089581B38B7F81BB82B38460A2
:1023600082BB87B3846087BB88B38B7F88BB81B314
:10237000877F81BB82B3886082BB81B3806881BB69
:1023800082B3806882BB1BBA8FEF8ABB84B3886F2D
:1023900084BB85B3877085BB08958FB9779BFECFCB
:1023A0008FB1089581B5877F81BD9FE088E10FB629
:1023B000F894A89581BD0FBE91BD0E94AB1188B362
:1023C000846088BB0E949F110E94031D88E090E0FA
:1023D0000E94241D0E94D401A8950E94F21CA89579
:1023E000A895A89588B38B7F88BB0E948B100E940C
:1023F000991085E0EBE8F0E0ABE1B3E001900D92DD
:102400008A95E1F785E0EBE8F0E0A6E1B3E0019022
:102410000D928A95E1F785E0EBE8F0E0A1E1B3E009
:1024200001900D928A95E1F785E0EBE8F0E0ABE0F2
:10243000B3E001900D928A95E1F785E0EBE8F0E0DA
:10244000A6E0B3E001900D928A95E1F785E0EBE814
:10245000F0E0A0E0B3E001900D928A95E1F7E7E4A7
:10246000F3E080E3808381839EE292838383E2E4CE
:10247000F3E080838183EDE2F3E0808391838283C4
:102480008383ECE3F3E08083818392838383E7E3B8
:10249000F3E08083818395E0E2EAF0E0A2E3B3E039
:1024A00001900D929A95E1F7809321038DE280933C
:1024B0007703809327038CE993E09F938F9388E9B8
:1024C00093E09F938F9384E993E09F938F9386E8A3
:1024D00093E09F938F9382E893E09F938F938EE78F
:1024E00093E09F938F9380E990E09F938F9381EE89
:1024F00092E09F938F930E94A22E0E94EA2D0E9449
:1025000097260E9492280E944E2C10925B0381E035
:102510008093620378948DB79EB740960FB6F89477
:102520009EBF0FBE8DBF8091F802813009F4FFCFAE
:10253000C090DC02D090DD02E090DE02F090DF027D
:1025400090EEC91693E9D90694E0E906F1044CF03F
:102550001092DC021092DD021092DE021092DF0275
:1025600042C0C701B60128EE33E040E050E00E94CF
:102570004B2E672B682B692BB1F1C701B60124E6FE
:1025800030E040E050E00E944B2E672B682B692B17
:1025900051F580915903882319F08130A1F023C0AF
:1025A00080915B03813061F40E9497260E949228FB
:1025B0000E944E2C10925B0381E08093620313C053
:1025C0000E944E2C10C080916203813051F40E9411
:1025D00002220E944D221092620381E080935B03ED
:1025E00002C00E944D22A8959ECF20E012C08823F1
:1025F00024F092B39F7B92BB03C092B3906492BBD2
:10260000880F92B3906292BB000092B39F7D92BB01
:102610002F5F283060F3089582B3806482BB80E02E
:1026200020E00BC092B3906292BB880F84998160C6
:1026300092B39F7D92BB00002F5F283098F30895DE
:10264000FF920F931F93CF93DF93C82FD42F152F93
:10265000062FF72E88234CF4CF7740E050E0BA01E4
:1026600087E70E942013823050F585B3846085BBD4
:102670000E940C1385B38B7F85BB0E940C138C2F9B
:102680000E94F5128F2D0E94F512802F0E94F512E4
:10269000812F0E94F5128D2F0E94F512C03411F087
:1026A00081E001C085E9C83409F487E80E94F51289
:1026B000CAE00E940C13882314F4C150D1F7DF91B3
:1026C000CF911F910F91FF9008950E940C130895D0
:1026D000CF92DF92EF92FF920F931F93CF93DF93EE
:1026E0007C0169018091F70283FD09C0032E39E066
:1026F000440F551F661F771F3A95D1F7302D81E59E
:102700000E942013811134C0C0E3D5E70E940C134E
:102710008F3F11F42197D1F78E3F61F5CC27DD274C
:10272000CC19DD09C01BD10BCE5FDD4FC114D10424
:1027300031F00E940C1381E0C81AD108D1F7E114DE
:10274000F10469F06701EFEFCE1ADE0A0E940C1364
:10275000F7018083015011097601A1F703C00150F0
:102760001109E9F70E940C132197E1F7C0E003C0BB
:10277000C1E001C0C1E00E9465138C2FDF91CF91B1
:102780001F910F91FF90EF90DF90CF9008950F93DE
:102790001F93CF93DF93FC01892BF1F0EA0111C065
:1027A0008F010F5F1F4F80810E94F5128091F5020B
:1027B0009091F60201979093F6028093F50221978B
:1027C000F801209709F454C08091F5029091F60227
:1027D000892B31F7C0E04FC04115510561057105E6
:1027E00001F18091F70283FD09C0032E39E0440F07
:1027F000551F661F771F3A95D1F7302D88E50E9447
:102800002013811137C08FEF0E94F5128EEF0E94C6
:10281000F51280E092E09093F6028093F502C0E01A
:102820002AC08091F5029091F602029604C080E0E1
:102830000E94F512CE01EC012197892BC1F70E946D
:102840000C138F71853021F0C1E00FC0219702C0B9
:10285000C8EEDDEF0E940C138F3F11F02097B1F707
:10286000CD2B11F4C1E001C0C0E00E94651303C08C
:10287000C0E001C0C1E08C2FDF91CF911F910F917B
:102880000895EF92FF920F931F93CF93DF9300D0A1
:1028900000D0CDB7DEB785B3846085BB82B38065D9
:1028A00082BB84B3846084BB81B3806681BBAA99F8
:1028B00007C040E050E0BA0180E090E00E94C713FA
:1028C00014E603C00E940C1311501111FBCF40E01D
:1028D00050E0BA0180E40E942013813009F08FC0DB
:1028E0004AEA51E060E070E088E40E942013813001
:1028F00009F053C00DC0E02EF12C0E940C13E1E052
:10290000F0E0EC0FFD1FEE0DFF1D80830F5F01C097
:10291000012F043080F38B81813009F072C08C81EB
:102920008A3A31F0F12C78C081E0E81AF10806C04B
:102930000F2EF0EEEF2EFEE2FF2EF02DE114F1044B
:1029400049F040E050E060E070E489EE0E9420131E
:102950008111EACFEF2809F456C040E050E0BA01F7
:102960008AE70E942013882371F0F12C55C0E12ED4
:10297000F12C0E940C13E1E0F0E0EC0FFD1FEE0DD6
:10298000FF1D80831F5F143090F3898186FF3DC057
:102990000F2EFCE0FF2EF02D3FC040E050E0BA01CA
:1029A00089EE0E942013823040F46894FF24F1F8ED
:1029B0000F2EF9EEEF2EF02D06C0FF24F3940F2E0C
:1029C000F1E4EF2EF02D08EA11E602C001501109E2
:1029D0000115110541F040E050E0BA018E2D0E9432
:1029E00020138111F3CF012BA1F040E052E060E011
:1029F00070E080E50E94201381110DC00DC0F12C04
:102A00000BC0F12C09C0F12C07C06894FF24F2F828
:102A100003C0F12C01C0F12CF092F7020E94651363
:102A200081E0F11080E00F900F900F900F90DF91F8
:102A3000CF911F910F91FF90EF900895EF92FF9229
:102A40000F931F93CF93DF938B01C42F98B39F7E77
:102A500098BB0E94CD110BC078018FEFE81AF80ADD
:102A60008FEF0E94CD11F8018083CD2F8701DFEF1A
:102A7000DC0FC111F1CF88B3806188BBDF91CF91AA
:102A80001F910F91FF90EF900895CF93C62F98B3A9
:102A90009F7E98BB80620E94CD118C2F0E94CD1129
:102AA00088B3806188BBCF910895CF93C82F88B336
:102AB0008F7E88BB8C2F0E94CD11C73019F08FEF0D
:102AC0000E94CD1198B3906198BBCF9108951F9249
:102AD0000F920FB60F9211242F933F934F935F9352
:102AE0006F937F938F939F93AF93BF93EF93FF93D6
:102AF00087E00E94551586FF0AC045E069EF72E045
:102B000081E60E941E1560E487E00E9445158091D1
:102B10006403863011F41092640381E08093F8021C
:102B2000FF91EF91BF91AF919F918F917F916F91A5
:102B30005F914F913F912F910F900FBE0F901F907B
:102B40001895FC0103C06083AC013196CA0101975E
:102B5000452BC9F70895CF93DF93DC01FB0180E09B
:102B600090E002C0FB01DE019A0121503109452BA2
:102B700061F0ED0121968C9190E0BF016F5F7F4F76
:102B80004081841B9109A90169F3DF91CF910895D8
:102B90000F931F93E091FE02F091FF029B01AC01A5
:102BA000225031094109510980859185A285B3855B
:102BB0000297A109B109281739074A075B0768F48A
:102BC000A181B0E00E947F2E04891589268937896A
:102BD000600F711F821F931F03C060E070E0CB0184
:102BE0001F910F9108950F931F93CF93DF93FC01D3
:102BF000A091FE02B091FF02118210826481758162
:102C000086819781613071058105910591F1189652
:102C10000D911D912D913C911B97601771078207B3
:102C2000930748F5611571058105910549F42C91CB
:102C3000233031F450966D917D918D919C915397F5
:102C4000EF01608771878287938761157105810520
:102C5000910519F00E94C81506C050966D917D919E
:102C60008D919C9153976C877D878E879F8780E09D
:102C700003C081E001C081E0DF91CF911F910F91EE
:102C800008950F931F93CF93DF93EB01FC01028113
:102C900013814BE050E060E270E0C8010E94A11592
:102CA0002881398190E080E058E001C0842F41E024
:102CB000480FF901E80FF11D80818132C0F08F3299
:102CC000B1F08E3211F0951738F0583081F48E3211
:102CD00071F498E05BE0EACF6FE9680F6A3108F4BD
:102CE0008052F801E90FF11D80839F5FDFCF240F31
:102CF000311D3983288391E0813208F090E0F8019A
:102D0000938780E0DF91CF911F910F910895CF922B
:102D1000DF92EF92FF920F931F93CF93DF93EC011B
:102D20006A017B0102E010E02EEF31E00E9468139F
:102D3000811125C08881998185359A4A11F526E34C
:102D400030E0B701A601CE010E946813811105C0D1
:102D50008881998186349144B1F002E010E022E547
:102D600030E0B701A601CE010E94681381110DC0A9
:102D7000888199818634914451F081E009C083E0D3
:102D800007C082E005C080E003C081E001C080E0B0
:102D9000DF91CF911F910F91FF90EF90DF90CF9037
:102DA00008954F925F926F927F928F929F92AF920F
:102DB000BF92CF92DF92EF92FF920F931F93CF9328
:102DC000DF9300D000D0CDB7DEB7E090FE02F090E8
:102DD000FF02623071058105910508F4BFC0F7015B
:102DE00080849184A284B384681579058A059B0543
:102DF00008F0B9C04B015C018081823009F462C0E7
:102E0000833009F47FC0813009F0B2C0C4019695C7
:102E10008795880D991D9C013170892F992786957A
:102E20002F3FF1E03F0791F0F70144855585668516
:102E30007785480F591F611D711D02E010E0CE011A
:102E400001960E946813882361F197C0F7014485B9
:102E50005585668577852C01612C712C440D551D97
:102E6000661D771D01E010E02FEF31E0CE010196E5
:102E70000E946813811186C0F701448555856685D7
:102E80007785440D551D661D771D4F5F5F4F6F4F52
:102E90007F4F20E030E0CE0102960E94681381113E
:102EA00076C069817A8180FE09C0729562956F70E3
:102EB00067277F70672780E090E077C07F7080E0B1
:102EC00090E073C094013327220F331FF701C484AD
:102ED000D584E684F784BB27AB2D9A2D892DB701C5
:102EE000A601480F591F6A1F7B1F02E010E0CE01A8
:102EF00001960E94681381114FC069817A8180E038
:102F000090E053C094012F773327220F331F220FF5
:102F1000331FF701C484D584E684F784D501C40146
:102F2000689416F8B695A795979587951694D1F756
:102F3000B701A601480F591F6A1F7B1F04E010E06C
:102F4000CE0101960E94681381112BC089819A815C
:102F5000AB81BC81BC01CD019F7027C061E070E0F6
:102F600080E090E022C061E070E080E090E01DC071
:102F700061E070E080E090E018C061E070E080E027
:102F800090E013C061E070E080E090E00EC061E08E
:102F900070E080E090E009C061E070E080E090E0E7
:102FA00004C061E070E080E090E00F900F900F901F
:102FB0000F90DF91CF911F910F91FF90EF90DF90D5
:102FC000CF90BF90AF909F908F907F906F905F90C9
:102FD0004F900895CF92DF92EF92FF920F931F933D
:102FE000CF93DF93E090FE02F090FF02FC01C081DE
:102FF000D181219609F45CC0448555856685778525
:10300000411551056105710509F454C08C01CE01CB
:103010008F709927892B09F046C04F5F5F4F6F4F24
:103020007F4F4487558766877787408551856285BE
:103030007385411551056105710539F4F7018481E6
:103040009581C817D907C0F52EC0F701818190E09E
:1030500001979E01329522952F7023273F702327D9
:1030600082239323892BF9F4CB01BA010E94D11654
:10307000623071058105910508F1F701C084D184A2
:10308000E284F3846C157D058E059F05C8F4F80174
:1030900060877187828793870E94C815F8016487CB
:1030A000758786879787F801D183C08380E009C040
:1030B00083E007C083E005C083E003C081E001C076
:1030C00083E0DF91CF911F910F91FF90EF90DF9000
:1030D000CF900895DF92EF92FF920F931F93CF93BB
:1030E000DF937C010E94F31581113EC0E091FE0246
:1030F000F091FF02C681D781F701208131812F70C5
:103100003327220F331F22953295307F3227207FBD
:103110003227448555856685778500E210E0CE012B
:103120000E94681391E0811101C090E0D92E9111A5
:1031300016C088818823A9F08B8583FD0AC0F7011A
:10314000628173814BE050E0CE010E94AB15892B68
:1031500051F0C7010E94EA17882371F205C0892F38
:1031600003C083E001C08D2DDF91CF911F910F919E
:10317000FF90EF90DF9008950F931F93CF93DF930D
:1031800000D0CDB7DEB78C017A83698303C0319656
:10319000FA83E983E981FA8180818032C1F38F3239
:1031A00019F43196FA83E983D80114961D921D9281
:1031B0001D921C921797E981FA818081813260F417
:1031C000C8010E94F315E091FE02F091FF02068013
:1031D000F781E02D108242C0BE016F5F7F4FC801B2
:1031E0000E94411681113AC0C8010E946A188823C2
:1031F00059F0833099F5D8011296ED91FC9113970F
:103200009385992341F12AC0D8011296ED91FC9142
:1032100013979385911122C0E091FE02F091FF0275
:103220000680F781E02D838584FF17C08489958906
:10323000A0E0B0E0BC0155274427828D938DA0E02B
:10324000B0E0842B952BA62BB72BF80184839583B4
:10325000A683B783C1CF84E001C084E00F900F90B4
:10326000DF91CF911F910F9108954F925F926F92CE
:103270007F928F929F92AF92BF92DF92EF92FF92D6
:103280000F931F93CF93DF93CDB7DEB7A8970FB6F9
:10329000F894DEBF0FBECDBF1092FF021092FE0267
:1032A000009709F4FBC07C010E94411480FDF8C026
:1032B00040E050E0BA01CE0101960E948716D82E58
:1032C00041E084131CC000E110E02EEB31E040E04F
:1032D00050E0BA01CE0101960E946813811113C01B
:1032E0008D818823C1F089849A84AB84BC84B50124
:1032F000A401CE0101960E948716D82E0FC0812C02
:10330000912C54010BC0812C912C54010F2EF3E011
:10331000DF2EF02D03C0812C912C540153E0D516E3
:1033200009F4C0C0D110C0C004E210E02DE030E0CC
:10333000B501A401CE0101960E9468138111B6C0A7
:103340002A853B8540E050E02115310541055105B6
:1033500021F4288D398D4A8D5B8DAC81B0E00E94BF
:103360007F2E6DA37EA38FA398A78A819B81880E51
:10337000991EA11CB11CD7011C968D929D92AD92F5
:10338000BC921F97E9811196EC9311978D819E81D4
:1033900015969C938E9314970F81188520E030E04A
:1033A000011511052105310521F40C891D892E898E
:1033B0003F894A815B81041B150B210931094DA10D
:1033C0005EA16FA178A5041B150B260B370B9295F8
:1033D00082958F7089279F7089272C01612C712C11
:1033E000C901B80164197509860997092E2F30E0C3
:1033F00040E050E00E94292EBA01A9014E5F5F4FC4
:103400006F4F7F4FD70118964D935D936D937C93CB
:103410001B97473FBFE05B076105710510F481E032
:1034200001C082E0473F5F4F6105710508F083E00E
:10343000D7018C93833051F488A199A1AAA1BBA193
:10344000F701808B918BA28BB38B0DC08DA19EA1B8
:10345000AFA1B8A5880D991DAA1DBB1DF701808BD2
:10346000918BA28BB38B4DA15EA16FA178A5840E29
:10347000951EA61EB71E840C951CA61CB71CD70152
:1034800054968D929D92AD92BC92579712961C9233
:10349000F092FF02E092FE0280E009C080E007C0E7
:1034A00082E005C081E003C087E001C081E0A8960A
:1034B0000FB6F894DEBF0FBECDBFDF91CF911F9145
:1034C0000F91FF90EF90DF90BF90AF909F908F9003
:1034D0007F906F905F904F9008950F931F93CF93BD
:1034E000DF93CDB7DEB7EC970FB6F894DEBF0FBE13
:1034F000CDBF0091FE021091FF0201151105C9F127
:10350000BC01F8011282CE014D96978386830C97F9
:103510009C838B8340970E94BC1881112FC08D8D96
:10352000882349F188A584FD28C089A99AA9A0E02B
:10353000B0E0BC01552744278FA998ADA0E0B0E0CA
:10354000842B952BA62BB72BF80180A391A3A2A3C4
:10355000B3A389AD9AADABADBCAD848F958FA68F6B
:10356000B78F108E118E128E138E81E0828380E0D1
:1035700005C086E003C083E001C083E0EC960FB68F
:10358000F894DEBF0FBECDBFDF91CF911F910F9199
:1035900008952F923F924F925F926F927F928F92F7
:1035A0009F92AF92BF92CF92DF92EF92FF920F93D2
:1035B0001F93CF93DF933C016B014A01E090FE0221
:1035C000F090FF02FA0111821082E114F10409F473
:1035D000BBC0F701828180FFB9C0848D958DA68D17
:1035E000B78D408D518D628D738D841B950BA60B0D
:1035F000B70BA60160E070E084179507A607B70730
:1036000008F46C01530196C0F701208C318C428C78
:10361000538CD201C1019170AA27BB27892B8A2B19
:103620008B2B09F04EC0218130E040E050E0C20118
:10363000B101052E59E096958795779567955A952E
:10364000D1F7502D0E94292E672B682B692BE9F4A6
:1036500023282428252831F4F70160A171A182A133
:1036600093A107C0F70164A175A186A197A10E944B
:10367000D116623071058105910508F461C0F7012A
:1036800064A375A386A397A31382F70164A175A110
:1036900086A197A10E94C815611571058105910544
:1036A00009F44EC0F701238131E0320F3383DC018E
:1036B000CB01820F911DA11DB11D80A791A7A2A7CB
:1036C000B3A7F701808D918DA28DB38D9C013170D0
:1036D000C0E0D2E0C21BD30BCC16DD0608F4E60135
:1036E000F70140A551A562A573A56114710419F4F1
:1036F00080E090E002C08A2D9B2D8E010E9468130D
:1037000081111EC0F701808D918DA28DB38D8C0F1C
:103710009D1FA11DB11D808F918FA28FB38FAC0E05
:10372000BD1ECC1ADD0AF40180819181C80FD91F1A
:10373000D183C083C114D10409F066CF80E007C0F3
:10374000F701128281E003C086E001C085E0DF91CD
:10375000CF911F910F91FF90EF90DF90CF90BF908E
:10376000AF909F908F907F906F905F904F903F9021
:103770002F9008954F925F926F927F928F929F92B7
:10378000AF92BF92CF92DF92EF92FF92CF93DF93EF
:1037900000D000D000D0CDB7DEB72091FE0230912E
:1037A000FF023E832D832115310509F4F4C0D901B0
:1037B00012962C91129720FFF0C05C96CD90DD9070
:1037C000ED90FC905F97C616D706E806F90610F054
:1037D0006B017C01ED81FE81408C518C628C738C7D
:1037E000108E118E128E138EC114D104E104F104D7
:1037F00009F4D5C08180912CA12CB12C072E79E041
:10380000880C991CAA1CBB1C7A95D1F7702D411409
:1038100051046104710409F440C0C701B60161504C
:10382000710981099109A50194010E94292E29831A
:103830003A834B835C83B1E04B1A510861087108ED
:10384000C301B201A50194010E94292E89819A81A8
:10385000AB81BC8182179307A407B507F0F08827D6
:103860009927DC0188199909AA09BB09482259221C
:103870006A227B22AD81BE8158964D925D926D92F7
:103880007C925B97C418D508E608F70894966D916A
:103890007D918D919C91979733C0ED81FE8160A1C0
:1038A00071A182A193A164A375A386A397A328C045
:1038B0000E94D116623071058105910508F465C03A
:1038C000ED81FE81408451846284738464157505A2
:1038D0008605970508F059C064A375A386A397A32E
:1038E000408C518C628C738C480C591C6A1C7B1C5C
:1038F000408E518E628E738EC818D908EA08FB0874
:103900008C149D04AE04BF0498F2AD81BE8158961C
:103910008D909D90AD90BC905B978C0C9D1CAE1CC7
:10392000BF1CFD01808E918EA28EB38E0E94C815A1
:10393000611571058105910541F146015701072E79
:1039400079E0B694A794979487947A95D1F7702DDF
:10395000AD81BE8113968C92B1E0DB22EE24FF2470
:10396000CD28CE28CF28E9F021E0280DED81FE8179
:103970002383DC01CB01880D911DA11DB11D80A702
:1039800091A7A2A7B3A780E00DC0AD81BE8112961A
:103990001C9281E007C086E005C085E003C080E09E
:1039A00001C080E026960FB6F894DEBF0FBECDBFF3
:1039B000DF91CF91FF90EF90DF90CF90BF90AF90CD
:1039C0009F908F907F906F905F904F900895982F69
:1039D00092959F70990F292F220F220F920F8F70AF
:1039E000890F08950E94061D80ED0E940F1D8EE034
:1039F0000E940F1D80E20E940F1D88E00E940F1D93
:103A00000E940C1D089580E280B9089584EA86BF63
:103A100006B607FEFDCF089584E986BF089583B9F1
:103A200084E886BF06B607FEFDCF089584EC86BF06
:103A300006B607FEFDCF83B1089584E886BF06B6BB
:103A400007FEFDCF83B1089590BD89B98AB1886121
:103A50008AB98BB182608BB980B58E6880BD0895BC
:103A60002F923F924F925F926F927F928F929F928E
:103A7000AF92BF92CF92DF92EF92FF920F931F937C
:103A8000CF93DF930FEF1FEF21E030E040ED51E0E7
:103A900061E070E08FE090E00E94B5050F2EFEE03F
:103AA000CF2ED12CF02DE12CF12C0F2EF4EE8F2EF9
:103AB00099249A94F02DAA24A394B12C03EF1FEF1C
:103AC00025C0112344F021E0C21AD10882E0880EFB
:103AD000911C080D191D2FEFE21AF20A82E0A80EC0
:103AE000B11C0A0D1B1DCFE0D0E03E016C187D0813
:103AF000CE19DF094FEF5FEFB301CE010E94FD0346
:103B00004FEF5FEFBE01C3010E94FD03EC14FD0403
:103B1000C4F20FEF1FEF20E331E04EED51E06FE014
:103B200070E08EED91E00E94B5050EE010E080E0BF
:103B300090E00F2EF4EE8F2E99249A94F02DCC2441
:103B4000C394D12C0F2EF3EFEF2EFF24FA94F02D17
:103B500028C0FF203CF00150110922E0820E911C88
:103B6000E80CF91C5C012FEFA21AB20A22E0C20E87
:103B7000D11CEC0CFD1CCFE0D0E0BE01601B710B32
:103B80004FEF5FEF8F529E4F0E94FD03BE016A19F7
:103B90007B094FEF5FEFC80180539E4F0E94FD03EA
:103BA000C50180179107ACF20FEF1FEF20E331E062
:103BB00041E050E06FE070E081E090E00E94B505E8
:103BC0000EE010E0C0E0D0E00F2EF4EE8F2E99242E
:103BD0009A94F02DCC24C394D12C0F2EF3EFEF2E1A
:103BE000FF24FA94F02D2CC0FF203CF00150110965
:103BF00082E0880E911CE80CF91C3E012FEF621A3E
:103C0000720A82E0C80ED11CEC0CFD1C0F2EFFE0E6
:103C1000AF2EB12CF02D4FEF5FEFB801605D7E4FFE
:103C2000C501861997090E94FD03BE016F5C7E4F96
:103C30004FEF5FEFC501801B910B0E94FD03E30175
:103C4000C017D1078CF20FEF1FEF2EE331E040EDEC
:103C500051E06EE371E08FE090E00E94B5050EE068
:103C600010E0C0E0D0E00F2EF4EE8F2E99249A944D
:103C7000F02DCC24C394D12C0F2EF3EFEF2EFF2484
:103C8000FA94F02D27C0FF203CF00150110922E0EA
:103C9000820E911CE80CF91C5E018FEFA81AB80A7D
:103CA00022E0C20ED11CEC0CFD1C4FEF5FEFB801FF
:103CB000605D7E4FCE018F529E4F0E94FD03BE017C
:103CC0006F5C7E4F4FEF5FEFC80180539E4F0E94A5
:103CD000FD03E501C017D107B4F20FEF1FEF2CED84
:103CE00030E044EA50E06EE371E084EA90E00E9444
:103CF000B50521EE30E048EA50E06EE371E088EA75
:103D000090E00E94B5052CED30E045E551E06CED0A
:103D100070E08BE391E00E94B5052CED30E04AE3C2
:103D200051E06EE371E08AE391E00E94B50521EE77
:103D300030E046E351E06EE371E086E391E00E94FB
:103D4000B5052CED30E04EED51E06CED70E085EC0A
:103D500091E00E94B50526EE30E04BEB51E066EEB7
:103D600070E080E691E00E94B5052EEC30E04BEB70
:103D700051E06EEC70E080E691E00E94B5054FEFF7
:103D80005FEF6AED70E086E591E00E94FD030CE0D4
:103D900010E0C0E0D0E00F2EF8EE8F2E99249A9418
:103DA000F02DAA24A394B12C0F2EF5EFEF2EFF24B3
:103DB000FA94F02D43C0FF203CF00150110982E03D
:103DC000880E911CE80CF91C6E012FEFC21AD20A62
:103DD00082E0A80EB11CEA0CFB1C0F2EF2E64F2E5F
:103DE00055245394F02D32016C187D084FEF5FEF8E
:103DF000B80166527F4FC3010E94FD030F2EFAEDFA
:103E00002F2E312CF02DB101601B710B4FEF5FEFA6
:103E1000C3010E94FD03BE0165527F4F401A510A43
:103E20004FEF5FEFC2010E94FD03B1016C197D09E4
:103E30004FEF5FEFC2010E94FD03E601C017D107FB
:103E40000CF4B9CF4FEF5FEF6AED70E085EC91E0D5
:103E50000E94FD030CE010E0C0E0D0E00F2EF8EE71
:103E60008F2E99249A94F02DCC24C394D12C0F2E0C
:103E7000F5EFEF2EFF24FA94F02D40C0FF203CF028
:103E80000150110922E0820E911CE80CF91C2E0150
:103E90008FEF481A580A22E0C20ED11CEC0CFD1C10
:103EA0005E0186E4A81A8EEFB80A4FEF5FEFB80103
:103EB00066527F4FC5010E94FD030F2EFAED6F2E53
:103EC000712CF02DB301601B710B4FEF5FEFC5013B
:103ED0000E94FD03BE0165527F4F4FEF5FEFE80187
:103EE000C754DE4FCE010E94FD03B301641975096A
:103EF0004FEF5FEFCE010E94FD03E201C017D10733
:103F00000CF4BCCF0FEF1FEF26EE30E04FE750E090
:103F100066EE70E084E290E00E94B5052EEC30E0A1
:103F20004FE750E06EEC70E084E290E00E94B5054F
:103F30004FEF5FEF6AED70E08AE190E00E94FD03D1
:103F40000CE010E0C0E0D0E00F2EF8EE8F2E9924A8
:103F50009A94F02DAA24A394B12C0F2EF5EFEF2EF6
:103F6000FF24FA94F02D42C0FF203CF001501109CB
:103F700022E0820E911CE80CF91C6E018FEFC81A2A
:103F8000D80A22E0A20EB11CEA0CFB1C0F2EF6E2AE
:103F90004F2E512CF02D32016C187D084FEF5FEF42
:103FA000B80166527F4FC3010E94FD030F2EFAED48
:103FB0002F2E312CF02DB101601B710B4FEF5FEFF5
:103FC000C3010E94FD03BE0165527F4F401A510A92
:103FD0004FEF5FEFC2010E94FD03B1016C197D0933
:103FE0004FEF5FEFC2010E94FD03E601C017D1074A
:103FF0000CF4BACF4FEF5FEF6AED70E089E890E024
:104000000E94FD030CE010E0C0E0D0E00F2EF8EEBF
:104010008F2E99249A94F02DCC24C394D12C0F2E5A
:10402000F5EFEF2EFF24FA94F02D3FC0FF203CF077
:104030000150110982E0880E911CE80CF91C2E0138
:104040002FEF421A520A82E0C80ED11CEC0CFD1C64
:104050005E012EE7A20EB11C4FEF5FEFB801665272
:104060007F4FC5010E94FD030F2EFAED6F2E712CBC
:10407000F02DB301601B710B4FEF5FEFC5010E9484
:10408000FD03BE0165527F4F4FEF5FEFE801C3585C
:10409000DF4FCE010E94FD03B301641975094FEF94
:1040A0005FEFCE010E94FD03E201C017D1070CF4BF
:1040B000BDCF0FEF1FEF2CED30E049E150E06CED8C
:1040C00070E081E090E00E94B5052CED30E043EA1D
:1040D00050E06CED70E089E890E00E94B50528EDB5
:1040E00030E045E551E068ED70E089E890E00E943D
:1040F000B50528ED30E04AE150E068ED70E081E080
:1041000090E00E94B50528ED30E04EED51E068EDFD
:1041100070E085EC91E00E94B50528E730E04EEDB7
:1041200051E068E770E081E090E00E94B5052CE77F
:1041300030E045E950E06CE770E081E090E00E94FB
:10414000B5052CE730E04EED51E06CE770E08AE415
:1041500091E00E94B50524E630E041EA50E061E0DC
:1041600070E081E990E00E94B50524E630E04CE380
:1041700051E061E070E08CE491E00E94B50520E63A
:1041800030E045EA50E061E070E085E990E00E94AF
:10419000B50520E630E048E351E061E070E088E4F6
:1041A00091E00E94B5052FEF3FEF41E650E06FE947
:1041B00070E08FEE90E00E94E30500E010E028E759
:1041C00030E047E451E068E770E088E990E00E9461
:1041D000B50528ED30E04DE351E068ED70E081EA8F
:1041E00090E00E94B50529ED30E041E050E06BED34
:1041F00070E081E090E00E94B50529ED30E04EEDE1
:1042000051E06BED70E08EED91E00E94B5052BE77B
:1042100030E041E050E069E770E081E090E00E942A
:10422000B5052BE730E04EED51E069E770E08EED2B
:1042300091E00E94B50521E030E044E950E061E002
:1042400070E082E990E00E94B50521E030E04BE4A7
:1042500051E061E070E089E491E00E94B5052EE351
:1042600031E047EA50E06EE371E085EA90E00E94B9
:10427000B5052EE331E049E351E06EE371E087E3F9
:1042800091E00E94B505C5EAD0E00BC000E010E067
:1042900026EE30E0AE016CED70E0CE010E94B50577
:1042A0002196C83AD10590F3C7E3D1E00BC000E0F6
:1042B00010E026EE30E0AE016CED70E0CE010E9421
:1042C000B5052196CA3381E0D80788F3C9EDD0E05F
:1042D0000BC000E010E09E014AEA50E0BE0180EA17
:1042E00090E00E94B5052196CC3DD10590F3C9ED33
:1042F000D0E00BC000E010E09E0140E451E0BE01C0
:1043000086E391E00E94B5052196CC3DD10590F35E
:10431000C9E7D0E00BC000E010E09E0140EA50E0A9
:10432000BE018CE890E00E94B5052196CC37D105FE
:1043300090F3C9E7D0E00BC000E010E09E0144E537
:1043400051E0BE0180E491E00E94B5052196CC3792
:10435000D10590F3C2EAD0E00BC000E010E024E603
:1043600030E0AE0160E670E0CE010E94B505219616
:10437000C53AD10590F3C9E3D1E00BC000E010E0ED
:1043800024E630E0AE0160E670E0CE010E94B505A3
:104390002196CC3321E0D20788F360E070E080EE14
:1043A0009FEF0E94600960ED70E08DE591E00E9452
:1043B000BA0E61E08BE091E00E94191060E070E0BD
:1043C00082EA9BEF0E94600960ED70E088E290E075
:1043D0000E94BA0E61E083E191E00E941910DF9122
:1043E000CF911F910F91FF90EF90DF90CF90BF90F2
:1043F000AF909F908F907F906F905F904F903F9085
:104400002F90089580E090E00E940C0481E00E94CB
:104410007F016EE170E086E990E00E94BA0E6FEFD6
:104420007FEF80E090E00E94600960E08AE191E027
:104430000E94C30E66E470E086E690E00E94BA0E29
:1044400060E070E08FEF9FEF0E94600960E084E21F
:1044500091E00E94C30E6EE670E086E690E00E9456
:10446000BA0E60E083E391E00E94C30E66E970E05B
:1044700086E690E00E94BA0E60E081E491E00E943E
:10448000C30E6EEB70E086E690E00E94BA0E60E02C
:104490008FE491E00E94C30E0895CF92DF92EF92D5
:1044A000FF920F931F938091E00283781CF4815058
:1044B0008C6F8F5F813009F492C01CF4882341F027
:1044C00026C2823009F414C1833009F49AC11FC294
:1044D000CC24CA94DC2C0F2EF3E6EF2EF12CF02D19
:1044E00008E410E023E530E047E550E063E470E0E5
:1044F00088E490E00E94C807C12CD12C0F2EFBE865
:10450000EF2EF12CF02D2BE730E047E550E06BE685
:1045100070E088E490E00E94C8070F2EF3EBEF2EC6
:10452000F12CF02D23EA30E047E550E063E970E03C
:1045300088E490E00E94C8070F2EFBEDEF2EF12CCF
:10454000F02D2BEC30E047E550E06BEB70E088E4B9
:1045500090E00E94C807CC24CA94DC2C0F2EF3E60E
:10456000EF2EF12CF02D0DE811E023E530E04EE7C1
:1045700051E063E470E08DE891E00E94C807C12C2F
:10458000D12C0F2EFBE8EF2EF12CF02D2BE730E095
:104590004EE751E06BE670E08DE891E00E94C807BD
:1045A0000F2EF3EBEF2EF12CF02D23EA30E04EE747
:1045B00051E063E970E08DE891E00E94C8070F2E9A
:1045C000FBEDEF2EF12CF02D2BEC30E04EE751E01F
:1045D0006BEB70E08DE891E00E94C80798C1C12C98
:1045E000D12C0F2EF3E6EF2EF12CF02D08E410E085
:1045F00023E530E047E550E063E470E088E490E0D4
:104600000E94C807CC24CA94DC2C0F2EFBE8EF2EA6
:10461000F12CF02D2BE730E047E550E06BE670E041
:1046200088E490E00E94C807C12CD12C0F2EF3EB38
:10463000EF2EF12CF02D23EA30E047E550E063E95E
:1046400070E088E490E00E94C8070F2EFBEDEF2E8B
:10465000F12CF02D2BEC30E047E550E06BEB70E0F7
:1046600088E490E00E94C8070F2EF3E6EF2EF12CAD
:10467000F02D0DE811E023E530E04EE751E063E472
:1046800070E08DE891E00E94C807CC24CA94DC2C2D
:104690000F2EFBE8EF2EF12CF02D2BE730E04EE74C
:1046A00051E06BE670E08DE891E00E94C807C12CF4
:1046B000D12C0F2EF3EBEF2EF12CF02D23EA30E06E
:1046C0004EE751E063E970E08DE891E00E94C80791
:1046D0000F2EFBEDEF2EF12CF02D2BEC30E04EE702
:1046E00051E06BEB70E08DE891E00E94C8070FC1CC
:1046F000C12CD12C0F2EF3E6EF2EF12CF02D08E477
:1047000010E023E530E047E550E063E470E088E442
:1047100090E00E94C8070F2EFBE8EF2EF12CF02D41
:104720002BE730E047E550E06BE670E088E490E08E
:104730000E94C807CC24CA94DC2C0F2EF3EBEF2E7A
:10474000F12CF02D23EA30E047E550E063E970E01A
:1047500088E490E00E94C807C12CD12C0F2EFBEDFD
:10476000EF2EF12CF02D2BEC30E047E550E06BEB19
:1047700070E088E490E00E94C8070F2EF3E6EF2E69
:10478000F12CF02D0DE811E023E530E04EE751E08B
:1047900063E470E08DE891E00E94C8070F2EFBE80B
:1047A000EF2EF12CF02D2BE730E04EE751E06BE6D9
:1047B00070E08DE891E00E94C807CC24CA94DC2CFC
:1047C0000F2EF3EBEF2EF12CF02D23EA30E04EE725
:1047D00051E063E970E08DE891E00E94C807C12CC8
:1047E000D12C0F2EFBEDEF2EF12CF02D2BEC30E029
:1047F0004EE751E06BEB70E08DE891E00E94C80756
:1048000086C0C12CD12C0F2EF3E6EF2EF12CF02D0B
:1048100008E410E023E530E047E550E063E470E0B1
:1048200088E490E00E94C8070F2EFBE8EF2EF12CE1
:10483000F02D2BE730E047E550E06BE670E088E4D0
:1048400090E00E94C8070F2EF3EBEF2EF12CF02D15
:1048500023EA30E047E550E063E970E088E490E067
:104860000E94C807CC24CA94DC2C0F2EFBEDEF2E3F
:10487000F12CF02D2BEC30E047E550E06BEB70E0D5
:1048800088E490E00E94C807C12CD12C0F2EF3E6DB
:10489000EF2EF12CF02D0DE811E023E530E04EE78E
:1048A00051E063E470E08DE891E00E94C8070F2EAC
:1048B000FBE8EF2EF12CF02D2BE730E04EE751E036
:1048C0006BE670E08DE891E00E94C8070F2EF3EBD5
:1048D000EF2EF12CF02D23EA30E04EE751E063E9B2
:1048E00070E08DE891E00E94C807CC24CA94DC2CCB
:1048F0000F2EFBEDEF2EF12CF02D2BEC30E04EE7E0
:1049000051E06BEB70E08DE891E00E94C8071F91C9
:104910000F91FF90EF90DF90CF9008950F931F932A
:104920002FEF3FEF4BE450E06FE970E08FEE90E047
:104930000E94E3052FEF3FEF4CE450E06FE970E099
:104940008FEE90E00E94E3052FEF3FEF40E550E04F
:104950006FE970E08FEE90E00E94E3052FEF3FEFEC
:1049600041E550E06FE970E08FEE90E00E94E305D2
:104970000FEF1FEF26E130E046E150E069E470E020
:1049800086EE90E00E94930724E130E044E150E09D
:104990006AE470E087EE90E00E94930700E010E088
:1049A00022E130E042E150E06BE470E088EE90E01C
:1049B0000E945F0460E070E080EE9FE10E94600969
:1049C00069E470E089EE90E00E94BA0E61E084E450
:1049D00092E00E9419100FEF1FEF26E130E046E150
:1049E00050E061EE70E086EE90E00E94930724E1D3
:1049F00030E044E150E062EE70E087EE90E00E942B
:104A0000930700E010E022E130E042E150E063EE85
:104A100070E088EE90E00E945F0460E070E080EE5D
:104A20009FE10E94600961EE70E08AEE90E00E94D2
:104A3000BA0E61E08FE391E00E9419100FEF1FEFB3
:104A400026E130E046E150E065E970E089E990E078
:104A50000E94930724E130E044E150E066E970E011
:104A60008AE990E00E94930700E010E022E130E044
:104A700042E150E067E970E08BE990E00E945F045A
:104A800060E070E080EE9FE10E94600965E970E0FF
:104A90008EE990E00E94BA0E61E082E592E00E9409
:104AA00019100FEF1FEF26E130E046E150E065E915
:104AB00070E080E391E00E94930724E130E044E15C
:104AC00050E066E970E081E391E00E94930700E026
:104AD00010E022E130E042E150E067E970E082E37B
:104AE00091E00E945F0460E070E080EE9FE10E9430
:104AF000600965E970E085E391E00E94BA0E61E02B
:104B00008EE492E00E9419100FEF1FEF2AE630E0CA
:104B10004AEB50E062E770E082EC90E00E94B5055D
:104B200029E630E04BEB50E061E770E083EC90E089
:104B30000E94B5052BE630E049EB50E063E770E0FA
:104B400081EC90E00E94B50522E730E04CE151E0B5
:104B50006AE670E084E291E00E94B50521E730E06A
:104B60004BE151E069E670E083E291E00E94B50517
:104B700023E730E04DE151E06BE670E085E291E043
:104B80000E94B5052CEC30E04CE151E064ED70E0A2
:104B900084E291E00E94B5052BEC30E04DE151E05C
:104BA00063ED70E085E291E00E94B5052DEC30E008
:104BB0004BE151E065ED70E083E291E00E94B505C4
:104BC0002CEC30E042EC50E064ED70E08AEB90E0D9
:104BD0000E94B5052BEC30E041EC50E063ED70E055
:104BE00089EB90E00E94B5052DEC30E043EC50E0FD
:104BF00065ED70E08BEB90E00E94B50520EE3FE1A3
:104C00004EE150E06FE970E08FEE90E00E94E30526
:104C100020EE3FE14DE150E06FE970E08FEE90E073
:104C20000E94E3052FEF3FEF4CE150E06FE970E0A9
:104C30008FEE90E00E94E3052FEF3FEF4BE150E055
:104C40006FE970E08FEE90E00E94E3052FEF3FEFF9
:104C50004AE050E06FE970E08FEE90E00E94E305DB
:104C60002FEF3FEF49E050E06FE970E08FEE90E00A
:104C70000E94E30520EE3FE148E050E06FE970E07C
:104C80008FEE90E00E946A0725E930E04DEE50E09B
:104C900061E870E08FEE90E00E94B50525E930E014
:104CA00041EF50E061E870E08FEE90E00E94B505C2
:104CB0002DE930E045EE50E06FE970E081ED90E0E5
:104CC0000E94B50521EA30E045EE50E06FE970E062
:104CD00081ED90E00E94B5052DE930E049EF50E00C
:104CE0006FE970E08DE091E00E94B50521EA30E0C7
:104CF00049EF50E06FE970E08DE091E00E94B5056A
:104D000029EA30E04DEE50E06DEB70E08FEE90E080
:104D10000E94B50529EA30E041EF50E06DEB70E00C
:104D20008FEE90E00E94B5051F910F91089580E0ED
:104D300090E00E940C0481E00E947F010E94301DDF
:104D40000E948E2460E070E08FE190E00E94600994
:104D500061EF70E08DEA90E00E94BA0E60E082E5BB
:104D600092E00E9419106AEF70E08AEB90E00E94D6
:104D7000BA0E60E086E492E00E9419106FEF70E0D6
:104D800086EC90E00E94BA0E60E084E492E00E941B
:104D9000191061E071E087ED90E00E94BA0E60E0CA
:104DA00088E492E00E94191061E071E08FEE90E0DB
:104DB0000E94BA0E60E08FE391E00E94191061E05A
:104DC00071E08DEF90E00E94BA0E60E08AE492E01C
:104DD0000E9419106FEF70E08BE091E00E94BA0E14
:104DE00060E08EE492E00E9419106AEF70E089E1C1
:104DF00091E00E94BA0E60E08EE492E00E941910E9
:104E000060EF70E087E291E00E94BA0E60E088E413
:104E100092E00E9419100895CF92DF92EF92FF92D4
:104E20000F931F938EE490E0909378038093770321
:104E300064E472E087E793E00E94992E892B49F59C
:104E40000F2EF0EECF2EFFE1DF2EF02D0F2EF3E729
:104E5000EF2EF12CF02D0FEE10E02CE730E049EEB4
:104E600050E063E670E08FEE90E00E94C8070F2EDE
:104E7000FCE7EF2EF12CF02D05EF10E023E730E0FA
:104E80004FEE50E063E670E08FEE90E00E94C807BE
:104E900042C16FE371E087E793E00E94992E892B6E
:104EA00049F50F2EF0EECF2EFFE1DF2EF02D0F2E65
:104EB000FDECEF2EF12CF02D0FEE10E02DED30E09B
:104EC0004FEE50E064EC70E089EE90E00E94C8077D
:104ED0000F2EF4ECEF2EF12CF02D05EF10E02DEC61
:104EE00030E04FEE50E06DED70E08FEE90E00E940C
:104EF000C80711C16EE472E087E793E00E94992E23
:104F0000892B39F50F2EF0EECF2EFFE1DF2EF02D9D
:104F10000F2EF9E9EF2EF12CF02D03E111E02FE92E
:104F200030E04CE151E06FE970E08CE291E00E94EA
:104F3000C8070F2EF5EAEF2EF12CF02D2FE930E007
:104F40004CE151E06FE970E08CE291E00E94C8070B
:104F5000E2C062E572E087E793E00E94992E892B18
:104F600039F50F2EF0EECF2EFFE1DF2EF02D0F2EB4
:104F7000F9E9EF2EF12CF02D0CEC10E02FE930E0E8
:104F800043EC50E06FE970E083EB90E00E94C807CB
:104F90000F2EF5EAEF2EF12CF02D2FE930E043EC47
:104FA00050E06FE970E083EB90E00E94C807B3C067
:104FB0006CE472E087E793E00E94992E892B09F553
:104FC0000F2EF0EECF2EFFE1DF2EF02D6894EE24B1
:104FD000E7F8F12C0EE011E022E830E043E051E088
:104FE00065E770E089E191E00E94C8072BE830E0B6
:104FF0004CE051E065E770E089E191E00E94C8076C
:105000008AC060E572E087E793E00E94992E892BC1
:1050100041F50F2EF0EECF2EFFE1DF2EF02D68943C
:10502000EE24E7F8F12C00ED10E02BE830E042ED43
:1050300050E065E770E085EC90E00E94C8070F2E15
:10504000F2E8EF2EF12CF02D0BED10E020E830E02F
:1050500040ED50E065E770E085EC90E00E94C80705
:105060005AC064E572E087E793E00E94992E892B8D
:1050700049F50F2EF0EECF2EFFE1DF2EF02D0F2E93
:10508000FEEBEF2EF12CF02D0EE011E02CEB30E0DA
:1050900043E051E069EC70E089E191E00E94C807CB
:1050A0000F2EF3EBEF2EF12CF02D0CE011E02EEB98
:1050B00030E04EE051E069EC70E089E191E00E945F
:1050C000C80729C068E572E087E793E00E94992E3F
:1050D000892B09F50F2EF0EECF2EFFE1DF2EF02DFC
:1050E0000F2EFEEBEF2EF12CF02D00ED10E02CEB4F
:1050F00030E04BED50E069EC70E085EC90E00E9410
:10510000C80723EB30E042ED50E069EC70E085EC3D
:1051100090E00E94C8071F910F91FF90EF90DF90E1
:10512000CF9008950F931F93CF93DF93CDB7DEB742
:105130002A970FB6F894DEBF0FBECDBF0E940C2792
:1051400060E070E080EE9FEF0E946009809166034E
:10515000882309F480C06AEF70E08BE891E00E9438
:10516000BA0E60E089E091E00E94A70F809175037C
:105170008A3048F51F928F938CE592E09F938F932E
:105180008E010F5F1F4F1F930F930E94A22E6AEF95
:1051900070E08EE491E00E94BA0E60E0C8010E94C7
:1051A000A70F6FEF70E08AE591E00E94BA0E60E011
:1051B00085E991E00E94C30E0F900F900F900F9021
:1051C0000F900F9028C01F928F938DE592E09F93D0
:1051D0008F938E010F5F1F4F1F930F930E94A22E7C
:1051E0006FEF70E08DE391E00E94BA0E60E085E918
:1051F00091E00E94C30E6AEF70E08EE491E00E949D
:10520000BA0E60E0C8010E94A70F0F900F900F9098
:105210000F900F900F90809165031F928F938DE5F3
:1052200092E09F938F938E010F5F1F4F1F930F93F9
:105230000E94A22E6AEF70E088EA91E00E94BA0E06
:1052400060E0C8010E94A70F0F900F900F900F9081
:105250000F900F9069C06AEF70E08BE891E00E94B8
:10526000BA0E60E089E091E00E94A70F809175037B
:105270008A30F0F41F928F938CE592E09F938F9386
:105280008E010F5F1F4F1F930F930E94A22E6AEF94
:1052900070E08EE491E00E94BA0E60E0C8010E94C6
:1052A000A70F0F900F900F900F900F900F901DC0B1
:1052B0001F928F938DE592E09F938F938E010F5FE6
:1052C0001F4F1F930F930E94A22E6AEF70E08EE48F
:1052D00091E00E94BA0E60E0C8010E94A70F0F90F3
:1052E0000F900F900F900F900F90809165031F9279
:1052F0008F938DE592E09F938F938E010F5F1F4FE9
:105300001F930F930E94A22E6AEF70E088EA91E04B
:105310000E94BA0E60E0C8010E94A70F0F900F9084
:105320000F900F900F900F906CE071E089EC91E07E
:105330000E94BA0E60E080E692E00E94C30E66E929
:1053400070E089E691E00E94BA0E60E082E692E0A9
:105350000E94A70F65EA70E08DEA91E00E94BA0E04
:1053600060E085E692E00E94C30E60E070E08FE9A5
:105370009DE30E94600989E080936E039CE2909314
:105380006D031F928F938CE592E09F938F938E0114
:105390000F5F1F4F1F930F930E94A22E68E171E0D1
:1053A0008BEA90E00E94BA0E60E0C8010E94C30E32
:1053B00068E171E08DEC90E00E94BA0E60E089E057
:1053C00091E00E94C30E68E171E08EED90E00E94D2
:1053D000BA0E80916D031F928F938DE592E09F939B
:1053E0008F931F930F930E94A22E60E0C8010E942A
:1053F000C30E68E171E082E091E00E94BA0E60E0C5
:1054000087E692E00E94C30E68E171E084E291E0D9
:105410000E94BA0E60E080EA90E00E94C30E0FB6D0
:10542000F894DEBF0FBECDBF2A960FB6F894DEBF4C
:105430000FBECDBFDF91CF911F910F910895E6E888
:10544000F3E001900020E9F7AF014758534060E0D6
:1054500070E086E893E00E94922EE2E8F3E001908B
:105460000020E9F7AF014358534060E070E082E864
:1054700093E00E94922EEEE7F3E001900020E9F71E
:105480003197AF014E57534060E070E08EE793E0F4
:105490000E94922EE4E9F3E001900020E9F7AF01C9
:1054A0004559534060E070E084E993E00E94922EF9
:1054B000ECE9F3E001900020E9F7AF014D595340CA
:1054C00060E070E08CE993E00E94922EEAE8F3E05D
:1054D00001900020E9F7AF014B58534060E070E0C5
:1054E0008AE893E00E94922EE8E9F3E00190002020
:1054F000E9F7AF014959534060E070E088E993E073
:105500000E94922E80915E038A3098F41F928F93AE
:105510008AE692E09F938F9386E893E09F938F9320
:105520000E94A22E0F900F900F900F900F900F904F
:1055300012C01F928F938DE592E09F938F9386E820
:1055400093E09F938F930E94A22E0F900F900F9045
:105550000F900F900F9080915C038A3098F41F9207
:105560008F938AE692E09F938F9382E893E09F93D4
:105570008F930E94A22E0F900F900F900F900F907C
:105580000F9012C01F928F938DE592E09F938F939F
:1055900082E893E09F938F930E94A22E0F900F902A
:1055A0000F900F900F900F90809158038A3098F4CD
:1055B0001F928F938AE692E09F938F938EE793E0FA
:1055C0009F938F930E94A22E0F900F900F900F9099
:1055D0000F900F9012C01F928F938DE592E09F93D2
:1055E0008F938EE793E09F938F930E94A22E0F904C
:1055F0000F900F900F900F900F90809161038A3061
:1056000098F41F928F938AE692E09F938F9384E998
:1056100093E09F938F930E94A22E0F900F900F9074
:105620000F900F900F9012C01F928F938DE592E014
:105630009F938F9384E993E09F938F930E94A22E70
:105640000F900F900F900F900F900F9080915D032F
:105650008A3098F41F928F938AE692E09F938F93FB
:105660008CE993E09F938F930E94A22E0F900F904E
:105670000F900F900F900F9012C01F928F938DE597
:1056800092E09F938F938CE993E09F938F930E9476
:10569000A22E0F900F900F900F900F900F90E0910F
:1056A0005F038E2F90E0FC013197E730F10508F0A1
:1056B00049C0E65DFF4F0C946A2E8AE0EEE6F2E008
:1056C000AAE8B3E001900D928A95E1F73BC08AE029
:1056D000E8E7F2E0AAE8B3E001900D928A95E1F7DD
:1056E00031C08AE0E2E8F2E0AAE8B3E001900D926E
:1056F0008A95E1F727C08AE0ECE8F2E0AAE8B3E097
:1057000001900D928A95E1F71DC08AE0E6E9F2E08A
:10571000AAE8B3E001900D928A95E1F713C08AE000
:10572000E0EAF2E0AAE8B3E001900D928A95E1F791
:1057300009C08AE0EAEAF2E0AAE8B3E001900D923B
:105740008A95E1F7E09157038E2F90E0FC013197A5
:10575000EC30F10508F063C0EF5CFF4F0C946A2E4B
:10576000E8E9F3E080E391E3918380831282089576
:10577000E8E9F3E080E392E3918380831282089565
:10578000E8E9F3E080E393E3918380831282089554
:10579000E8E9F3E080E394E3918380831282089543
:1057A000E8E9F3E080E395E3918380831282089532
:1057B000E8E9F3E080E396E3918380831282089521
:1057C000E8E9F3E080E397E3918380831282089510
:1057D000E8E9F3E080E398E39183808312820895FF
:1057E000E8E9F3E080E399E39183808312820895EE
:1057F000E8E9F3E081E390E39183808312820895E6
:10580000E8E9F3E081E391E39183808312820895D4
:10581000E8E9F3E081E392E39183808312820895C3
:105820000E94061D80ED0E940F1D80E00E940F1D4A
:105830000E940C1D0E94061D81ED0E940F1D0E94FA
:10584000161D0E94E71C80935E030E94161D0E9495
:10585000E71C80935C030E94161D0E94E71C809346
:1058600058030E94161D0E94E71C80935F030E944C
:10587000161D0E94E71C809361030E94161D0E9462
:10588000E71C809357030E941D1D0E94E71C809314
:105890005D030E940C1D0E941F2A0895EF92FF9243
:1058A0000F931F93CF93DF93CDB7DEB76E970FB6ED
:1058B000F894DEBF0FBECDBF8AE07E012BE0E20E82
:1058C000F11CF701282F11922A95E9F78E010B5E42
:1058D0001F4FF80111928A95E9F70E94102C82E877
:1058E00093E09F938F938EE793E09F938F938EEC3B
:1058F00092E09F938F93FF92EF920E94A22E8CE9E9
:1059000093E09F938F9388E993E09F938F9384E92B
:1059100093E09F938F9389E990E09F938F931F93D8
:105920000F930E94A22E60E070E08FEF9FEF0E9425
:1059300060096FE070E08AE090E00E94BA0E60E0DB
:10594000C7010E94350F67E370E08CE090E00E9491
:10595000BA0E60E08AE893E00E94191060E570E0FA
:1059600089E090E00E94BA0E60E0C8010E94C30E78
:10597000A89560E070E082EA9BEF0E946009809148
:10598000A0030FB6F894DEBF0FBECDBF882309F485
:105990008AC06AEF70E08FE490E00E94BA0E60E087
:1059A00089E091E00E94A70F80917D038A3098F5ED
:1059B0001F928F938CE592E09F938F93045111096E
:1059C0001F930F930E94A22E6AEF70E083E190E094
:1059D0000E94BA0E60E0C8010E94A70F6FEF70E04E
:1059E00083E090E00E94BA0E60E08EE992E00E94AF
:1059F000C30E6FEF70E08EE190E00E94BA0E60E09F
:105A000085E991E00E94C30E0F900F900F900F90C8
:105A10000F900F9028C01F928F938DE592E09F9377
:105A20008F938E010F5F1F4F1F930F930E94A22E23
:105A30006FEF70E083E090E00E94BA0E60E085E9CD
:105A400091E00E94C30E6AEF70E083E190E00E9453
:105A5000BA0E60E0C8010E94A70F0F900F900F9040
:105A60000F900F900F90809176031F928F938DE58A
:105A700092E09F938F938E010F5F1F4F1F930F93A1
:105A80000E94A22E6AEF70E08EE690E00E94BA0EAD
:105A900060E0C8010E94A70F0F900F900F900F9029
:105AA0000F900F9069C06AEF70E08FE490E00E9461
:105AB000BA0E60E089E091E00E94A70F80917D031B
:105AC0008A30F0F41F928F938CE592E09F938F932E
:105AD0008E010F5F1F4F1F930F930E94A22E6AEF3C
